{
  "_format": "hh-sol-artifact-1",
  "contractName": "FinalPredictionMarket",
  "sourceName": "contracts/FinalPredictionMarket.sol",
  "abi": [
    {
      "anonymous": false,
      "inputs": [
        {
          "indexed": true,
          "internalType": "uint256",
          "name": "id",
          "type": "uint256"
        },
        {
          "indexed": false,
          "internalType": "string",
          "name": "action",
          "type": "string"
        }
      ],
      "name": "MarketStateChanged",
      "type": "event"
    },
    {
      "inputs": [
        {
          "internalType": "uint256",
          "name": "_marketId",
          "type": "uint256"
        },
        {
          "internalType": "address",
          "name": "_user",
          "type": "address"
        }
      ],
      "name": "calculateWinnings",
      "outputs": [
        {
          "internalType": "uint256",
          "name": "",
          "type": "uint256"
        }
      ],
      "stateMutability": "view",
      "type": "function"
    },
    {
      "inputs": [
        {
          "internalType": "uint256",
          "name": "_marketId",
          "type": "uint256"
        }
      ],
      "name": "claimWinnings",
      "outputs": [],
      "stateMutability": "nonpayable",
      "type": "function"
    },
    {
      "inputs": [
        {
          "internalType": "string",
          "name": "_question",
          "type": "string"
        },
        {
          "internalType": "uint256",
          "name": "_endDate",
          "type": "uint256"
        }
      ],
      "name": "createMarket",
      "outputs": [],
      "stateMutability": "nonpayable",
      "type": "function"
    },
    {
      "inputs": [],
      "name": "getAllMarkets",
      "outputs": [
        {
          "internalType": "uint256[]",
          "name": "marketIds",
          "type": "uint256[]"
        },
        {
          "internalType": "address[]",
          "name": "owners",
          "type": "address[]"
        },
        {
          "internalType": "string[]",
          "name": "questions",
          "type": "string[]"
        },
        {
          "internalType": "uint256[]",
          "name": "totalYesStakes",
          "type": "uint256[]"
        },
        {
          "internalType": "uint256[]",
          "name": "totalNoStakes",
          "type": "uint256[]"
        },
        {
          "internalType": "uint256[]",
          "name": "endDates",
          "type": "uint256[]"
        },
        {
          "internalType": "enum FinalPredictionMarket.Outcome[]",
          "name": "outcomes",
          "type": "uint8[]"
        }
      ],
      "stateMutability": "view",
      "type": "function"
    },
    {
      "inputs": [],
      "name": "getMarketCount",
      "outputs": [
        {
          "internalType": "uint256",
          "name": "_marketCount",
          "type": "uint256"
        }
      ],
      "stateMutability": "view",
      "type": "function"
    },
    {
      "inputs": [
        {
          "internalType": "uint256",
          "name": "_marketId",
          "type": "uint256"
        }
      ],
      "name": "getMarketDetails",
      "outputs": [
        {
          "internalType": "address",
          "name": "owner",
          "type": "address"
        },
        {
          "internalType": "string",
          "name": "question",
          "type": "string"
        },
        {
          "internalType": "uint256",
          "name": "totalYesStake",
          "type": "uint256"
        },
        {
          "internalType": "uint256",
          "name": "totalNoStake",
          "type": "uint256"
        },
        {
          "internalType": "uint256",
          "name": "endDate",
          "type": "uint256"
        },
        {
          "internalType": "enum FinalPredictionMarket.Outcome",
          "name": "outcome",
          "type": "uint8"
        }
      ],
      "stateMutability": "view",
      "type": "function"
    },
    {
      "inputs": [
        {
          "internalType": "uint256",
          "name": "_marketId",
          "type": "uint256"
        }
      ],
      "name": "getMarketOutcome",
      "outputs": [
        {
          "internalType": "enum FinalPredictionMarket.Outcome",
          "name": "",
          "type": "uint8"
        }
      ],
      "stateMutability": "view",
      "type": "function"
    },
    {
      "inputs": [
        {
          "internalType": "uint256",
          "name": "_marketId",
          "type": "uint256"
        },
        {
          "internalType": "address",
          "name": "_user",
          "type": "address"
        }
      ],
      "name": "getUserStake",
      "outputs": [
        {
          "internalType": "uint256",
          "name": "stake",
          "type": "uint256"
        },
        {
          "internalType": "bool",
          "name": "votedYes",
          "type": "bool"
        }
      ],
      "stateMutability": "view",
      "type": "function"
    },
    {
      "inputs": [
        {
          "internalType": "uint256",
          "name": "_marketId",
          "type": "uint256"
        },
        {
          "internalType": "address",
          "name": "_user",
          "type": "address"
        }
      ],
      "name": "hasUserStakedInMarket",
      "outputs": [
        {
          "internalType": "bool",
          "name": "hasStaked",
          "type": "bool"
        },
        {
          "internalType": "uint256",
          "name": "stakedAmount",
          "type": "uint256"
        }
      ],
      "stateMutability": "view",
      "type": "function"
    },
    {
      "inputs": [],
      "name": "marketCount",
      "outputs": [
        {
          "internalType": "uint256",
          "name": "",
          "type": "uint256"
        }
      ],
      "stateMutability": "view",
      "type": "function"
    },
    {
      "inputs": [
        {
          "internalType": "uint256",
          "name": "",
          "type": "uint256"
        }
      ],
      "name": "markets",
      "outputs": [
        {
          "internalType": "address",
          "name": "owner",
          "type": "address"
        },
        {
          "internalType": "string",
          "name": "question",
          "type": "string"
        },
        {
          "internalType": "uint256",
          "name": "totalYesStake",
          "type": "uint256"
        },
        {
          "internalType": "uint256",
          "name": "totalNoStake",
          "type": "uint256"
        },
        {
          "internalType": "uint256",
          "name": "endDate",
          "type": "uint256"
        },
        {
          "internalType": "enum FinalPredictionMarket.Outcome",
          "name": "outcome",
          "type": "uint8"
        }
      ],
      "stateMutability": "view",
      "type": "function"
    },
    {
      "inputs": [
        {
          "internalType": "uint256",
          "name": "_marketId",
          "type": "uint256"
        },
        {
          "internalType": "bool",
          "name": "_prediction",
          "type": "bool"
        }
      ],
      "name": "placeStake",
      "outputs": [],
      "stateMutability": "payable",
      "type": "function"
    },
    {
      "inputs": [
        {
          "internalType": "uint256",
          "name": "_marketId",
          "type": "uint256"
        },
        {
          "internalType": "bool",
          "name": "_outcome",
          "type": "bool"
        }
      ],
      "name": "resolveMarket",
      "outputs": [],
      "stateMutability": "nonpayable",
      "type": "function"
    },
    {
      "inputs": [
        {
          "internalType": "address",
          "name": "",
          "type": "address"
        }
      ],
      "name": "userMarketStakeCount",
      "outputs": [
        {
          "internalType": "uint256",
          "name": "",
          "type": "uint256"
        }
      ],
      "stateMutability": "view",
      "type": "function"
    }
  ],
  "bytecode": "0x608060405234801561001057600080fd5b506131b3806100206000396000f3fe6080604052600436106100dd5760003560e01c8063b1283e771161007f578063ec97908211610059578063ec979082146102e6578063efd56e9714610311578063f15cc4061461034f578063fd69f3c21461038c576100dd565b8063b1283e771461024b578063cc98ba581461028d578063d1145f10146102a9576100dd565b8063883c84c1116100bb578063883c84c1146101715780639626a2301461019a578063b06c1ba3146101d8578063b0772d0b1461021a576100dd565b806333e6d895146100e257806357bde4461461011f578063677bd9ff14610148575b600080fd5b3480156100ee57600080fd5b5061010960048036038101906101049190611c6e565b6103b7565b6040516101169190611cb4565b60405180910390f35b34801561012b57600080fd5b5061014660048036038101906101419190611d33565b6103cf565b005b34801561015457600080fd5b5061016f600480360381019061016a9190611d73565b6105fc565b005b34801561017d57600080fd5b5061019860048036038101906101939190611ee6565b610a87565b005b3480156101a657600080fd5b506101c160048036038101906101bc9190611f42565b610c23565b6040516101cf929190611f91565b60405180910390f35b3480156101e457600080fd5b506101ff60048036038101906101fa9190611d73565b610d2b565b604051610211969594939291906120bf565b60405180910390f35b34801561022657600080fd5b5061022f610e89565b604051610242979695949392919061246d565b60405180910390f35b34801561025757600080fd5b50610272600480360381019061026d9190611d73565b61134d565b604051610284969594939291906120bf565b60405180910390f35b6102a760048036038101906102a29190611d33565b61143e565b005b3480156102b557600080fd5b506102d060048036038101906102cb9190611d73565b611774565b6040516102dd919061250d565b60405180910390f35b3480156102f257600080fd5b506102fb6117f1565b6040516103089190611cb4565b60405180910390f35b34801561031d57600080fd5b5061033860048036038101906103339190611f42565b6117f7565b604051610346929190612528565b60405180910390f35b34801561035b57600080fd5b5061037660048036038101906103719190611f42565b6118f5565b6040516103839190611cb4565b60405180910390f35b34801561039857600080fd5b506103a1611bf3565b6040516103ae9190611cb4565b60405180910390f35b60026020528060005260406000206000915090505481565b6000821180156103e157506000548211155b610420576040517f08c379a00000000000000000000000000000000000000000000000000000000081526004016104179061259d565b60405180910390fd5b60006001600084815260200190815260200160002090508060000160009054906101000a900473ffffffffffffffffffffffffffffffffffffffff1673ffffffffffffffffffffffffffffffffffffffff163373ffffffffffffffffffffffffffffffffffffffff16146104c9576040517f08c379a00000000000000000000000000000000000000000000000000000000081526004016104c09061262f565b60405180910390fd5b8060040154421161050f576040517f08c379a0000000000000000000000000000000000000000000000000000000008152600401610506906126c1565b60405180910390fd5b6000600281111561052357610522612048565b5b8160050160009054906101000a900460ff16600281111561054757610546612048565b5b14610587576040517f08c379a000000000000000000000000000000000000000000000000000000000815260040161057e9061272d565b60405180910390fd5b81610593576002610596565b60015b8160050160006101000a81548160ff021916908360028111156105bc576105bb612048565b5b0217905550827f6c4c673de56fc2f5caa6b45750bd06edab043c7fbf14004f87cebeec9d72bf286040516105ef90612799565b60405180910390a2505050565b60008111801561060e57506000548111155b61064d576040517f08c379a00000000000000000000000000000000000000000000000000000000081526004016106449061259d565b60405180910390fd5b60006001600083815260200190815260200160002090506000600281111561067857610677612048565b5b8160050160009054906101000a900460ff16600281111561069c5761069b612048565b5b036106dc576040517f08c379a00000000000000000000000000000000000000000000000000000000081526004016106d390612805565b60405180910390fd5b600033905060008260060160008373ffffffffffffffffffffffffffffffffffffffff1673ffffffffffffffffffffffffffffffffffffffff1681526020019081526020016000205490506000811161076a576040517f08c379a000000000000000000000000000000000000000000000000000000000815260040161076190612871565b60405180910390fd5b6000600160028111156107805761077f612048565b5b8460050160009054906101000a900460ff1660028111156107a4576107a3612048565b5b1480156107fc57508360070160008473ffffffffffffffffffffffffffffffffffffffff1673ffffffffffffffffffffffffffffffffffffffff16815260200190815260200160002060009054906101000a900460ff165b80610893575060028081111561081557610814612048565b5b8460050160009054906101000a900460ff16600281111561083957610838612048565b5b14801561089257508360070160008473ffffffffffffffffffffffffffffffffffffffff1673ffffffffffffffffffffffffffffffffffffffff16815260200190815260200160002060009054906101000a900460ff16155b5b9050806108d5576040517f08c379a00000000000000000000000000000000000000000000000000000000081526004016108cc90612903565b60405180910390fd5b6000600160028111156108eb576108ea612048565b5b8560050160009054906101000a900460ff16600281111561090f5761090e612048565b5b1461091e578460030154610924565b84600201545b90506000818660030154876002015461093d9190612952565b856109489190612986565b61095291906129f7565b905060008660060160008773ffffffffffffffffffffffffffffffffffffffff1673ffffffffffffffffffffffffffffffffffffffff1681526020019081526020016000208190555060008573ffffffffffffffffffffffffffffffffffffffff16826040516109c190612a59565b60006040518083038185875af1925050503d80600081146109fe576040519150601f19603f3d011682016040523d82523d6000602084013e610a03565b606091505b5050905080610a47576040517f08c379a0000000000000000000000000000000000000000000000000000000008152600401610a3e90612aba565b60405180910390fd5b877f6c4c673de56fc2f5caa6b45750bd06edab043c7fbf14004f87cebeec9d72bf28604051610a7590612b26565b60405180910390a25050505050505050565b60036000541080610ad857506003600260003373ffffffffffffffffffffffffffffffffffffffff1673ffffffffffffffffffffffffffffffffffffffff1681526020019081526020016000205410155b610b17576040517f08c379a0000000000000000000000000000000000000000000000000000000008152600401610b0e90612bb8565b60405180910390fd5b428111610b59576040517f08c379a0000000000000000000000000000000000000000000000000000000008152600401610b5090612c24565b60405180910390fd5b600080815480929190610b6b90612c44565b9190505550600060016000805481526020019081526020016000209050338160000160006101000a81548173ffffffffffffffffffffffffffffffffffffffff021916908373ffffffffffffffffffffffffffffffffffffffff16021790555082816001019081610bdc9190612e98565b508181600401819055506000547f6c4c673de56fc2f5caa6b45750bd06edab043c7fbf14004f87cebeec9d72bf28604051610c1690612fb6565b60405180910390a2505050565b600080600084118015610c3857506000548411155b610c77576040517f08c379a0000000000000000000000000000000000000000000000000000000008152600401610c6e9061259d565b60405180910390fd5b60006001600086815260200190815260200160002090508060060160008573ffffffffffffffffffffffffffffffffffffffff1673ffffffffffffffffffffffffffffffffffffffff168152602001908152602001600020548160070160008673ffffffffffffffffffffffffffffffffffffffff1673ffffffffffffffffffffffffffffffffffffffff16815260200190815260200160002060009054906101000a900460ff1692509250509250929050565b60006060600080600080600087118015610d4757506000548711155b610d86576040517f08c379a0000000000000000000000000000000000000000000000000000000008152600401610d7d9061259d565b60405180910390fd5b60006001600089815260200190815260200160002090508060000160009054906101000a900473ffffffffffffffffffffffffffffffffffffffff16816001018260020154836003015484600401548560050160009054906101000a900460ff16848054610df390612cbb565b80601f0160208091040260200160405190810160405280929190818152602001828054610e1f90612cbb565b8015610e6c5780601f10610e4157610100808354040283529160200191610e6c565b820191906000526020600020905b815481529060010190602001808311610e4f57829003601f168201915b505050505094509650965096509650965096505091939550919395565b606080606080606080606060005467ffffffffffffffff811115610eb057610eaf611dbb565b5b604051908082528060200260200182016040528015610ede5781602001602082028036833780820191505090505b50965060005467ffffffffffffffff811115610efd57610efc611dbb565b5b604051908082528060200260200182016040528015610f2b5781602001602082028036833780820191505090505b50955060005467ffffffffffffffff811115610f4a57610f49611dbb565b5b604051908082528060200260200182016040528015610f7d57816020015b6060815260200190600190039081610f685790505b50945060005467ffffffffffffffff811115610f9c57610f9b611dbb565b5b604051908082528060200260200182016040528015610fca5781602001602082028036833780820191505090505b50935060005467ffffffffffffffff811115610fe957610fe8611dbb565b5b6040519080825280602002602001820160405280156110175781602001602082028036833780820191505090505b50925060005467ffffffffffffffff81111561103657611035611dbb565b5b6040519080825280602002602001820160405280156110645781602001602082028036833780820191505090505b50915060005467ffffffffffffffff81111561108357611082611dbb565b5b6040519080825280602002602001820160405280156110b15781602001602082028036833780820191505090505b5090506000600190505b600054811161134357600060016000838152602001908152602001600020905081896001846110ea9190612fd6565b815181106110fb576110fa61300a565b5b6020026020010181815250508060000160009054906101000a900473ffffffffffffffffffffffffffffffffffffffff168860018461113a9190612fd6565b8151811061114b5761114a61300a565b5b602002602001019073ffffffffffffffffffffffffffffffffffffffff16908173ffffffffffffffffffffffffffffffffffffffff168152505080600101805461119490612cbb565b80601f01602080910402602001604051908101604052809291908181526020018280546111c090612cbb565b801561120d5780601f106111e25761010080835404028352916020019161120d565b820191906000526020600020905b8154815290600101906020018083116111f057829003601f168201915b5050505050876001846112209190612fd6565b815181106112315761123061300a565b5b602002602001018190525080600201548660018461124f9190612fd6565b815181106112605761125f61300a565b5b60200260200101818152505080600301548560018461127f9190612fd6565b815181106112905761128f61300a565b5b6020026020010181815250508060040154846001846112af9190612fd6565b815181106112c0576112bf61300a565b5b6020026020010181815250508060050160009054906101000a900460ff16836001846112ec9190612fd6565b815181106112fd576112fc61300a565b5b6020026020010190600281111561131757611316612048565b5b9081600281111561132b5761132a612048565b5b8152505050808061133b90612c44565b9150506110bb565b5090919293949596565b60016020528060005260406000206000915090508060000160009054906101000a900473ffffffffffffffffffffffffffffffffffffffff169080600101805461139690612cbb565b80601f01602080910402602001604051908101604052809291908181526020018280546113c290612cbb565b801561140f5780601f106113e45761010080835404028352916020019161140f565b820191906000526020600020905b8154815290600101906020018083116113f257829003601f168201915b5050505050908060020154908060030154908060040154908060050160009054906101000a900460ff16905086565b60008211801561145057506000548211155b61148f576040517f08c379a00000000000000000000000000000000000000000000000000000000081526004016114869061259d565b60405180910390fd5b600034116114d2576040517f08c379a00000000000000000000000000000000000000000000000000000000081526004016114c990613085565b60405180910390fd5b60006001600084815260200190815260200160002090508060040154421061152f576040517f08c379a0000000000000000000000000000000000000000000000000000000008152600401611526906130f1565b60405180910390fd5b6000600281111561154357611542612048565b5b8160050160009054906101000a900460ff16600281111561156757611566612048565b5b146115a7576040517f08c379a000000000000000000000000000000000000000000000000000000000815260040161159e9061272d565b60405180910390fd5b60008160060160003373ffffffffffffffffffffffffffffffffffffffff1673ffffffffffffffffffffffffffffffffffffffff168152602001908152602001600020540361164657600260003373ffffffffffffffffffffffffffffffffffffffff1673ffffffffffffffffffffffffffffffffffffffff168152602001908152602001600020600081548092919061164090612c44565b91905055505b811561166c57348160020160008282546116609190612952565b92505081905550611688565b348160030160008282546116809190612952565b925050819055505b348160060160003373ffffffffffffffffffffffffffffffffffffffff1673ffffffffffffffffffffffffffffffffffffffff16815260200190815260200160002060008282546116d99190612952565b92505081905550818160070160003373ffffffffffffffffffffffffffffffffffffffff1673ffffffffffffffffffffffffffffffffffffffff16815260200190815260200160002060006101000a81548160ff021916908315150217905550827f6c4c673de56fc2f5caa6b45750bd06edab043c7fbf14004f87cebeec9d72bf286040516117679061315d565b60405180910390a2505050565b6000808211801561178757506000548211155b6117c6576040517f08c379a00000000000000000000000000000000000000000000000000000000081526004016117bd9061259d565b60405180910390fd5b6001600083815260200190815260200160002060050160009054906101000a900460ff169050919050565b60005481565b60008060008411801561180c57506000548411155b61184b576040517f08c379a00000000000000000000000000000000000000000000000000000000081526004016118429061259d565b60405180910390fd5b600060016000868152602001908152602001600020905060008160060160008673ffffffffffffffffffffffffffffffffffffffff1673ffffffffffffffffffffffffffffffffffffffff16815260200190815260200160002054118160060160008673ffffffffffffffffffffffffffffffffffffffff1673ffffffffffffffffffffffffffffffffffffffff1681526020019081526020016000205492509250509250929050565b6000808311801561190857506000548311155b611947576040517f08c379a000000000000000000000000000000000000000000000000000000000815260040161193e9061259d565b60405180910390fd5b60006001600085815260200190815260200160002090506000600281111561197257611971612048565b5b8160050160009054906101000a900460ff16600281111561199657611995612048565b5b036119d6576040517f08c379a00000000000000000000000000000000000000000000000000000000081526004016119cd90612805565b60405180910390fd5b60008160060160008573ffffffffffffffffffffffffffffffffffffffff1673ffffffffffffffffffffffffffffffffffffffff16815260200190815260200160002054905060008103611a2f57600092505050611bed565b600060016002811115611a4557611a44612048565b5b8360050160009054906101000a900460ff166002811115611a6957611a68612048565b5b148015611ac157508260070160008673ffffffffffffffffffffffffffffffffffffffff1673ffffffffffffffffffffffffffffffffffffffff16815260200190815260200160002060009054906101000a900460ff165b80611b585750600280811115611ada57611ad9612048565b5b8360050160009054906101000a900460ff166002811115611afe57611afd612048565b5b148015611b5757508260070160008673ffffffffffffffffffffffffffffffffffffffff1673ffffffffffffffffffffffffffffffffffffffff16815260200190815260200160002060009054906101000a900460ff16155b5b905080611b6b5760009350505050611bed565b600060016002811115611b8157611b80612048565b5b8460050160009054906101000a900460ff166002811115611ba557611ba4612048565b5b14611bb4578360030154611bba565b83600201545b90508084600301548560020154611bd19190612952565b84611bdc9190612986565b611be691906129f7565b9450505050505b92915050565b60008054905090565b6000604051905090565b600080fd5b600080fd5b600073ffffffffffffffffffffffffffffffffffffffff82169050919050565b6000611c3b82611c10565b9050919050565b611c4b81611c30565b8114611c5657600080fd5b50565b600081359050611c6881611c42565b92915050565b600060208284031215611c8457611c83611c06565b5b6000611c9284828501611c59565b91505092915050565b6000819050919050565b611cae81611c9b565b82525050565b6000602082019050611cc96000830184611ca5565b92915050565b611cd881611c9b565b8114611ce357600080fd5b50565b600081359050611cf581611ccf565b92915050565b60008115159050919050565b611d1081611cfb565b8114611d1b57600080fd5b50565b600081359050611d2d81611d07565b92915050565b60008060408385031215611d4a57611d49611c06565b5b6000611d5885828601611ce6565b9250506020611d6985828601611d1e565b9150509250929050565b600060208284031215611d8957611d88611c06565b5b6000611d9784828501611ce6565b91505092915050565b600080fd5b600080fd5b6000601f19601f8301169050919050565b7f4e487b7100000000000000000000000000000000000000000000000000000000600052604160045260246000fd5b611df382611daa565b810181811067ffffffffffffffff82111715611e1257611e11611dbb565b5b80604052505050565b6000611e25611bfc565b9050611e318282611dea565b919050565b600067ffffffffffffffff821115611e5157611e50611dbb565b5b611e5a82611daa565b9050602081019050919050565b82818337600083830152505050565b6000611e89611e8484611e36565b611e1b565b905082815260208101848484011115611ea557611ea4611da5565b5b611eb0848285611e67565b509392505050565b600082601f830112611ecd57611ecc611da0565b5b8135611edd848260208601611e76565b91505092915050565b60008060408385031215611efd57611efc611c06565b5b600083013567ffffffffffffffff811115611f1b57611f1a611c0b565b5b611f2785828601611eb8565b9250506020611f3885828601611ce6565b9150509250929050565b60008060408385031215611f5957611f58611c06565b5b6000611f6785828601611ce6565b9250506020611f7885828601611c59565b9150509250929050565b611f8b81611cfb565b82525050565b6000604082019050611fa66000830185611ca5565b611fb36020830184611f82565b9392505050565b611fc381611c30565b82525050565b600081519050919050565b600082825260208201905092915050565b60005b83811015612003578082015181840152602081019050611fe8565b60008484015250505050565b600061201a82611fc9565b6120248185611fd4565b9350612034818560208601611fe5565b61203d81611daa565b840191505092915050565b7f4e487b7100000000000000000000000000000000000000000000000000000000600052602160045260246000fd5b6003811061208857612087612048565b5b50565b600081905061209982612077565b919050565b60006120a98261208b565b9050919050565b6120b98161209e565b82525050565b600060c0820190506120d46000830189611fba565b81810360208301526120e6818861200f565b90506120f56040830187611ca5565b6121026060830186611ca5565b61210f6080830185611ca5565b61211c60a08301846120b0565b979650505050505050565b600081519050919050565b600082825260208201905092915050565b6000819050602082019050919050565b61215c81611c9b565b82525050565b600061216e8383612153565b60208301905092915050565b6000602082019050919050565b600061219282612127565b61219c8185612132565b93506121a783612143565b8060005b838110156121d85781516121bf8882612162565b97506121ca8361217a565b9250506001810190506121ab565b5085935050505092915050565b600081519050919050565b600082825260208201905092915050565b6000819050602082019050919050565b61221a81611c30565b82525050565b600061222c8383612211565b60208301905092915050565b6000602082019050919050565b6000612250826121e5565b61225a81856121f0565b935061226583612201565b8060005b8381101561229657815161227d8882612220565b975061228883612238565b925050600181019050612269565b5085935050505092915050565b600081519050919050565b600082825260208201905092915050565b6000819050602082019050919050565b600082825260208201905092915050565b60006122eb82611fc9565b6122f581856122cf565b9350612305818560208601611fe5565b61230e81611daa565b840191505092915050565b600061232583836122e0565b905092915050565b6000602082019050919050565b6000612345826122a3565b61234f81856122ae565b935083602082028501612361856122bf565b8060005b8581101561239d578484038952815161237e8582612319565b94506123898361232d565b925060208a01995050600181019050612365565b50829750879550505050505092915050565b600081519050919050565b600082825260208201905092915050565b6000819050602082019050919050565b6123e48161209e565b82525050565b60006123f683836123db565b60208301905092915050565b6000602082019050919050565b600061241a826123af565b61242481856123ba565b935061242f836123cb565b8060005b8381101561246057815161244788826123ea565b975061245283612402565b925050600181019050612433565b5085935050505092915050565b600060e0820190508181036000830152612487818a612187565b9050818103602083015261249b8189612245565b905081810360408301526124af818861233a565b905081810360608301526124c38187612187565b905081810360808301526124d78186612187565b905081810360a08301526124eb8185612187565b905081810360c08301526124ff818461240f565b905098975050505050505050565b600060208201905061252260008301846120b0565b92915050565b600060408201905061253d6000830185611f82565b61254a6020830184611ca5565b9392505050565b7f496e76616c6964206d61726b6574204944000000000000000000000000000000600082015250565b6000612587601183611fd4565b915061259282612551565b602082019050919050565b600060208201905081810360008301526125b68161257a565b9050919050565b7f4f6e6c7920746865206d61726b6574206f776e65722063616e207265736f6c7660008201527f6500000000000000000000000000000000000000000000000000000000000000602082015250565b6000612619602183611fd4565b9150612624826125bd565b604082019050919050565b600060208201905081810360008301526126488161260c565b9050919050565b7f43616e6e6f74207265736f6c7665206d61726b6574206265666f726520656e6460008201527f2064617465000000000000000000000000000000000000000000000000000000602082015250565b60006126ab602583611fd4565b91506126b68261264f565b604082019050919050565b600060208201905081810360008301526126da8161269e565b9050919050565b7f4d61726b657420616c7265616479207265736f6c766564000000000000000000600082015250565b6000612717601783611fd4565b9150612722826126e1565b602082019050919050565b600060208201905081810360008301526127468161270a565b9050919050565b7f5265736f6c766564000000000000000000000000000000000000000000000000600082015250565b6000612783600883611fd4565b915061278e8261274d565b602082019050919050565b600060208201905081810360008301526127b281612776565b9050919050565b7f4d61726b6574206e6f7420796574207265736f6c766564000000000000000000600082015250565b60006127ef601783611fd4565b91506127fa826127b9565b602082019050919050565b6000602082019050818103600083015261281e816127e2565b9050919050565b7f4e6f207374616b65206d61646520627920757365720000000000000000000000600082015250565b600061285b601583611fd4565b915061286682612825565b602082019050919050565b6000602082019050818103600083015261288a8161284e565b9050919050565b7f5573657220646964206e6f74207374616b65206f6e207468652077696e6e696e60008201527f67206f7574636f6d650000000000000000000000000000000000000000000000602082015250565b60006128ed602983611fd4565b91506128f882612891565b604082019050919050565b6000602082019050818103600083015261291c816128e0565b9050919050565b7f4e487b7100000000000000000000000000000000000000000000000000000000600052601160045260246000fd5b600061295d82611c9b565b915061296883611c9b565b92508282019050808211156129805761297f612923565b5b92915050565b600061299182611c9b565b915061299c83611c9b565b92508282026129aa81611c9b565b915082820484148315176129c1576129c0612923565b5b5092915050565b7f4e487b7100000000000000000000000000000000000000000000000000000000600052601260045260246000fd5b6000612a0282611c9b565b9150612a0d83611c9b565b925082612a1d57612a1c6129c8565b5b828204905092915050565b600081905092915050565b50565b6000612a43600083612a28565b9150612a4e82612a33565b600082019050919050565b6000612a6482612a36565b9150819050919050565b7f4661696c656420746f2073656e642077696e6e696e6773000000000000000000600082015250565b6000612aa4601783611fd4565b9150612aaf82612a6e565b602082019050919050565b60006020820190508181036000830152612ad381612a97565b9050919050565b7f57696e6e696e6773436c61696d65640000000000000000000000000000000000600082015250565b6000612b10600f83611fd4565b9150612b1b82612ada565b602082019050919050565b60006020820190508181036000830152612b3f81612b03565b9050919050565b7f4d757374207374616b6520696e206174206c656173742033206d61726b65747360008201527f206265666f7265206372656174696e67206f6e65000000000000000000000000602082015250565b6000612ba2603483611fd4565b9150612bad82612b46565b604082019050919050565b60006020820190508181036000830152612bd181612b95565b9050919050565b7f456e642064617465206d75737420626520696e20746865206675747572650000600082015250565b6000612c0e601e83611fd4565b9150612c1982612bd8565b602082019050919050565b60006020820190508181036000830152612c3d81612c01565b9050919050565b6000612c4f82611c9b565b91507fffffffffffffffffffffffffffffffffffffffffffffffffffffffffffffffff8203612c8157612c80612923565b5b600182019050919050565b7f4e487b7100000000000000000000000000000000000000000000000000000000600052602260045260246000fd5b60006002820490506001821680612cd357607f821691505b602082108103612ce657612ce5612c8c565b5b50919050565b60008190508160005260206000209050919050565b60006020601f8301049050919050565b600082821b905092915050565b600060088302612d4e7fffffffffffffffffffffffffffffffffffffffffffffffffffffffffffffffff82612d11565b612d588683612d11565b95508019841693508086168417925050509392505050565b6000819050919050565b6000612d95612d90612d8b84611c9b565b612d70565b611c9b565b9050919050565b6000819050919050565b612daf83612d7a565b612dc3612dbb82612d9c565b848454612d1e565b825550505050565b600090565b612dd8612dcb565b612de3818484612da6565b505050565b5b81811015612e0757612dfc600082612dd0565b600181019050612de9565b5050565b601f821115612e4c57612e1d81612cec565b612e2684612d01565b81016020851015612e35578190505b612e49612e4185612d01565b830182612de8565b50505b505050565b600082821c905092915050565b6000612e6f60001984600802612e51565b1980831691505092915050565b6000612e888383612e5e565b9150826002028217905092915050565b612ea182611fc9565b67ffffffffffffffff811115612eba57612eb9611dbb565b5b612ec48254612cbb565b612ecf828285612e0b565b600060209050601f831160018114612f025760008415612ef0578287015190505b612efa8582612e7c565b865550612f62565b601f198416612f1086612cec565b60005b82811015612f3857848901518255600182019150602085019450602081019050612f13565b86831015612f555784890151612f51601f891682612e5e565b8355505b6001600288020188555050505b505050505050565b7f4372656174656400000000000000000000000000000000000000000000000000600082015250565b6000612fa0600783611fd4565b9150612fab82612f6a565b602082019050919050565b60006020820190508181036000830152612fcf81612f93565b9050919050565b6000612fe182611c9b565b9150612fec83611c9b565b925082820390508181111561300457613003612923565b5b92915050565b7f4e487b7100000000000000000000000000000000000000000000000000000000600052603260045260246000fd5b7f5374616b65206d7573742062652067726561746572207468616e203000000000600082015250565b600061306f601c83611fd4565b915061307a82613039565b602082019050919050565b6000602082019050818103600083015261309e81613062565b9050919050565b7f4d61726b65742068617320656e64656400000000000000000000000000000000600082015250565b60006130db601083611fd4565b91506130e6826130a5565b602082019050919050565b6000602082019050818103600083015261310a816130ce565b9050919050565b7f5374616b65506c61636564000000000000000000000000000000000000000000600082015250565b6000613147600b83611fd4565b915061315282613111565b602082019050919050565b600060208201905081810360008301526131768161313a565b905091905056fea2646970667358221220bb16bd94d4e0dd1ec6614c8e27aa76da9f643cc4ab1b869baa70fd584059265064736f6c63430008140033",
  "linkReferences": {},
  "deployedLinkReferences": {}
}