{
  "_format": "hh-sol-artifact-1",
  "contractName": "FinalPredictionMarket",
  "sourceName": "contracts/FinalPredictionMarket.sol",
  "abi": [
    {
      "anonymous": false,
      "inputs": [
        {
          "indexed": true,
          "internalType": "uint256",
          "name": "id",
          "type": "uint256"
        },
        {
          "indexed": false,
          "internalType": "string",
          "name": "action",
          "type": "string"
        }
      ],
      "name": "MarketStateChanged",
      "type": "event"
    },
    {
      "inputs": [
        {
          "internalType": "uint256",
          "name": "_marketId",
          "type": "uint256"
        },
        {
          "internalType": "address",
          "name": "_user",
          "type": "address"
        }
      ],
      "name": "calculateWinnings",
      "outputs": [
        {
          "internalType": "uint256",
          "name": "",
          "type": "uint256"
        }
      ],
      "stateMutability": "view",
      "type": "function"
    },
    {
      "inputs": [
        {
          "internalType": "uint256",
          "name": "_marketId",
          "type": "uint256"
        }
      ],
      "name": "claimWinnings",
      "outputs": [],
      "stateMutability": "nonpayable",
      "type": "function"
    },
    {
      "inputs": [
        {
          "internalType": "string",
          "name": "_question",
          "type": "string"
        },
        {
          "internalType": "uint256",
          "name": "_endDate",
          "type": "uint256"
        }
      ],
      "name": "createMarket",
      "outputs": [],
      "stateMutability": "nonpayable",
      "type": "function"
    },
    {
      "inputs": [],
      "name": "getAllMarkets",
      "outputs": [
        {
          "internalType": "uint256[]",
          "name": "marketIds",
          "type": "uint256[]"
        },
        {
          "internalType": "address[]",
          "name": "owners",
          "type": "address[]"
        },
        {
          "internalType": "string[]",
          "name": "questions",
          "type": "string[]"
        },
        {
          "internalType": "uint256[]",
          "name": "totalYesStakes",
          "type": "uint256[]"
        },
        {
          "internalType": "uint256[]",
          "name": "totalNoStakes",
          "type": "uint256[]"
        },
        {
          "internalType": "uint256[]",
          "name": "endDates",
          "type": "uint256[]"
        },
        {
          "internalType": "enum FinalPredictionMarket.Outcome[]",
          "name": "outcomes",
          "type": "uint8[]"
        }
      ],
      "stateMutability": "view",
      "type": "function"
    },
    {
      "inputs": [],
      "name": "getMarketCount",
      "outputs": [
        {
          "internalType": "uint256",
          "name": "_marketCount",
          "type": "uint256"
        }
      ],
      "stateMutability": "view",
      "type": "function"
    },
    {
      "inputs": [
        {
          "internalType": "uint256",
          "name": "_marketId",
          "type": "uint256"
        }
      ],
      "name": "getMarketDetails",
      "outputs": [
        {
          "internalType": "address",
          "name": "owner",
          "type": "address"
        },
        {
          "internalType": "string",
          "name": "question",
          "type": "string"
        },
        {
          "internalType": "uint256",
          "name": "totalYesStake",
          "type": "uint256"
        },
        {
          "internalType": "uint256",
          "name": "totalNoStake",
          "type": "uint256"
        },
        {
          "internalType": "uint256",
          "name": "endDate",
          "type": "uint256"
        },
        {
          "internalType": "enum FinalPredictionMarket.Outcome",
          "name": "outcome",
          "type": "uint8"
        }
      ],
      "stateMutability": "view",
      "type": "function"
    },
    {
      "inputs": [
        {
          "internalType": "uint256",
          "name": "_marketId",
          "type": "uint256"
        }
      ],
      "name": "getMarketOutcome",
      "outputs": [
        {
          "internalType": "enum FinalPredictionMarket.Outcome",
          "name": "",
          "type": "uint8"
        }
      ],
      "stateMutability": "view",
      "type": "function"
    },
    {
      "inputs": [
        {
          "internalType": "uint256",
          "name": "_marketId",
          "type": "uint256"
        },
        {
          "internalType": "address",
          "name": "_user",
          "type": "address"
        }
      ],
      "name": "getUserStake",
      "outputs": [
        {
          "internalType": "uint256",
          "name": "stake",
          "type": "uint256"
        },
        {
          "internalType": "bool",
          "name": "votedYes",
          "type": "bool"
        }
      ],
      "stateMutability": "view",
      "type": "function"
    },
    {
      "inputs": [
        {
          "internalType": "uint256",
          "name": "_marketId",
          "type": "uint256"
        },
        {
          "internalType": "address",
          "name": "_user",
          "type": "address"
        }
      ],
      "name": "hasUserStakedInMarket",
      "outputs": [
        {
          "internalType": "bool",
          "name": "hasStaked",
          "type": "bool"
        },
        {
          "internalType": "uint256",
          "name": "stakedAmount",
          "type": "uint256"
        }
      ],
      "stateMutability": "view",
      "type": "function"
    },
    {
      "inputs": [],
      "name": "marketCount",
      "outputs": [
        {
          "internalType": "uint256",
          "name": "",
          "type": "uint256"
        }
      ],
      "stateMutability": "view",
      "type": "function"
    },
    {
      "inputs": [
        {
          "internalType": "uint256",
          "name": "",
          "type": "uint256"
        }
      ],
      "name": "markets",
      "outputs": [
        {
          "internalType": "address",
          "name": "owner",
          "type": "address"
        },
        {
          "internalType": "string",
          "name": "question",
          "type": "string"
        },
        {
          "internalType": "uint256",
          "name": "totalYesStake",
          "type": "uint256"
        },
        {
          "internalType": "uint256",
          "name": "totalNoStake",
          "type": "uint256"
        },
        {
          "internalType": "uint256",
          "name": "endDate",
          "type": "uint256"
        },
        {
          "internalType": "enum FinalPredictionMarket.Outcome",
          "name": "outcome",
          "type": "uint8"
        }
      ],
      "stateMutability": "view",
      "type": "function"
    },
    {
      "inputs": [
        {
          "internalType": "uint256",
          "name": "_marketId",
          "type": "uint256"
        },
        {
          "internalType": "bool",
          "name": "_prediction",
          "type": "bool"
        }
      ],
      "name": "placeStake",
      "outputs": [],
      "stateMutability": "payable",
      "type": "function"
    },
    {
      "inputs": [
        {
          "internalType": "uint256",
          "name": "_marketId",
          "type": "uint256"
        },
        {
          "internalType": "bool",
          "name": "_outcome",
          "type": "bool"
        }
      ],
      "name": "resolveMarket",
      "outputs": [],
      "stateMutability": "nonpayable",
      "type": "function"
    },
    {
      "inputs": [
        {
          "internalType": "address",
          "name": "",
          "type": "address"
        }
      ],
      "name": "userMarketStakeCount",
      "outputs": [
        {
          "internalType": "uint256",
          "name": "",
          "type": "uint256"
        }
      ],
      "stateMutability": "view",
      "type": "function"
    }
  ],
  "bytecode": "0x608060405234801561001057600080fd5b506131a6806100206000396000f3fe6080604052600436106100dd5760003560e01c8063b1283e771161007f578063ec97908211610059578063ec979082146102e6578063efd56e9714610311578063f15cc4061461034f578063fd69f3c21461038c576100dd565b8063b1283e771461024b578063cc98ba581461028d578063d1145f10146102a9576100dd565b8063883c84c1116100bb578063883c84c1146101715780639626a2301461019a578063b06c1ba3146101d8578063b0772d0b1461021a576100dd565b806333e6d895146100e257806357bde4461461011f578063677bd9ff14610148575b600080fd5b3480156100ee57600080fd5b5061010960048036038101906101049190611c61565b6103b7565b6040516101169190611ca7565b60405180910390f35b34801561012b57600080fd5b5061014660048036038101906101419190611d26565b6103cf565b005b34801561015457600080fd5b5061016f600480360381019061016a9190611d66565b6105fc565b005b34801561017d57600080fd5b5061019860048036038101906101939190611ed9565b610a87565b005b3480156101a657600080fd5b506101c160048036038101906101bc9190611f35565b610c16565b6040516101cf929190611f84565b60405180910390f35b3480156101e457600080fd5b506101ff60048036038101906101fa9190611d66565b610d1e565b604051610211969594939291906120b2565b60405180910390f35b34801561022657600080fd5b5061022f610e7c565b6040516102429796959493929190612460565b60405180910390f35b34801561025757600080fd5b50610272600480360381019061026d9190611d66565b611340565b604051610284969594939291906120b2565b60405180910390f35b6102a760048036038101906102a29190611d26565b611431565b005b3480156102b557600080fd5b506102d060048036038101906102cb9190611d66565b611767565b6040516102dd9190612500565b60405180910390f35b3480156102f257600080fd5b506102fb6117e4565b6040516103089190611ca7565b60405180910390f35b34801561031d57600080fd5b5061033860048036038101906103339190611f35565b6117ea565b60405161034692919061251b565b60405180910390f35b34801561035b57600080fd5b5061037660048036038101906103719190611f35565b6118e8565b6040516103839190611ca7565b60405180910390f35b34801561039857600080fd5b506103a1611be6565b6040516103ae9190611ca7565b60405180910390f35b60026020528060005260406000206000915090505481565b6000821180156103e157506000548211155b610420576040517f08c379a000000000000000000000000000000000000000000000000000000000815260040161041790612590565b60405180910390fd5b60006001600084815260200190815260200160002090508060000160009054906101000a900473ffffffffffffffffffffffffffffffffffffffff1673ffffffffffffffffffffffffffffffffffffffff163373ffffffffffffffffffffffffffffffffffffffff16146104c9576040517f08c379a00000000000000000000000000000000000000000000000000000000081526004016104c090612622565b60405180910390fd5b8060040154421161050f576040517f08c379a0000000000000000000000000000000000000000000000000000000008152600401610506906126b4565b60405180910390fd5b600060028111156105235761052261203b565b5b8160050160009054906101000a900460ff1660028111156105475761054661203b565b5b14610587576040517f08c379a000000000000000000000000000000000000000000000000000000000815260040161057e90612720565b60405180910390fd5b81610593576002610596565b60015b8160050160006101000a81548160ff021916908360028111156105bc576105bb61203b565b5b0217905550827f6c4c673de56fc2f5caa6b45750bd06edab043c7fbf14004f87cebeec9d72bf286040516105ef9061278c565b60405180910390a2505050565b60008111801561060e57506000548111155b61064d576040517f08c379a000000000000000000000000000000000000000000000000000000000815260040161064490612590565b60405180910390fd5b6000600160008381526020019081526020016000209050600060028111156106785761067761203b565b5b8160050160009054906101000a900460ff16600281111561069c5761069b61203b565b5b036106dc576040517f08c379a00000000000000000000000000000000000000000000000000000000081526004016106d3906127f8565b60405180910390fd5b600033905060008260060160008373ffffffffffffffffffffffffffffffffffffffff1673ffffffffffffffffffffffffffffffffffffffff1681526020019081526020016000205490506000811161076a576040517f08c379a000000000000000000000000000000000000000000000000000000000815260040161076190612864565b60405180910390fd5b6000600160028111156107805761077f61203b565b5b8460050160009054906101000a900460ff1660028111156107a4576107a361203b565b5b1480156107fc57508360070160008473ffffffffffffffffffffffffffffffffffffffff1673ffffffffffffffffffffffffffffffffffffffff16815260200190815260200160002060009054906101000a900460ff165b8061089357506002808111156108155761081461203b565b5b8460050160009054906101000a900460ff1660028111156108395761083861203b565b5b14801561089257508360070160008473ffffffffffffffffffffffffffffffffffffffff1673ffffffffffffffffffffffffffffffffffffffff16815260200190815260200160002060009054906101000a900460ff16155b5b9050806108d5576040517f08c379a00000000000000000000000000000000000000000000000000000000081526004016108cc906128f6565b60405180910390fd5b6000600160028111156108eb576108ea61203b565b5b8560050160009054906101000a900460ff16600281111561090f5761090e61203b565b5b1461091e578460030154610924565b84600201545b90506000818660030154876002015461093d9190612945565b856109489190612979565b61095291906129ea565b905060008660060160008773ffffffffffffffffffffffffffffffffffffffff1673ffffffffffffffffffffffffffffffffffffffff1681526020019081526020016000208190555060008573ffffffffffffffffffffffffffffffffffffffff16826040516109c190612a4c565b60006040518083038185875af1925050503d80600081146109fe576040519150601f19603f3d011682016040523d82523d6000602084013e610a03565b606091505b5050905080610a47576040517f08c379a0000000000000000000000000000000000000000000000000000000008152600401610a3e90612aad565b60405180910390fd5b877f6c4c673de56fc2f5caa6b45750bd06edab043c7fbf14004f87cebeec9d72bf28604051610a7590612b19565b60405180910390a25050505050505050565b6003600260003373ffffffffffffffffffffffffffffffffffffffff1673ffffffffffffffffffffffffffffffffffffffff168152602001908152602001600020541015610b0a576040517f08c379a0000000000000000000000000000000000000000000000000000000008152600401610b0190612bab565b60405180910390fd5b428111610b4c576040517f08c379a0000000000000000000000000000000000000000000000000000000008152600401610b4390612c17565b60405180910390fd5b600080815480929190610b5e90612c37565b9190505550600060016000805481526020019081526020016000209050338160000160006101000a81548173ffffffffffffffffffffffffffffffffffffffff021916908373ffffffffffffffffffffffffffffffffffffffff16021790555082816001019081610bcf9190612e8b565b508181600401819055506000547f6c4c673de56fc2f5caa6b45750bd06edab043c7fbf14004f87cebeec9d72bf28604051610c0990612fa9565b60405180910390a2505050565b600080600084118015610c2b57506000548411155b610c6a576040517f08c379a0000000000000000000000000000000000000000000000000000000008152600401610c6190612590565b60405180910390fd5b60006001600086815260200190815260200160002090508060060160008573ffffffffffffffffffffffffffffffffffffffff1673ffffffffffffffffffffffffffffffffffffffff168152602001908152602001600020548160070160008673ffffffffffffffffffffffffffffffffffffffff1673ffffffffffffffffffffffffffffffffffffffff16815260200190815260200160002060009054906101000a900460ff1692509250509250929050565b60006060600080600080600087118015610d3a57506000548711155b610d79576040517f08c379a0000000000000000000000000000000000000000000000000000000008152600401610d7090612590565b60405180910390fd5b60006001600089815260200190815260200160002090508060000160009054906101000a900473ffffffffffffffffffffffffffffffffffffffff16816001018260020154836003015484600401548560050160009054906101000a900460ff16848054610de690612cae565b80601f0160208091040260200160405190810160405280929190818152602001828054610e1290612cae565b8015610e5f5780601f10610e3457610100808354040283529160200191610e5f565b820191906000526020600020905b815481529060010190602001808311610e4257829003601f168201915b505050505094509650965096509650965096505091939550919395565b606080606080606080606060005467ffffffffffffffff811115610ea357610ea2611dae565b5b604051908082528060200260200182016040528015610ed15781602001602082028036833780820191505090505b50965060005467ffffffffffffffff811115610ef057610eef611dae565b5b604051908082528060200260200182016040528015610f1e5781602001602082028036833780820191505090505b50955060005467ffffffffffffffff811115610f3d57610f3c611dae565b5b604051908082528060200260200182016040528015610f7057816020015b6060815260200190600190039081610f5b5790505b50945060005467ffffffffffffffff811115610f8f57610f8e611dae565b5b604051908082528060200260200182016040528015610fbd5781602001602082028036833780820191505090505b50935060005467ffffffffffffffff811115610fdc57610fdb611dae565b5b60405190808252806020026020018201604052801561100a5781602001602082028036833780820191505090505b50925060005467ffffffffffffffff81111561102957611028611dae565b5b6040519080825280602002602001820160405280156110575781602001602082028036833780820191505090505b50915060005467ffffffffffffffff81111561107657611075611dae565b5b6040519080825280602002602001820160405280156110a45781602001602082028036833780820191505090505b5090506000600190505b600054811161133657600060016000838152602001908152602001600020905081896001846110dd9190612fc9565b815181106110ee576110ed612ffd565b5b6020026020010181815250508060000160009054906101000a900473ffffffffffffffffffffffffffffffffffffffff168860018461112d9190612fc9565b8151811061113e5761113d612ffd565b5b602002602001019073ffffffffffffffffffffffffffffffffffffffff16908173ffffffffffffffffffffffffffffffffffffffff168152505080600101805461118790612cae565b80601f01602080910402602001604051908101604052809291908181526020018280546111b390612cae565b80156112005780601f106111d557610100808354040283529160200191611200565b820191906000526020600020905b8154815290600101906020018083116111e357829003601f168201915b5050505050876001846112139190612fc9565b8151811061122457611223612ffd565b5b60200260200101819052508060020154866001846112429190612fc9565b8151811061125357611252612ffd565b5b6020026020010181815250508060030154856001846112729190612fc9565b8151811061128357611282612ffd565b5b6020026020010181815250508060040154846001846112a29190612fc9565b815181106112b3576112b2612ffd565b5b6020026020010181815250508060050160009054906101000a900460ff16836001846112df9190612fc9565b815181106112f0576112ef612ffd565b5b6020026020010190600281111561130a5761130961203b565b5b9081600281111561131e5761131d61203b565b5b8152505050808061132e90612c37565b9150506110ae565b5090919293949596565b60016020528060005260406000206000915090508060000160009054906101000a900473ffffffffffffffffffffffffffffffffffffffff169080600101805461138990612cae565b80601f01602080910402602001604051908101604052809291908181526020018280546113b590612cae565b80156114025780601f106113d757610100808354040283529160200191611402565b820191906000526020600020905b8154815290600101906020018083116113e557829003601f168201915b5050505050908060020154908060030154908060040154908060050160009054906101000a900460ff16905086565b60008211801561144357506000548211155b611482576040517f08c379a000000000000000000000000000000000000000000000000000000000815260040161147990612590565b60405180910390fd5b600034116114c5576040517f08c379a00000000000000000000000000000000000000000000000000000000081526004016114bc90613078565b60405180910390fd5b600060016000848152602001908152602001600020905080600401544210611522576040517f08c379a0000000000000000000000000000000000000000000000000000000008152600401611519906130e4565b60405180910390fd5b600060028111156115365761153561203b565b5b8160050160009054906101000a900460ff16600281111561155a5761155961203b565b5b1461159a576040517f08c379a000000000000000000000000000000000000000000000000000000000815260040161159190612720565b60405180910390fd5b60008160060160003373ffffffffffffffffffffffffffffffffffffffff1673ffffffffffffffffffffffffffffffffffffffff168152602001908152602001600020540361163957600260003373ffffffffffffffffffffffffffffffffffffffff1673ffffffffffffffffffffffffffffffffffffffff168152602001908152602001600020600081548092919061163390612c37565b91905055505b811561165f57348160020160008282546116539190612945565b9250508190555061167b565b348160030160008282546116739190612945565b925050819055505b348160060160003373ffffffffffffffffffffffffffffffffffffffff1673ffffffffffffffffffffffffffffffffffffffff16815260200190815260200160002060008282546116cc9190612945565b92505081905550818160070160003373ffffffffffffffffffffffffffffffffffffffff1673ffffffffffffffffffffffffffffffffffffffff16815260200190815260200160002060006101000a81548160ff021916908315150217905550827f6c4c673de56fc2f5caa6b45750bd06edab043c7fbf14004f87cebeec9d72bf2860405161175a90613150565b60405180910390a2505050565b6000808211801561177a57506000548211155b6117b9576040517f08c379a00000000000000000000000000000000000000000000000000000000081526004016117b090612590565b60405180910390fd5b6001600083815260200190815260200160002060050160009054906101000a900460ff169050919050565b60005481565b6000806000841180156117ff57506000548411155b61183e576040517f08c379a000000000000000000000000000000000000000000000000000000000815260040161183590612590565b60405180910390fd5b600060016000868152602001908152602001600020905060008160060160008673ffffffffffffffffffffffffffffffffffffffff1673ffffffffffffffffffffffffffffffffffffffff16815260200190815260200160002054118160060160008673ffffffffffffffffffffffffffffffffffffffff1673ffffffffffffffffffffffffffffffffffffffff1681526020019081526020016000205492509250509250929050565b600080831180156118fb57506000548311155b61193a576040517f08c379a000000000000000000000000000000000000000000000000000000000815260040161193190612590565b60405180910390fd5b6000600160008581526020019081526020016000209050600060028111156119655761196461203b565b5b8160050160009054906101000a900460ff1660028111156119895761198861203b565b5b036119c9576040517f08c379a00000000000000000000000000000000000000000000000000000000081526004016119c0906127f8565b60405180910390fd5b60008160060160008573ffffffffffffffffffffffffffffffffffffffff1673ffffffffffffffffffffffffffffffffffffffff16815260200190815260200160002054905060008103611a2257600092505050611be0565b600060016002811115611a3857611a3761203b565b5b8360050160009054906101000a900460ff166002811115611a5c57611a5b61203b565b5b148015611ab457508260070160008673ffffffffffffffffffffffffffffffffffffffff1673ffffffffffffffffffffffffffffffffffffffff16815260200190815260200160002060009054906101000a900460ff165b80611b4b5750600280811115611acd57611acc61203b565b5b8360050160009054906101000a900460ff166002811115611af157611af061203b565b5b148015611b4a57508260070160008673ffffffffffffffffffffffffffffffffffffffff1673ffffffffffffffffffffffffffffffffffffffff16815260200190815260200160002060009054906101000a900460ff16155b5b905080611b5e5760009350505050611be0565b600060016002811115611b7457611b7361203b565b5b8460050160009054906101000a900460ff166002811115611b9857611b9761203b565b5b14611ba7578360030154611bad565b83600201545b90508084600301548560020154611bc49190612945565b84611bcf9190612979565b611bd991906129ea565b9450505050505b92915050565b60008054905090565b6000604051905090565b600080fd5b600080fd5b600073ffffffffffffffffffffffffffffffffffffffff82169050919050565b6000611c2e82611c03565b9050919050565b611c3e81611c23565b8114611c4957600080fd5b50565b600081359050611c5b81611c35565b92915050565b600060208284031215611c7757611c76611bf9565b5b6000611c8584828501611c4c565b91505092915050565b6000819050919050565b611ca181611c8e565b82525050565b6000602082019050611cbc6000830184611c98565b92915050565b611ccb81611c8e565b8114611cd657600080fd5b50565b600081359050611ce881611cc2565b92915050565b60008115159050919050565b611d0381611cee565b8114611d0e57600080fd5b50565b600081359050611d2081611cfa565b92915050565b60008060408385031215611d3d57611d3c611bf9565b5b6000611d4b85828601611cd9565b9250506020611d5c85828601611d11565b9150509250929050565b600060208284031215611d7c57611d7b611bf9565b5b6000611d8a84828501611cd9565b91505092915050565b600080fd5b600080fd5b6000601f19601f8301169050919050565b7f4e487b7100000000000000000000000000000000000000000000000000000000600052604160045260246000fd5b611de682611d9d565b810181811067ffffffffffffffff82111715611e0557611e04611dae565b5b80604052505050565b6000611e18611bef565b9050611e248282611ddd565b919050565b600067ffffffffffffffff821115611e4457611e43611dae565b5b611e4d82611d9d565b9050602081019050919050565b82818337600083830152505050565b6000611e7c611e7784611e29565b611e0e565b905082815260208101848484011115611e9857611e97611d98565b5b611ea3848285611e5a565b509392505050565b600082601f830112611ec057611ebf611d93565b5b8135611ed0848260208601611e69565b91505092915050565b60008060408385031215611ef057611eef611bf9565b5b600083013567ffffffffffffffff811115611f0e57611f0d611bfe565b5b611f1a85828601611eab565b9250506020611f2b85828601611cd9565b9150509250929050565b60008060408385031215611f4c57611f4b611bf9565b5b6000611f5a85828601611cd9565b9250506020611f6b85828601611c4c565b9150509250929050565b611f7e81611cee565b82525050565b6000604082019050611f996000830185611c98565b611fa66020830184611f75565b9392505050565b611fb681611c23565b82525050565b600081519050919050565b600082825260208201905092915050565b60005b83811015611ff6578082015181840152602081019050611fdb565b60008484015250505050565b600061200d82611fbc565b6120178185611fc7565b9350612027818560208601611fd8565b61203081611d9d565b840191505092915050565b7f4e487b7100000000000000000000000000000000000000000000000000000000600052602160045260246000fd5b6003811061207b5761207a61203b565b5b50565b600081905061208c8261206a565b919050565b600061209c8261207e565b9050919050565b6120ac81612091565b82525050565b600060c0820190506120c76000830189611fad565b81810360208301526120d98188612002565b90506120e86040830187611c98565b6120f56060830186611c98565b6121026080830185611c98565b61210f60a08301846120a3565b979650505050505050565b600081519050919050565b600082825260208201905092915050565b6000819050602082019050919050565b61214f81611c8e565b82525050565b60006121618383612146565b60208301905092915050565b6000602082019050919050565b60006121858261211a565b61218f8185612125565b935061219a83612136565b8060005b838110156121cb5781516121b28882612155565b97506121bd8361216d565b92505060018101905061219e565b5085935050505092915050565b600081519050919050565b600082825260208201905092915050565b6000819050602082019050919050565b61220d81611c23565b82525050565b600061221f8383612204565b60208301905092915050565b6000602082019050919050565b6000612243826121d8565b61224d81856121e3565b9350612258836121f4565b8060005b838110156122895781516122708882612213565b975061227b8361222b565b92505060018101905061225c565b5085935050505092915050565b600081519050919050565b600082825260208201905092915050565b6000819050602082019050919050565b600082825260208201905092915050565b60006122de82611fbc565b6122e881856122c2565b93506122f8818560208601611fd8565b61230181611d9d565b840191505092915050565b600061231883836122d3565b905092915050565b6000602082019050919050565b600061233882612296565b61234281856122a1565b935083602082028501612354856122b2565b8060005b858110156123905784840389528151612371858261230c565b945061237c83612320565b925060208a01995050600181019050612358565b50829750879550505050505092915050565b600081519050919050565b600082825260208201905092915050565b6000819050602082019050919050565b6123d781612091565b82525050565b60006123e983836123ce565b60208301905092915050565b6000602082019050919050565b600061240d826123a2565b61241781856123ad565b9350612422836123be565b8060005b8381101561245357815161243a88826123dd565b9750612445836123f5565b925050600181019050612426565b5085935050505092915050565b600060e082019050818103600083015261247a818a61217a565b9050818103602083015261248e8189612238565b905081810360408301526124a2818861232d565b905081810360608301526124b6818761217a565b905081810360808301526124ca818661217a565b905081810360a08301526124de818561217a565b905081810360c08301526124f28184612402565b905098975050505050505050565b600060208201905061251560008301846120a3565b92915050565b60006040820190506125306000830185611f75565b61253d6020830184611c98565b9392505050565b7f496e76616c6964206d61726b6574204944000000000000000000000000000000600082015250565b600061257a601183611fc7565b915061258582612544565b602082019050919050565b600060208201905081810360008301526125a98161256d565b9050919050565b7f4f6e6c7920746865206d61726b6574206f776e65722063616e207265736f6c7660008201527f6500000000000000000000000000000000000000000000000000000000000000602082015250565b600061260c602183611fc7565b9150612617826125b0565b604082019050919050565b6000602082019050818103600083015261263b816125ff565b9050919050565b7f43616e6e6f74207265736f6c7665206d61726b6574206265666f726520656e6460008201527f2064617465000000000000000000000000000000000000000000000000000000602082015250565b600061269e602583611fc7565b91506126a982612642565b604082019050919050565b600060208201905081810360008301526126cd81612691565b9050919050565b7f4d61726b657420616c7265616479207265736f6c766564000000000000000000600082015250565b600061270a601783611fc7565b9150612715826126d4565b602082019050919050565b60006020820190508181036000830152612739816126fd565b9050919050565b7f5265736f6c766564000000000000000000000000000000000000000000000000600082015250565b6000612776600883611fc7565b915061278182612740565b602082019050919050565b600060208201905081810360008301526127a581612769565b9050919050565b7f4d61726b6574206e6f7420796574207265736f6c766564000000000000000000600082015250565b60006127e2601783611fc7565b91506127ed826127ac565b602082019050919050565b60006020820190508181036000830152612811816127d5565b9050919050565b7f4e6f207374616b65206d61646520627920757365720000000000000000000000600082015250565b600061284e601583611fc7565b915061285982612818565b602082019050919050565b6000602082019050818103600083015261287d81612841565b9050919050565b7f5573657220646964206e6f74207374616b65206f6e207468652077696e6e696e60008201527f67206f7574636f6d650000000000000000000000000000000000000000000000602082015250565b60006128e0602983611fc7565b91506128eb82612884565b604082019050919050565b6000602082019050818103600083015261290f816128d3565b9050919050565b7f4e487b7100000000000000000000000000000000000000000000000000000000600052601160045260246000fd5b600061295082611c8e565b915061295b83611c8e565b925082820190508082111561297357612972612916565b5b92915050565b600061298482611c8e565b915061298f83611c8e565b925082820261299d81611c8e565b915082820484148315176129b4576129b3612916565b5b5092915050565b7f4e487b7100000000000000000000000000000000000000000000000000000000600052601260045260246000fd5b60006129f582611c8e565b9150612a0083611c8e565b925082612a1057612a0f6129bb565b5b828204905092915050565b600081905092915050565b50565b6000612a36600083612a1b565b9150612a4182612a26565b600082019050919050565b6000612a5782612a29565b9150819050919050565b7f4661696c656420746f2073656e642077696e6e696e6773000000000000000000600082015250565b6000612a97601783611fc7565b9150612aa282612a61565b602082019050919050565b60006020820190508181036000830152612ac681612a8a565b9050919050565b7f57696e6e696e6773436c61696d65640000000000000000000000000000000000600082015250565b6000612b03600f83611fc7565b9150612b0e82612acd565b602082019050919050565b60006020820190508181036000830152612b3281612af6565b9050919050565b7f4d757374207374616b6520696e206174206c656173742033206d61726b65747360008201527f206265666f7265206372656174696e67206f6e65000000000000000000000000602082015250565b6000612b95603483611fc7565b9150612ba082612b39565b604082019050919050565b60006020820190508181036000830152612bc481612b88565b9050919050565b7f456e642064617465206d75737420626520696e20746865206675747572650000600082015250565b6000612c01601e83611fc7565b9150612c0c82612bcb565b602082019050919050565b60006020820190508181036000830152612c3081612bf4565b9050919050565b6000612c4282611c8e565b91507fffffffffffffffffffffffffffffffffffffffffffffffffffffffffffffffff8203612c7457612c73612916565b5b600182019050919050565b7f4e487b7100000000000000000000000000000000000000000000000000000000600052602260045260246000fd5b60006002820490506001821680612cc657607f821691505b602082108103612cd957612cd8612c7f565b5b50919050565b60008190508160005260206000209050919050565b60006020601f8301049050919050565b600082821b905092915050565b600060088302612d417fffffffffffffffffffffffffffffffffffffffffffffffffffffffffffffffff82612d04565b612d4b8683612d04565b95508019841693508086168417925050509392505050565b6000819050919050565b6000612d88612d83612d7e84611c8e565b612d63565b611c8e565b9050919050565b6000819050919050565b612da283612d6d565b612db6612dae82612d8f565b848454612d11565b825550505050565b600090565b612dcb612dbe565b612dd6818484612d99565b505050565b5b81811015612dfa57612def600082612dc3565b600181019050612ddc565b5050565b601f821115612e3f57612e1081612cdf565b612e1984612cf4565b81016020851015612e28578190505b612e3c612e3485612cf4565b830182612ddb565b50505b505050565b600082821c905092915050565b6000612e6260001984600802612e44565b1980831691505092915050565b6000612e7b8383612e51565b9150826002028217905092915050565b612e9482611fbc565b67ffffffffffffffff811115612ead57612eac611dae565b5b612eb78254612cae565b612ec2828285612dfe565b600060209050601f831160018114612ef55760008415612ee3578287015190505b612eed8582612e6f565b865550612f55565b601f198416612f0386612cdf565b60005b82811015612f2b57848901518255600182019150602085019450602081019050612f06565b86831015612f485784890151612f44601f891682612e51565b8355505b6001600288020188555050505b505050505050565b7f4372656174656400000000000000000000000000000000000000000000000000600082015250565b6000612f93600783611fc7565b9150612f9e82612f5d565b602082019050919050565b60006020820190508181036000830152612fc281612f86565b9050919050565b6000612fd482611c8e565b9150612fdf83611c8e565b9250828203905081811115612ff757612ff6612916565b5b92915050565b7f4e487b7100000000000000000000000000000000000000000000000000000000600052603260045260246000fd5b7f5374616b65206d7573742062652067726561746572207468616e203000000000600082015250565b6000613062601c83611fc7565b915061306d8261302c565b602082019050919050565b6000602082019050818103600083015261309181613055565b9050919050565b7f4d61726b65742068617320656e64656400000000000000000000000000000000600082015250565b60006130ce601083611fc7565b91506130d982613098565b602082019050919050565b600060208201905081810360008301526130fd816130c1565b9050919050565b7f5374616b65506c61636564000000000000000000000000000000000000000000600082015250565b600061313a600b83611fc7565b915061314582613104565b602082019050919050565b600060208201905081810360008301526131698161312d565b905091905056fea264697066735822122047bc81555a92b4eb69788dcfe7f8eb3ca33ea27fa215e4504312a951010dc80b64736f6c63430008140033",
  "linkReferences": {},
  "deployedLinkReferences": {}
}