{
  "_format": "hh-sol-artifact-1",
  "contractName": "PredictionMarket",
  "sourceName": "contracts/PredictionMarket.sol",
  "abi": [
    {
      "anonymous": false,
      "inputs": [
        {
          "indexed": true,
          "internalType": "uint256",
          "name": "id",
          "type": "uint256"
        },
        {
          "indexed": false,
          "internalType": "string",
          "name": "action",
          "type": "string"
        }
      ],
      "name": "MarketStateChanged",
      "type": "event"
    },
    {
      "inputs": [
        {
          "internalType": "uint256",
          "name": "_marketId",
          "type": "uint256"
        },
        {
          "internalType": "address",
          "name": "_user",
          "type": "address"
        }
      ],
      "name": "calculateWinnings",
      "outputs": [
        {
          "internalType": "uint256",
          "name": "",
          "type": "uint256"
        }
      ],
      "stateMutability": "view",
      "type": "function"
    },
    {
      "inputs": [
        {
          "internalType": "uint256",
          "name": "_marketId",
          "type": "uint256"
        }
      ],
      "name": "claimWinnings",
      "outputs": [],
      "stateMutability": "nonpayable",
      "type": "function"
    },
    {
      "inputs": [
        {
          "internalType": "string",
          "name": "_question",
          "type": "string"
        },
        {
          "internalType": "uint256",
          "name": "_endDate",
          "type": "uint256"
        }
      ],
      "name": "createMarket",
      "outputs": [],
      "stateMutability": "nonpayable",
      "type": "function"
    },
    {
      "inputs": [],
      "name": "getMarketCount",
      "outputs": [
        {
          "internalType": "uint256",
          "name": "_marketCount",
          "type": "uint256"
        }
      ],
      "stateMutability": "view",
      "type": "function"
    },
    {
      "inputs": [
        {
          "internalType": "uint256",
          "name": "_marketId",
          "type": "uint256"
        }
      ],
      "name": "getMarketDetails",
      "outputs": [
        {
          "internalType": "address",
          "name": "owner",
          "type": "address"
        },
        {
          "internalType": "string",
          "name": "question",
          "type": "string"
        },
        {
          "internalType": "uint256",
          "name": "totalYesStake",
          "type": "uint256"
        },
        {
          "internalType": "uint256",
          "name": "totalNoStake",
          "type": "uint256"
        },
        {
          "internalType": "uint256",
          "name": "endDate",
          "type": "uint256"
        },
        {
          "internalType": "enum PredictionMarket.Outcome",
          "name": "outcome",
          "type": "uint8"
        }
      ],
      "stateMutability": "view",
      "type": "function"
    },
    {
      "inputs": [
        {
          "internalType": "uint256",
          "name": "_marketId",
          "type": "uint256"
        }
      ],
      "name": "getMarketOutcome",
      "outputs": [
        {
          "internalType": "enum PredictionMarket.Outcome",
          "name": "",
          "type": "uint8"
        }
      ],
      "stateMutability": "view",
      "type": "function"
    },
    {
      "inputs": [
        {
          "internalType": "uint256",
          "name": "_marketId",
          "type": "uint256"
        },
        {
          "internalType": "address",
          "name": "_user",
          "type": "address"
        }
      ],
      "name": "getUserStake",
      "outputs": [
        {
          "internalType": "uint256",
          "name": "stake",
          "type": "uint256"
        },
        {
          "internalType": "bool",
          "name": "votedYes",
          "type": "bool"
        }
      ],
      "stateMutability": "view",
      "type": "function"
    },
    {
      "inputs": [],
      "name": "marketCount",
      "outputs": [
        {
          "internalType": "uint256",
          "name": "",
          "type": "uint256"
        }
      ],
      "stateMutability": "view",
      "type": "function"
    },
    {
      "inputs": [
        {
          "internalType": "uint256",
          "name": "",
          "type": "uint256"
        }
      ],
      "name": "markets",
      "outputs": [
        {
          "internalType": "address",
          "name": "owner",
          "type": "address"
        },
        {
          "internalType": "string",
          "name": "question",
          "type": "string"
        },
        {
          "internalType": "uint256",
          "name": "totalYesStake",
          "type": "uint256"
        },
        {
          "internalType": "uint256",
          "name": "totalNoStake",
          "type": "uint256"
        },
        {
          "internalType": "uint256",
          "name": "endDate",
          "type": "uint256"
        },
        {
          "internalType": "enum PredictionMarket.Outcome",
          "name": "outcome",
          "type": "uint8"
        }
      ],
      "stateMutability": "view",
      "type": "function"
    },
    {
      "inputs": [
        {
          "internalType": "uint256",
          "name": "_marketId",
          "type": "uint256"
        },
        {
          "internalType": "bool",
          "name": "_prediction",
          "type": "bool"
        }
      ],
      "name": "placeStake",
      "outputs": [],
      "stateMutability": "payable",
      "type": "function"
    },
    {
      "inputs": [
        {
          "internalType": "uint256",
          "name": "_marketId",
          "type": "uint256"
        },
        {
          "internalType": "bool",
          "name": "_outcome",
          "type": "bool"
        }
      ],
      "name": "resolveMarket",
      "outputs": [],
      "stateMutability": "nonpayable",
      "type": "function"
    }
  ],
  "bytecode": "0x608060405234801561001057600080fd5b5061248c806100206000396000f3fe60806040526004361061009c5760003560e01c8063b1283e7711610064578063b1283e771461019c578063cc98ba58146101de578063d1145f10146101fa578063ec97908214610237578063f15cc40614610262578063fd69f3c21461029f5761009c565b806357bde446146100a1578063677bd9ff146100ca578063883c84c1146100f35780639626a2301461011c578063b06c1ba31461015a575b600080fd5b3480156100ad57600080fd5b506100c860048036038101906100c39190611488565b6102ca565b005b3480156100d657600080fd5b506100f160048036038101906100ec91906114c8565b6104f7565b005b3480156100ff57600080fd5b5061011a6004803603810190610115919061163b565b610982565b005b34801561012857600080fd5b50610143600480360381019061013e91906116f5565b610a8e565b604051610151929190611753565b60405180910390f35b34801561016657600080fd5b50610181600480360381019061017c91906114c8565b610b96565b60405161019396959493929190611881565b60405180910390f35b3480156101a857600080fd5b506101c360048036038101906101be91906114c8565b610cf4565b6040516101d596959493929190611881565b60405180910390f35b6101f860048036038101906101f39190611488565b610de5565b005b34801561020657600080fd5b50610221600480360381019061021c91906114c8565b61107c565b60405161022e91906118e9565b60405180910390f35b34801561024357600080fd5b5061024c6110f9565b6040516102599190611904565b60405180910390f35b34801561026e57600080fd5b50610289600480360381019061028491906116f5565b6110ff565b6040516102969190611904565b60405180910390f35b3480156102ab57600080fd5b506102b46113fd565b6040516102c19190611904565b60405180910390f35b6000821180156102dc57506000548211155b61031b576040517f08c379a00000000000000000000000000000000000000000000000000000000081526004016103129061196b565b60405180910390fd5b60006001600084815260200190815260200160002090508060000160009054906101000a900473ffffffffffffffffffffffffffffffffffffffff1673ffffffffffffffffffffffffffffffffffffffff163373ffffffffffffffffffffffffffffffffffffffff16146103c4576040517f08c379a00000000000000000000000000000000000000000000000000000000081526004016103bb906119fd565b60405180910390fd5b8060040154421161040a576040517f08c379a000000000000000000000000000000000000000000000000000000000815260040161040190611a8f565b60405180910390fd5b6000600281111561041e5761041d61180a565b5b8160050160009054906101000a900460ff1660028111156104425761044161180a565b5b14610482576040517f08c379a000000000000000000000000000000000000000000000000000000000815260040161047990611afb565b60405180910390fd5b8161048e576002610491565b60015b8160050160006101000a81548160ff021916908360028111156104b7576104b661180a565b5b0217905550827f6c4c673de56fc2f5caa6b45750bd06edab043c7fbf14004f87cebeec9d72bf286040516104ea90611b67565b60405180910390a2505050565b60008111801561050957506000548111155b610548576040517f08c379a000000000000000000000000000000000000000000000000000000000815260040161053f9061196b565b60405180910390fd5b6000600160008381526020019081526020016000209050600060028111156105735761057261180a565b5b8160050160009054906101000a900460ff1660028111156105975761059661180a565b5b036105d7576040517f08c379a00000000000000000000000000000000000000000000000000000000081526004016105ce90611bd3565b60405180910390fd5b600033905060008260060160008373ffffffffffffffffffffffffffffffffffffffff1673ffffffffffffffffffffffffffffffffffffffff16815260200190815260200160002054905060008111610665576040517f08c379a000000000000000000000000000000000000000000000000000000000815260040161065c90611c3f565b60405180910390fd5b60006001600281111561067b5761067a61180a565b5b8460050160009054906101000a900460ff16600281111561069f5761069e61180a565b5b1480156106f757508360070160008473ffffffffffffffffffffffffffffffffffffffff1673ffffffffffffffffffffffffffffffffffffffff16815260200190815260200160002060009054906101000a900460ff165b8061078e57506002808111156107105761070f61180a565b5b8460050160009054906101000a900460ff1660028111156107345761073361180a565b5b14801561078d57508360070160008473ffffffffffffffffffffffffffffffffffffffff1673ffffffffffffffffffffffffffffffffffffffff16815260200190815260200160002060009054906101000a900460ff16155b5b9050806107d0576040517f08c379a00000000000000000000000000000000000000000000000000000000081526004016107c790611cd1565b60405180910390fd5b6000600160028111156107e6576107e561180a565b5b8560050160009054906101000a900460ff16600281111561080a5761080961180a565b5b1461081957846003015461081f565b84600201545b9050600081866003015487600201546108389190611d20565b856108439190611d54565b61084d9190611dc5565b905060008660060160008773ffffffffffffffffffffffffffffffffffffffff1673ffffffffffffffffffffffffffffffffffffffff1681526020019081526020016000208190555060008573ffffffffffffffffffffffffffffffffffffffff16826040516108bc90611e27565b60006040518083038185875af1925050503d80600081146108f9576040519150601f19603f3d011682016040523d82523d6000602084013e6108fe565b606091505b5050905080610942576040517f08c379a000000000000000000000000000000000000000000000000000000000815260040161093990611e88565b60405180910390fd5b877f6c4c673de56fc2f5caa6b45750bd06edab043c7fbf14004f87cebeec9d72bf2860405161097090611ef4565b60405180910390a25050505050505050565b4281116109c4576040517f08c379a00000000000000000000000000000000000000000000000000000000081526004016109bb90611f60565b60405180910390fd5b6000808154809291906109d690611f80565b9190505550600060016000805481526020019081526020016000209050338160000160006101000a81548173ffffffffffffffffffffffffffffffffffffffff021916908373ffffffffffffffffffffffffffffffffffffffff16021790555082816001019081610a4791906121d4565b508181600401819055506000547f6c4c673de56fc2f5caa6b45750bd06edab043c7fbf14004f87cebeec9d72bf28604051610a81906122f2565b60405180910390a2505050565b600080600084118015610aa357506000548411155b610ae2576040517f08c379a0000000000000000000000000000000000000000000000000000000008152600401610ad99061196b565b60405180910390fd5b60006001600086815260200190815260200160002090508060060160008573ffffffffffffffffffffffffffffffffffffffff1673ffffffffffffffffffffffffffffffffffffffff168152602001908152602001600020548160070160008673ffffffffffffffffffffffffffffffffffffffff1673ffffffffffffffffffffffffffffffffffffffff16815260200190815260200160002060009054906101000a900460ff1692509250509250929050565b60006060600080600080600087118015610bb257506000548711155b610bf1576040517f08c379a0000000000000000000000000000000000000000000000000000000008152600401610be89061196b565b60405180910390fd5b60006001600089815260200190815260200160002090508060000160009054906101000a900473ffffffffffffffffffffffffffffffffffffffff16816001018260020154836003015484600401548560050160009054906101000a900460ff16848054610c5e90611ff7565b80601f0160208091040260200160405190810160405280929190818152602001828054610c8a90611ff7565b8015610cd75780601f10610cac57610100808354040283529160200191610cd7565b820191906000526020600020905b815481529060010190602001808311610cba57829003601f168201915b505050505094509650965096509650965096505091939550919395565b60016020528060005260406000206000915090508060000160009054906101000a900473ffffffffffffffffffffffffffffffffffffffff1690806001018054610d3d90611ff7565b80601f0160208091040260200160405190810160405280929190818152602001828054610d6990611ff7565b8015610db65780601f10610d8b57610100808354040283529160200191610db6565b820191906000526020600020905b815481529060010190602001808311610d9957829003601f168201915b5050505050908060020154908060030154908060040154908060050160009054906101000a900460ff16905086565b600082118015610df757506000548211155b610e36576040517f08c379a0000000000000000000000000000000000000000000000000000000008152600401610e2d9061196b565b60405180910390fd5b60003411610e79576040517f08c379a0000000000000000000000000000000000000000000000000000000008152600401610e709061235e565b60405180910390fd5b600060016000848152602001908152602001600020905080600401544210610ed6576040517f08c379a0000000000000000000000000000000000000000000000000000000008152600401610ecd906123ca565b60405180910390fd5b60006002811115610eea57610ee961180a565b5b8160050160009054906101000a900460ff166002811115610f0e57610f0d61180a565b5b14610f4e576040517f08c379a0000000000000000000000000000000000000000000000000000000008152600401610f4590611afb565b60405180910390fd5b8115610f745734816002016000828254610f689190611d20565b92505081905550610f90565b34816003016000828254610f889190611d20565b925050819055505b348160060160003373ffffffffffffffffffffffffffffffffffffffff1673ffffffffffffffffffffffffffffffffffffffff1681526020019081526020016000206000828254610fe19190611d20565b92505081905550818160070160003373ffffffffffffffffffffffffffffffffffffffff1673ffffffffffffffffffffffffffffffffffffffff16815260200190815260200160002060006101000a81548160ff021916908315150217905550827f6c4c673de56fc2f5caa6b45750bd06edab043c7fbf14004f87cebeec9d72bf2860405161106f90612436565b60405180910390a2505050565b6000808211801561108f57506000548211155b6110ce576040517f08c379a00000000000000000000000000000000000000000000000000000000081526004016110c59061196b565b60405180910390fd5b6001600083815260200190815260200160002060050160009054906101000a900460ff169050919050565b60005481565b6000808311801561111257506000548311155b611151576040517f08c379a00000000000000000000000000000000000000000000000000000000081526004016111489061196b565b60405180910390fd5b60006001600085815260200190815260200160002090506000600281111561117c5761117b61180a565b5b8160050160009054906101000a900460ff1660028111156111a05761119f61180a565b5b036111e0576040517f08c379a00000000000000000000000000000000000000000000000000000000081526004016111d790611bd3565b60405180910390fd5b60008160060160008573ffffffffffffffffffffffffffffffffffffffff1673ffffffffffffffffffffffffffffffffffffffff16815260200190815260200160002054905060008103611239576000925050506113f7565b60006001600281111561124f5761124e61180a565b5b8360050160009054906101000a900460ff1660028111156112735761127261180a565b5b1480156112cb57508260070160008673ffffffffffffffffffffffffffffffffffffffff1673ffffffffffffffffffffffffffffffffffffffff16815260200190815260200160002060009054906101000a900460ff165b8061136257506002808111156112e4576112e361180a565b5b8360050160009054906101000a900460ff1660028111156113085761130761180a565b5b14801561136157508260070160008673ffffffffffffffffffffffffffffffffffffffff1673ffffffffffffffffffffffffffffffffffffffff16815260200190815260200160002060009054906101000a900460ff16155b5b90508061137557600093505050506113f7565b60006001600281111561138b5761138a61180a565b5b8460050160009054906101000a900460ff1660028111156113af576113ae61180a565b5b146113be5783600301546113c4565b83600201545b905080846003015485600201546113db9190611d20565b846113e69190611d54565b6113f09190611dc5565b9450505050505b92915050565b60008054905090565b6000604051905090565b600080fd5b600080fd5b6000819050919050565b61142d8161141a565b811461143857600080fd5b50565b60008135905061144a81611424565b92915050565b60008115159050919050565b61146581611450565b811461147057600080fd5b50565b6000813590506114828161145c565b92915050565b6000806040838503121561149f5761149e611410565b5b60006114ad8582860161143b565b92505060206114be85828601611473565b9150509250929050565b6000602082840312156114de576114dd611410565b5b60006114ec8482850161143b565b91505092915050565b600080fd5b600080fd5b6000601f19601f8301169050919050565b7f4e487b7100000000000000000000000000000000000000000000000000000000600052604160045260246000fd5b611548826114ff565b810181811067ffffffffffffffff8211171561156757611566611510565b5b80604052505050565b600061157a611406565b9050611586828261153f565b919050565b600067ffffffffffffffff8211156115a6576115a5611510565b5b6115af826114ff565b9050602081019050919050565b82818337600083830152505050565b60006115de6115d98461158b565b611570565b9050828152602081018484840111156115fa576115f96114fa565b5b6116058482856115bc565b509392505050565b600082601f830112611622576116216114f5565b5b81356116328482602086016115cb565b91505092915050565b6000806040838503121561165257611651611410565b5b600083013567ffffffffffffffff8111156116705761166f611415565b5b61167c8582860161160d565b925050602061168d8582860161143b565b9150509250929050565b600073ffffffffffffffffffffffffffffffffffffffff82169050919050565b60006116c282611697565b9050919050565b6116d2816116b7565b81146116dd57600080fd5b50565b6000813590506116ef816116c9565b92915050565b6000806040838503121561170c5761170b611410565b5b600061171a8582860161143b565b925050602061172b858286016116e0565b9150509250929050565b61173e8161141a565b82525050565b61174d81611450565b82525050565b60006040820190506117686000830185611735565b6117756020830184611744565b9392505050565b611785816116b7565b82525050565b600081519050919050565b600082825260208201905092915050565b60005b838110156117c55780820151818401526020810190506117aa565b60008484015250505050565b60006117dc8261178b565b6117e68185611796565b93506117f68185602086016117a7565b6117ff816114ff565b840191505092915050565b7f4e487b7100000000000000000000000000000000000000000000000000000000600052602160045260246000fd5b6003811061184a5761184961180a565b5b50565b600081905061185b82611839565b919050565b600061186b8261184d565b9050919050565b61187b81611860565b82525050565b600060c082019050611896600083018961177c565b81810360208301526118a881886117d1565b90506118b76040830187611735565b6118c46060830186611735565b6118d16080830185611735565b6118de60a0830184611872565b979650505050505050565b60006020820190506118fe6000830184611872565b92915050565b60006020820190506119196000830184611735565b92915050565b7f496e76616c6964206d61726b6574204944000000000000000000000000000000600082015250565b6000611955601183611796565b91506119608261191f565b602082019050919050565b6000602082019050818103600083015261198481611948565b9050919050565b7f4f6e6c7920746865206d61726b6574206f776e65722063616e207265736f6c7660008201527f6500000000000000000000000000000000000000000000000000000000000000602082015250565b60006119e7602183611796565b91506119f28261198b565b604082019050919050565b60006020820190508181036000830152611a16816119da565b9050919050565b7f43616e6e6f74207265736f6c7665206d61726b6574206265666f726520656e6460008201527f2064617465000000000000000000000000000000000000000000000000000000602082015250565b6000611a79602583611796565b9150611a8482611a1d565b604082019050919050565b60006020820190508181036000830152611aa881611a6c565b9050919050565b7f4d61726b657420616c7265616479207265736f6c766564000000000000000000600082015250565b6000611ae5601783611796565b9150611af082611aaf565b602082019050919050565b60006020820190508181036000830152611b1481611ad8565b9050919050565b7f5265736f6c766564000000000000000000000000000000000000000000000000600082015250565b6000611b51600883611796565b9150611b5c82611b1b565b602082019050919050565b60006020820190508181036000830152611b8081611b44565b9050919050565b7f4d61726b6574206e6f7420796574207265736f6c766564000000000000000000600082015250565b6000611bbd601783611796565b9150611bc882611b87565b602082019050919050565b60006020820190508181036000830152611bec81611bb0565b9050919050565b7f4e6f207374616b65206d61646520627920757365720000000000000000000000600082015250565b6000611c29601583611796565b9150611c3482611bf3565b602082019050919050565b60006020820190508181036000830152611c5881611c1c565b9050919050565b7f5573657220646964206e6f74207374616b65206f6e207468652077696e6e696e60008201527f67206f7574636f6d650000000000000000000000000000000000000000000000602082015250565b6000611cbb602983611796565b9150611cc682611c5f565b604082019050919050565b60006020820190508181036000830152611cea81611cae565b9050919050565b7f4e487b7100000000000000000000000000000000000000000000000000000000600052601160045260246000fd5b6000611d2b8261141a565b9150611d368361141a565b9250828201905080821115611d4e57611d4d611cf1565b5b92915050565b6000611d5f8261141a565b9150611d6a8361141a565b9250828202611d788161141a565b91508282048414831517611d8f57611d8e611cf1565b5b5092915050565b7f4e487b7100000000000000000000000000000000000000000000000000000000600052601260045260246000fd5b6000611dd08261141a565b9150611ddb8361141a565b925082611deb57611dea611d96565b5b828204905092915050565b600081905092915050565b50565b6000611e11600083611df6565b9150611e1c82611e01565b600082019050919050565b6000611e3282611e04565b9150819050919050565b7f4661696c656420746f2073656e642077696e6e696e6773000000000000000000600082015250565b6000611e72601783611796565b9150611e7d82611e3c565b602082019050919050565b60006020820190508181036000830152611ea181611e65565b9050919050565b7f57696e6e696e6773436c61696d65640000000000000000000000000000000000600082015250565b6000611ede600f83611796565b9150611ee982611ea8565b602082019050919050565b60006020820190508181036000830152611f0d81611ed1565b9050919050565b7f456e642064617465206d75737420626520696e20746865206675747572650000600082015250565b6000611f4a601e83611796565b9150611f5582611f14565b602082019050919050565b60006020820190508181036000830152611f7981611f3d565b9050919050565b6000611f8b8261141a565b91507fffffffffffffffffffffffffffffffffffffffffffffffffffffffffffffffff8203611fbd57611fbc611cf1565b5b600182019050919050565b7f4e487b7100000000000000000000000000000000000000000000000000000000600052602260045260246000fd5b6000600282049050600182168061200f57607f821691505b60208210810361202257612021611fc8565b5b50919050565b60008190508160005260206000209050919050565b60006020601f8301049050919050565b600082821b905092915050565b60006008830261208a7fffffffffffffffffffffffffffffffffffffffffffffffffffffffffffffffff8261204d565b612094868361204d565b95508019841693508086168417925050509392505050565b6000819050919050565b60006120d16120cc6120c78461141a565b6120ac565b61141a565b9050919050565b6000819050919050565b6120eb836120b6565b6120ff6120f7826120d8565b84845461205a565b825550505050565b600090565b612114612107565b61211f8184846120e2565b505050565b5b818110156121435761213860008261210c565b600181019050612125565b5050565b601f8211156121885761215981612028565b6121628461203d565b81016020851015612171578190505b61218561217d8561203d565b830182612124565b50505b505050565b600082821c905092915050565b60006121ab6000198460080261218d565b1980831691505092915050565b60006121c4838361219a565b9150826002028217905092915050565b6121dd8261178b565b67ffffffffffffffff8111156121f6576121f5611510565b5b6122008254611ff7565b61220b828285612147565b600060209050601f83116001811461223e576000841561222c578287015190505b61223685826121b8565b86555061229e565b601f19841661224c86612028565b60005b828110156122745784890151825560018201915060208501945060208101905061224f565b86831015612291578489015161228d601f89168261219a565b8355505b6001600288020188555050505b505050505050565b7f4372656174656400000000000000000000000000000000000000000000000000600082015250565b60006122dc600783611796565b91506122e7826122a6565b602082019050919050565b6000602082019050818103600083015261230b816122cf565b9050919050565b7f5374616b65206d7573742062652067726561746572207468616e203000000000600082015250565b6000612348601c83611796565b915061235382612312565b602082019050919050565b600060208201905081810360008301526123778161233b565b9050919050565b7f4d61726b65742068617320656e64656400000000000000000000000000000000600082015250565b60006123b4601083611796565b91506123bf8261237e565b602082019050919050565b600060208201905081810360008301526123e3816123a7565b9050919050565b7f5374616b65506c61636564000000000000000000000000000000000000000000600082015250565b6000612420600b83611796565b915061242b826123ea565b602082019050919050565b6000602082019050818103600083015261244f81612413565b905091905056fea264697066735822122063846165e3faa005b6f38842a8552c81413cb6205bae21116c9964b7f3eaa41564736f6c63430008140033",
  "linkReferences": {},
  "deployedLinkReferences": {}
}