{
  "_format": "hh-sol-artifact-1",
  "contractName": "SimplePredictionMarket",
  "sourceName": "contracts/SimplePredictionMarket.sol",
  "abi": [
    {
      "anonymous": false,
      "inputs": [
        {
          "indexed": true,
          "internalType": "uint256",
          "name": "id",
          "type": "uint256"
        },
        {
          "indexed": false,
          "internalType": "string",
          "name": "action",
          "type": "string"
        }
      ],
      "name": "MarketStateChanged",
      "type": "event"
    },
    {
      "inputs": [
        {
          "internalType": "uint256",
          "name": "_marketId",
          "type": "uint256"
        },
        {
          "internalType": "address",
          "name": "_user",
          "type": "address"
        }
      ],
      "name": "calculateWinnings",
      "outputs": [
        {
          "internalType": "uint256",
          "name": "",
          "type": "uint256"
        }
      ],
      "stateMutability": "view",
      "type": "function"
    },
    {
      "inputs": [
        {
          "internalType": "uint256",
          "name": "_marketId",
          "type": "uint256"
        }
      ],
      "name": "claimWinnings",
      "outputs": [],
      "stateMutability": "nonpayable",
      "type": "function"
    },
    {
      "inputs": [
        {
          "internalType": "string",
          "name": "_question",
          "type": "string"
        },
        {
          "internalType": "uint256",
          "name": "_endDate",
          "type": "uint256"
        }
      ],
      "name": "createMarket",
      "outputs": [],
      "stateMutability": "nonpayable",
      "type": "function"
    },
    {
      "inputs": [],
      "name": "getAllMarkets",
      "outputs": [
        {
          "internalType": "uint256[]",
          "name": "marketIds",
          "type": "uint256[]"
        },
        {
          "internalType": "address[]",
          "name": "owners",
          "type": "address[]"
        },
        {
          "internalType": "string[]",
          "name": "questions",
          "type": "string[]"
        },
        {
          "internalType": "uint256[]",
          "name": "totalYesStakes",
          "type": "uint256[]"
        },
        {
          "internalType": "uint256[]",
          "name": "totalNoStakes",
          "type": "uint256[]"
        },
        {
          "internalType": "uint256[]",
          "name": "endDates",
          "type": "uint256[]"
        },
        {
          "internalType": "enum SimplePredictionMarket.Outcome[]",
          "name": "outcomes",
          "type": "uint8[]"
        }
      ],
      "stateMutability": "view",
      "type": "function"
    },
    {
      "inputs": [],
      "name": "getMarketCount",
      "outputs": [
        {
          "internalType": "uint256",
          "name": "_marketCount",
          "type": "uint256"
        }
      ],
      "stateMutability": "view",
      "type": "function"
    },
    {
      "inputs": [
        {
          "internalType": "uint256",
          "name": "_marketId",
          "type": "uint256"
        }
      ],
      "name": "getMarketDetails",
      "outputs": [
        {
          "internalType": "address",
          "name": "owner",
          "type": "address"
        },
        {
          "internalType": "string",
          "name": "question",
          "type": "string"
        },
        {
          "internalType": "uint256",
          "name": "totalYesStake",
          "type": "uint256"
        },
        {
          "internalType": "uint256",
          "name": "totalNoStake",
          "type": "uint256"
        },
        {
          "internalType": "uint256",
          "name": "endDate",
          "type": "uint256"
        },
        {
          "internalType": "enum SimplePredictionMarket.Outcome",
          "name": "outcome",
          "type": "uint8"
        }
      ],
      "stateMutability": "view",
      "type": "function"
    },
    {
      "inputs": [
        {
          "internalType": "uint256",
          "name": "_marketId",
          "type": "uint256"
        }
      ],
      "name": "getMarketOutcome",
      "outputs": [
        {
          "internalType": "enum SimplePredictionMarket.Outcome",
          "name": "",
          "type": "uint8"
        }
      ],
      "stateMutability": "view",
      "type": "function"
    },
    {
      "inputs": [
        {
          "internalType": "uint256",
          "name": "_marketId",
          "type": "uint256"
        },
        {
          "internalType": "address",
          "name": "_user",
          "type": "address"
        }
      ],
      "name": "getUserStake",
      "outputs": [
        {
          "internalType": "uint256",
          "name": "stake",
          "type": "uint256"
        },
        {
          "internalType": "bool",
          "name": "votedYes",
          "type": "bool"
        }
      ],
      "stateMutability": "view",
      "type": "function"
    },
    {
      "inputs": [],
      "name": "marketCount",
      "outputs": [
        {
          "internalType": "uint256",
          "name": "",
          "type": "uint256"
        }
      ],
      "stateMutability": "view",
      "type": "function"
    },
    {
      "inputs": [
        {
          "internalType": "uint256",
          "name": "",
          "type": "uint256"
        }
      ],
      "name": "markets",
      "outputs": [
        {
          "internalType": "address",
          "name": "owner",
          "type": "address"
        },
        {
          "internalType": "string",
          "name": "question",
          "type": "string"
        },
        {
          "internalType": "uint256",
          "name": "totalYesStake",
          "type": "uint256"
        },
        {
          "internalType": "uint256",
          "name": "totalNoStake",
          "type": "uint256"
        },
        {
          "internalType": "uint256",
          "name": "endDate",
          "type": "uint256"
        },
        {
          "internalType": "enum SimplePredictionMarket.Outcome",
          "name": "outcome",
          "type": "uint8"
        }
      ],
      "stateMutability": "view",
      "type": "function"
    },
    {
      "inputs": [
        {
          "internalType": "uint256",
          "name": "_marketId",
          "type": "uint256"
        },
        {
          "internalType": "bool",
          "name": "_prediction",
          "type": "bool"
        }
      ],
      "name": "placeStake",
      "outputs": [],
      "stateMutability": "payable",
      "type": "function"
    },
    {
      "inputs": [
        {
          "internalType": "uint256",
          "name": "_marketId",
          "type": "uint256"
        },
        {
          "internalType": "bool",
          "name": "_outcome",
          "type": "bool"
        }
      ],
      "name": "resolveMarket",
      "outputs": [],
      "stateMutability": "nonpayable",
      "type": "function"
    }
  ],
  "bytecode": "0x608060405234801561001057600080fd5b50612dd5806100206000396000f3fe6080604052600436106100a75760003560e01c8063b1283e7711610064578063b1283e77146101d8578063cc98ba581461021a578063d1145f1014610236578063ec97908214610273578063f15cc4061461029e578063fd69f3c2146102db576100a7565b806357bde446146100ac578063677bd9ff146100d5578063883c84c1146100fe5780639626a23014610127578063b06c1ba314610165578063b0772d0b146101a7575b600080fd5b3480156100b857600080fd5b506100d360048036038101906100ce9190611988565b610306565b005b3480156100e157600080fd5b506100fc60048036038101906100f791906119c8565b610533565b005b34801561010a57600080fd5b5061012560048036038101906101209190611b3b565b6109be565b005b34801561013357600080fd5b5061014e60048036038101906101499190611bf5565b610aca565b60405161015c929190611c53565b60405180910390f35b34801561017157600080fd5b5061018c600480360381019061018791906119c8565b610bd2565b60405161019e96959493929190611d81565b60405180910390f35b3480156101b357600080fd5b506101bc610d30565b6040516101cf979695949392919061212f565b60405180910390f35b3480156101e457600080fd5b506101ff60048036038101906101fa91906119c8565b6111f4565b60405161021196959493929190611d81565b60405180910390f35b610234600480360381019061022f9190611988565b6112e5565b005b34801561024257600080fd5b5061025d600480360381019061025891906119c8565b61157c565b60405161026a91906121cf565b60405180910390f35b34801561027f57600080fd5b506102886115f9565b60405161029591906121ea565b60405180910390f35b3480156102aa57600080fd5b506102c560048036038101906102c09190611bf5565b6115ff565b6040516102d291906121ea565b60405180910390f35b3480156102e757600080fd5b506102f06118fd565b6040516102fd91906121ea565b60405180910390f35b60008211801561031857506000548211155b610357576040517f08c379a000000000000000000000000000000000000000000000000000000000815260040161034e90612251565b60405180910390fd5b60006001600084815260200190815260200160002090508060000160009054906101000a900473ffffffffffffffffffffffffffffffffffffffff1673ffffffffffffffffffffffffffffffffffffffff163373ffffffffffffffffffffffffffffffffffffffff1614610400576040517f08c379a00000000000000000000000000000000000000000000000000000000081526004016103f7906122e3565b60405180910390fd5b80600401544211610446576040517f08c379a000000000000000000000000000000000000000000000000000000000815260040161043d90612375565b60405180910390fd5b6000600281111561045a57610459611d0a565b5b8160050160009054906101000a900460ff16600281111561047e5761047d611d0a565b5b146104be576040517f08c379a00000000000000000000000000000000000000000000000000000000081526004016104b5906123e1565b60405180910390fd5b816104ca5760026104cd565b60015b8160050160006101000a81548160ff021916908360028111156104f3576104f2611d0a565b5b0217905550827f6c4c673de56fc2f5caa6b45750bd06edab043c7fbf14004f87cebeec9d72bf286040516105269061244d565b60405180910390a2505050565b60008111801561054557506000548111155b610584576040517f08c379a000000000000000000000000000000000000000000000000000000000815260040161057b90612251565b60405180910390fd5b6000600160008381526020019081526020016000209050600060028111156105af576105ae611d0a565b5b8160050160009054906101000a900460ff1660028111156105d3576105d2611d0a565b5b03610613576040517f08c379a000000000000000000000000000000000000000000000000000000000815260040161060a906124b9565b60405180910390fd5b600033905060008260060160008373ffffffffffffffffffffffffffffffffffffffff1673ffffffffffffffffffffffffffffffffffffffff168152602001908152602001600020549050600081116106a1576040517f08c379a000000000000000000000000000000000000000000000000000000000815260040161069890612525565b60405180910390fd5b6000600160028111156106b7576106b6611d0a565b5b8460050160009054906101000a900460ff1660028111156106db576106da611d0a565b5b14801561073357508360070160008473ffffffffffffffffffffffffffffffffffffffff1673ffffffffffffffffffffffffffffffffffffffff16815260200190815260200160002060009054906101000a900460ff165b806107ca575060028081111561074c5761074b611d0a565b5b8460050160009054906101000a900460ff1660028111156107705761076f611d0a565b5b1480156107c957508360070160008473ffffffffffffffffffffffffffffffffffffffff1673ffffffffffffffffffffffffffffffffffffffff16815260200190815260200160002060009054906101000a900460ff16155b5b90508061080c576040517f08c379a0000000000000000000000000000000000000000000000000000000008152600401610803906125b7565b60405180910390fd5b60006001600281111561082257610821611d0a565b5b8560050160009054906101000a900460ff16600281111561084657610845611d0a565b5b1461085557846003015461085b565b84600201545b9050600081866003015487600201546108749190612606565b8561087f919061263a565b61088991906126ab565b905060008660060160008773ffffffffffffffffffffffffffffffffffffffff1673ffffffffffffffffffffffffffffffffffffffff1681526020019081526020016000208190555060008573ffffffffffffffffffffffffffffffffffffffff16826040516108f89061270d565b60006040518083038185875af1925050503d8060008114610935576040519150601f19603f3d011682016040523d82523d6000602084013e61093a565b606091505b505090508061097e576040517f08c379a00000000000000000000000000000000000000000000000000000000081526004016109759061276e565b60405180910390fd5b877f6c4c673de56fc2f5caa6b45750bd06edab043c7fbf14004f87cebeec9d72bf286040516109ac906127da565b60405180910390a25050505050505050565b428111610a00576040517f08c379a00000000000000000000000000000000000000000000000000000000081526004016109f790612846565b60405180910390fd5b600080815480929190610a1290612866565b9190505550600060016000805481526020019081526020016000209050338160000160006101000a81548173ffffffffffffffffffffffffffffffffffffffff021916908373ffffffffffffffffffffffffffffffffffffffff16021790555082816001019081610a839190612aba565b508181600401819055506000547f6c4c673de56fc2f5caa6b45750bd06edab043c7fbf14004f87cebeec9d72bf28604051610abd90612bd8565b60405180910390a2505050565b600080600084118015610adf57506000548411155b610b1e576040517f08c379a0000000000000000000000000000000000000000000000000000000008152600401610b1590612251565b60405180910390fd5b60006001600086815260200190815260200160002090508060060160008573ffffffffffffffffffffffffffffffffffffffff1673ffffffffffffffffffffffffffffffffffffffff168152602001908152602001600020548160070160008673ffffffffffffffffffffffffffffffffffffffff1673ffffffffffffffffffffffffffffffffffffffff16815260200190815260200160002060009054906101000a900460ff1692509250509250929050565b60006060600080600080600087118015610bee57506000548711155b610c2d576040517f08c379a0000000000000000000000000000000000000000000000000000000008152600401610c2490612251565b60405180910390fd5b60006001600089815260200190815260200160002090508060000160009054906101000a900473ffffffffffffffffffffffffffffffffffffffff16816001018260020154836003015484600401548560050160009054906101000a900460ff16848054610c9a906128dd565b80601f0160208091040260200160405190810160405280929190818152602001828054610cc6906128dd565b8015610d135780601f10610ce857610100808354040283529160200191610d13565b820191906000526020600020905b815481529060010190602001808311610cf657829003601f168201915b505050505094509650965096509650965096505091939550919395565b606080606080606080606060005467ffffffffffffffff811115610d5757610d56611a10565b5b604051908082528060200260200182016040528015610d855781602001602082028036833780820191505090505b50965060005467ffffffffffffffff811115610da457610da3611a10565b5b604051908082528060200260200182016040528015610dd25781602001602082028036833780820191505090505b50955060005467ffffffffffffffff811115610df157610df0611a10565b5b604051908082528060200260200182016040528015610e2457816020015b6060815260200190600190039081610e0f5790505b50945060005467ffffffffffffffff811115610e4357610e42611a10565b5b604051908082528060200260200182016040528015610e715781602001602082028036833780820191505090505b50935060005467ffffffffffffffff811115610e9057610e8f611a10565b5b604051908082528060200260200182016040528015610ebe5781602001602082028036833780820191505090505b50925060005467ffffffffffffffff811115610edd57610edc611a10565b5b604051908082528060200260200182016040528015610f0b5781602001602082028036833780820191505090505b50915060005467ffffffffffffffff811115610f2a57610f29611a10565b5b604051908082528060200260200182016040528015610f585781602001602082028036833780820191505090505b5090506000600190505b60005481116111ea5760006001600083815260200190815260200160002090508189600184610f919190612bf8565b81518110610fa257610fa1612c2c565b5b6020026020010181815250508060000160009054906101000a900473ffffffffffffffffffffffffffffffffffffffff1688600184610fe19190612bf8565b81518110610ff257610ff1612c2c565b5b602002602001019073ffffffffffffffffffffffffffffffffffffffff16908173ffffffffffffffffffffffffffffffffffffffff168152505080600101805461103b906128dd565b80601f0160208091040260200160405190810160405280929190818152602001828054611067906128dd565b80156110b45780601f10611089576101008083540402835291602001916110b4565b820191906000526020600020905b81548152906001019060200180831161109757829003601f168201915b5050505050876001846110c79190612bf8565b815181106110d8576110d7612c2c565b5b60200260200101819052508060020154866001846110f69190612bf8565b8151811061110757611106612c2c565b5b6020026020010181815250508060030154856001846111269190612bf8565b8151811061113757611136612c2c565b5b6020026020010181815250508060040154846001846111569190612bf8565b8151811061116757611166612c2c565b5b6020026020010181815250508060050160009054906101000a900460ff16836001846111939190612bf8565b815181106111a4576111a3612c2c565b5b602002602001019060028111156111be576111bd611d0a565b5b908160028111156111d2576111d1611d0a565b5b815250505080806111e290612866565b915050610f62565b5090919293949596565b60016020528060005260406000206000915090508060000160009054906101000a900473ffffffffffffffffffffffffffffffffffffffff169080600101805461123d906128dd565b80601f0160208091040260200160405190810160405280929190818152602001828054611269906128dd565b80156112b65780601f1061128b576101008083540402835291602001916112b6565b820191906000526020600020905b81548152906001019060200180831161129957829003601f168201915b5050505050908060020154908060030154908060040154908060050160009054906101000a900460ff16905086565b6000821180156112f757506000548211155b611336576040517f08c379a000000000000000000000000000000000000000000000000000000000815260040161132d90612251565b60405180910390fd5b60003411611379576040517f08c379a000000000000000000000000000000000000000000000000000000000815260040161137090612ca7565b60405180910390fd5b6000600160008481526020019081526020016000209050806004015442106113d6576040517f08c379a00000000000000000000000000000000000000000000000000000000081526004016113cd90612d13565b60405180910390fd5b600060028111156113ea576113e9611d0a565b5b8160050160009054906101000a900460ff16600281111561140e5761140d611d0a565b5b1461144e576040517f08c379a0000000000000000000000000000000000000000000000000000000008152600401611445906123e1565b60405180910390fd5b811561147457348160020160008282546114689190612606565b92505081905550611490565b348160030160008282546114889190612606565b925050819055505b348160060160003373ffffffffffffffffffffffffffffffffffffffff1673ffffffffffffffffffffffffffffffffffffffff16815260200190815260200160002060008282546114e19190612606565b92505081905550818160070160003373ffffffffffffffffffffffffffffffffffffffff1673ffffffffffffffffffffffffffffffffffffffff16815260200190815260200160002060006101000a81548160ff021916908315150217905550827f6c4c673de56fc2f5caa6b45750bd06edab043c7fbf14004f87cebeec9d72bf2860405161156f90612d7f565b60405180910390a2505050565b6000808211801561158f57506000548211155b6115ce576040517f08c379a00000000000000000000000000000000000000000000000000000000081526004016115c590612251565b60405180910390fd5b6001600083815260200190815260200160002060050160009054906101000a900460ff169050919050565b60005481565b6000808311801561161257506000548311155b611651576040517f08c379a000000000000000000000000000000000000000000000000000000000815260040161164890612251565b60405180910390fd5b60006001600085815260200190815260200160002090506000600281111561167c5761167b611d0a565b5b8160050160009054906101000a900460ff1660028111156116a05761169f611d0a565b5b036116e0576040517f08c379a00000000000000000000000000000000000000000000000000000000081526004016116d7906124b9565b60405180910390fd5b60008160060160008573ffffffffffffffffffffffffffffffffffffffff1673ffffffffffffffffffffffffffffffffffffffff16815260200190815260200160002054905060008103611739576000925050506118f7565b60006001600281111561174f5761174e611d0a565b5b8360050160009054906101000a900460ff16600281111561177357611772611d0a565b5b1480156117cb57508260070160008673ffffffffffffffffffffffffffffffffffffffff1673ffffffffffffffffffffffffffffffffffffffff16815260200190815260200160002060009054906101000a900460ff165b8061186257506002808111156117e4576117e3611d0a565b5b8360050160009054906101000a900460ff16600281111561180857611807611d0a565b5b14801561186157508260070160008673ffffffffffffffffffffffffffffffffffffffff1673ffffffffffffffffffffffffffffffffffffffff16815260200190815260200160002060009054906101000a900460ff16155b5b90508061187557600093505050506118f7565b60006001600281111561188b5761188a611d0a565b5b8460050160009054906101000a900460ff1660028111156118af576118ae611d0a565b5b146118be5783600301546118c4565b83600201545b905080846003015485600201546118db9190612606565b846118e6919061263a565b6118f091906126ab565b9450505050505b92915050565b60008054905090565b6000604051905090565b600080fd5b600080fd5b6000819050919050565b61192d8161191a565b811461193857600080fd5b50565b60008135905061194a81611924565b92915050565b60008115159050919050565b61196581611950565b811461197057600080fd5b50565b6000813590506119828161195c565b92915050565b6000806040838503121561199f5761199e611910565b5b60006119ad8582860161193b565b92505060206119be85828601611973565b9150509250929050565b6000602082840312156119de576119dd611910565b5b60006119ec8482850161193b565b91505092915050565b600080fd5b600080fd5b6000601f19601f8301169050919050565b7f4e487b7100000000000000000000000000000000000000000000000000000000600052604160045260246000fd5b611a48826119ff565b810181811067ffffffffffffffff82111715611a6757611a66611a10565b5b80604052505050565b6000611a7a611906565b9050611a868282611a3f565b919050565b600067ffffffffffffffff821115611aa657611aa5611a10565b5b611aaf826119ff565b9050602081019050919050565b82818337600083830152505050565b6000611ade611ad984611a8b565b611a70565b905082815260208101848484011115611afa57611af96119fa565b5b611b05848285611abc565b509392505050565b600082601f830112611b2257611b216119f5565b5b8135611b32848260208601611acb565b91505092915050565b60008060408385031215611b5257611b51611910565b5b600083013567ffffffffffffffff811115611b7057611b6f611915565b5b611b7c85828601611b0d565b9250506020611b8d8582860161193b565b9150509250929050565b600073ffffffffffffffffffffffffffffffffffffffff82169050919050565b6000611bc282611b97565b9050919050565b611bd281611bb7565b8114611bdd57600080fd5b50565b600081359050611bef81611bc9565b92915050565b60008060408385031215611c0c57611c0b611910565b5b6000611c1a8582860161193b565b9250506020611c2b85828601611be0565b9150509250929050565b611c3e8161191a565b82525050565b611c4d81611950565b82525050565b6000604082019050611c686000830185611c35565b611c756020830184611c44565b9392505050565b611c8581611bb7565b82525050565b600081519050919050565b600082825260208201905092915050565b60005b83811015611cc5578082015181840152602081019050611caa565b60008484015250505050565b6000611cdc82611c8b565b611ce68185611c96565b9350611cf6818560208601611ca7565b611cff816119ff565b840191505092915050565b7f4e487b7100000000000000000000000000000000000000000000000000000000600052602160045260246000fd5b60038110611d4a57611d49611d0a565b5b50565b6000819050611d5b82611d39565b919050565b6000611d6b82611d4d565b9050919050565b611d7b81611d60565b82525050565b600060c082019050611d966000830189611c7c565b8181036020830152611da88188611cd1565b9050611db76040830187611c35565b611dc46060830186611c35565b611dd16080830185611c35565b611dde60a0830184611d72565b979650505050505050565b600081519050919050565b600082825260208201905092915050565b6000819050602082019050919050565b611e1e8161191a565b82525050565b6000611e308383611e15565b60208301905092915050565b6000602082019050919050565b6000611e5482611de9565b611e5e8185611df4565b9350611e6983611e05565b8060005b83811015611e9a578151611e818882611e24565b9750611e8c83611e3c565b925050600181019050611e6d565b5085935050505092915050565b600081519050919050565b600082825260208201905092915050565b6000819050602082019050919050565b611edc81611bb7565b82525050565b6000611eee8383611ed3565b60208301905092915050565b6000602082019050919050565b6000611f1282611ea7565b611f1c8185611eb2565b9350611f2783611ec3565b8060005b83811015611f58578151611f3f8882611ee2565b9750611f4a83611efa565b925050600181019050611f2b565b5085935050505092915050565b600081519050919050565b600082825260208201905092915050565b6000819050602082019050919050565b600082825260208201905092915050565b6000611fad82611c8b565b611fb78185611f91565b9350611fc7818560208601611ca7565b611fd0816119ff565b840191505092915050565b6000611fe78383611fa2565b905092915050565b6000602082019050919050565b600061200782611f65565b6120118185611f70565b93508360208202850161202385611f81565b8060005b8581101561205f57848403895281516120408582611fdb565b945061204b83611fef565b925060208a01995050600181019050612027565b50829750879550505050505092915050565b600081519050919050565b600082825260208201905092915050565b6000819050602082019050919050565b6120a681611d60565b82525050565b60006120b8838361209d565b60208301905092915050565b6000602082019050919050565b60006120dc82612071565b6120e6818561207c565b93506120f18361208d565b8060005b8381101561212257815161210988826120ac565b9750612114836120c4565b9250506001810190506120f5565b5085935050505092915050565b600060e0820190508181036000830152612149818a611e49565b9050818103602083015261215d8189611f07565b905081810360408301526121718188611ffc565b905081810360608301526121858187611e49565b905081810360808301526121998186611e49565b905081810360a08301526121ad8185611e49565b905081810360c08301526121c181846120d1565b905098975050505050505050565b60006020820190506121e46000830184611d72565b92915050565b60006020820190506121ff6000830184611c35565b92915050565b7f496e76616c6964206d61726b6574204944000000000000000000000000000000600082015250565b600061223b601183611c96565b915061224682612205565b602082019050919050565b6000602082019050818103600083015261226a8161222e565b9050919050565b7f4f6e6c7920746865206d61726b6574206f776e65722063616e207265736f6c7660008201527f6500000000000000000000000000000000000000000000000000000000000000602082015250565b60006122cd602183611c96565b91506122d882612271565b604082019050919050565b600060208201905081810360008301526122fc816122c0565b9050919050565b7f43616e6e6f74207265736f6c7665206d61726b6574206265666f726520656e6460008201527f2064617465000000000000000000000000000000000000000000000000000000602082015250565b600061235f602583611c96565b915061236a82612303565b604082019050919050565b6000602082019050818103600083015261238e81612352565b9050919050565b7f4d61726b657420616c7265616479207265736f6c766564000000000000000000600082015250565b60006123cb601783611c96565b91506123d682612395565b602082019050919050565b600060208201905081810360008301526123fa816123be565b9050919050565b7f5265736f6c766564000000000000000000000000000000000000000000000000600082015250565b6000612437600883611c96565b915061244282612401565b602082019050919050565b600060208201905081810360008301526124668161242a565b9050919050565b7f4d61726b6574206e6f7420796574207265736f6c766564000000000000000000600082015250565b60006124a3601783611c96565b91506124ae8261246d565b602082019050919050565b600060208201905081810360008301526124d281612496565b9050919050565b7f4e6f207374616b65206d61646520627920757365720000000000000000000000600082015250565b600061250f601583611c96565b915061251a826124d9565b602082019050919050565b6000602082019050818103600083015261253e81612502565b9050919050565b7f5573657220646964206e6f74207374616b65206f6e207468652077696e6e696e60008201527f67206f7574636f6d650000000000000000000000000000000000000000000000602082015250565b60006125a1602983611c96565b91506125ac82612545565b604082019050919050565b600060208201905081810360008301526125d081612594565b9050919050565b7f4e487b7100000000000000000000000000000000000000000000000000000000600052601160045260246000fd5b60006126118261191a565b915061261c8361191a565b9250828201905080821115612634576126336125d7565b5b92915050565b60006126458261191a565b91506126508361191a565b925082820261265e8161191a565b91508282048414831517612675576126746125d7565b5b5092915050565b7f4e487b7100000000000000000000000000000000000000000000000000000000600052601260045260246000fd5b60006126b68261191a565b91506126c18361191a565b9250826126d1576126d061267c565b5b828204905092915050565b600081905092915050565b50565b60006126f76000836126dc565b9150612702826126e7565b600082019050919050565b6000612718826126ea565b9150819050919050565b7f4661696c656420746f2073656e642077696e6e696e6773000000000000000000600082015250565b6000612758601783611c96565b915061276382612722565b602082019050919050565b600060208201905081810360008301526127878161274b565b9050919050565b7f57696e6e696e6773436c61696d65640000000000000000000000000000000000600082015250565b60006127c4600f83611c96565b91506127cf8261278e565b602082019050919050565b600060208201905081810360008301526127f3816127b7565b9050919050565b7f456e642064617465206d75737420626520696e20746865206675747572650000600082015250565b6000612830601e83611c96565b915061283b826127fa565b602082019050919050565b6000602082019050818103600083015261285f81612823565b9050919050565b60006128718261191a565b91507fffffffffffffffffffffffffffffffffffffffffffffffffffffffffffffffff82036128a3576128a26125d7565b5b600182019050919050565b7f4e487b7100000000000000000000000000000000000000000000000000000000600052602260045260246000fd5b600060028204905060018216806128f557607f821691505b602082108103612908576129076128ae565b5b50919050565b60008190508160005260206000209050919050565b60006020601f8301049050919050565b600082821b905092915050565b6000600883026129707fffffffffffffffffffffffffffffffffffffffffffffffffffffffffffffffff82612933565b61297a8683612933565b95508019841693508086168417925050509392505050565b6000819050919050565b60006129b76129b26129ad8461191a565b612992565b61191a565b9050919050565b6000819050919050565b6129d18361299c565b6129e56129dd826129be565b848454612940565b825550505050565b600090565b6129fa6129ed565b612a058184846129c8565b505050565b5b81811015612a2957612a1e6000826129f2565b600181019050612a0b565b5050565b601f821115612a6e57612a3f8161290e565b612a4884612923565b81016020851015612a57578190505b612a6b612a6385612923565b830182612a0a565b50505b505050565b600082821c905092915050565b6000612a9160001984600802612a73565b1980831691505092915050565b6000612aaa8383612a80565b9150826002028217905092915050565b612ac382611c8b565b67ffffffffffffffff811115612adc57612adb611a10565b5b612ae682546128dd565b612af1828285612a2d565b600060209050601f831160018114612b245760008415612b12578287015190505b612b1c8582612a9e565b865550612b84565b601f198416612b328661290e565b60005b82811015612b5a57848901518255600182019150602085019450602081019050612b35565b86831015612b775784890151612b73601f891682612a80565b8355505b6001600288020188555050505b505050505050565b7f4372656174656400000000000000000000000000000000000000000000000000600082015250565b6000612bc2600783611c96565b9150612bcd82612b8c565b602082019050919050565b60006020820190508181036000830152612bf181612bb5565b9050919050565b6000612c038261191a565b9150612c0e8361191a565b9250828203905081811115612c2657612c256125d7565b5b92915050565b7f4e487b7100000000000000000000000000000000000000000000000000000000600052603260045260246000fd5b7f5374616b65206d7573742062652067726561746572207468616e203000000000600082015250565b6000612c91601c83611c96565b9150612c9c82612c5b565b602082019050919050565b60006020820190508181036000830152612cc081612c84565b9050919050565b7f4d61726b65742068617320656e64656400000000000000000000000000000000600082015250565b6000612cfd601083611c96565b9150612d0882612cc7565b602082019050919050565b60006020820190508181036000830152612d2c81612cf0565b9050919050565b7f5374616b65506c61636564000000000000000000000000000000000000000000600082015250565b6000612d69600b83611c96565b9150612d7482612d33565b602082019050919050565b60006020820190508181036000830152612d9881612d5c565b905091905056fea2646970667358221220e9eac440f0dcf0bf4580c0c8e95ba124570b178f1f021f8ccce42ee22bd58fa864736f6c63430008140033",
  "linkReferences": {},
  "deployedLinkReferences": {}
}