{
  "_format": "hh-sol-artifact-1",
  "contractName": "PredictionMarket",
  "sourceName": "contracts/PredictionMarket.sol",
  "abi": [
    {
      "anonymous": false,
      "inputs": [
        {
          "indexed": true,
          "internalType": "uint256",
          "name": "id",
          "type": "uint256"
        },
        {
          "indexed": false,
          "internalType": "string",
          "name": "action",
          "type": "string"
        }
      ],
      "name": "MarketStateChanged",
      "type": "event"
    },
    {
      "inputs": [
        {
          "internalType": "uint256",
          "name": "_marketId",
          "type": "uint256"
        },
        {
          "internalType": "address",
          "name": "_user",
          "type": "address"
        }
      ],
      "name": "calculateWinnings",
      "outputs": [
        {
          "internalType": "uint256",
          "name": "",
          "type": "uint256"
        }
      ],
      "stateMutability": "view",
      "type": "function"
    },
    {
      "inputs": [
        {
          "internalType": "uint256",
          "name": "_marketId",
          "type": "uint256"
        }
      ],
      "name": "claimWinnings",
      "outputs": [],
      "stateMutability": "nonpayable",
      "type": "function"
    },
    {
      "inputs": [
        {
          "internalType": "string",
          "name": "_question",
          "type": "string"
        },
        {
          "internalType": "uint256",
          "name": "_endDate",
          "type": "uint256"
        }
      ],
      "name": "createMarket",
      "outputs": [],
      "stateMutability": "nonpayable",
      "type": "function"
    },
    {
      "inputs": [],
      "name": "getAllMarketDetails",
      "outputs": [
        {
          "components": [
            {
              "internalType": "address",
              "name": "owner",
              "type": "address"
            },
            {
              "internalType": "string",
              "name": "question",
              "type": "string"
            },
            {
              "internalType": "uint256",
              "name": "totalYesStake",
              "type": "uint256"
            },
            {
              "internalType": "uint256",
              "name": "totalNoStake",
              "type": "uint256"
            },
            {
              "internalType": "uint256",
              "name": "endDate",
              "type": "uint256"
            },
            {
              "internalType": "enum PredictionMarket.Outcome",
              "name": "outcome",
              "type": "uint8"
            }
          ],
          "internalType": "struct PredictionMarket.MarketDetails[]",
          "name": "",
          "type": "tuple[]"
        }
      ],
      "stateMutability": "view",
      "type": "function"
    },
    {
      "inputs": [
        {
          "internalType": "uint256",
          "name": "_marketId",
          "type": "uint256"
        }
      ],
      "name": "getMarketDetails",
      "outputs": [
        {
          "internalType": "address",
          "name": "owner",
          "type": "address"
        },
        {
          "internalType": "string",
          "name": "question",
          "type": "string"
        },
        {
          "internalType": "uint256",
          "name": "totalYesStake",
          "type": "uint256"
        },
        {
          "internalType": "uint256",
          "name": "totalNoStake",
          "type": "uint256"
        },
        {
          "internalType": "uint256",
          "name": "endDate",
          "type": "uint256"
        },
        {
          "internalType": "enum PredictionMarket.Outcome",
          "name": "outcome",
          "type": "uint8"
        }
      ],
      "stateMutability": "view",
      "type": "function"
    },
    {
      "inputs": [
        {
          "internalType": "uint256",
          "name": "_marketId",
          "type": "uint256"
        }
      ],
      "name": "getMarketOutcome",
      "outputs": [
        {
          "internalType": "enum PredictionMarket.Outcome",
          "name": "",
          "type": "uint8"
        }
      ],
      "stateMutability": "view",
      "type": "function"
    },
    {
      "inputs": [
        {
          "internalType": "uint256",
          "name": "_marketId",
          "type": "uint256"
        },
        {
          "internalType": "address",
          "name": "_user",
          "type": "address"
        }
      ],
      "name": "getUserStake",
      "outputs": [
        {
          "internalType": "uint256",
          "name": "stake",
          "type": "uint256"
        },
        {
          "internalType": "bool",
          "name": "votedYes",
          "type": "bool"
        }
      ],
      "stateMutability": "view",
      "type": "function"
    },
    {
      "inputs": [],
      "name": "marketCount",
      "outputs": [
        {
          "internalType": "uint256",
          "name": "",
          "type": "uint256"
        }
      ],
      "stateMutability": "view",
      "type": "function"
    },
    {
      "inputs": [
        {
          "internalType": "uint256",
          "name": "",
          "type": "uint256"
        }
      ],
      "name": "markets",
      "outputs": [
        {
          "internalType": "address",
          "name": "owner",
          "type": "address"
        },
        {
          "internalType": "string",
          "name": "question",
          "type": "string"
        },
        {
          "internalType": "uint256",
          "name": "totalYesStake",
          "type": "uint256"
        },
        {
          "internalType": "uint256",
          "name": "totalNoStake",
          "type": "uint256"
        },
        {
          "internalType": "uint256",
          "name": "endDate",
          "type": "uint256"
        },
        {
          "internalType": "enum PredictionMarket.Outcome",
          "name": "outcome",
          "type": "uint8"
        }
      ],
      "stateMutability": "view",
      "type": "function"
    },
    {
      "inputs": [
        {
          "internalType": "uint256",
          "name": "_marketId",
          "type": "uint256"
        },
        {
          "internalType": "bool",
          "name": "_prediction",
          "type": "bool"
        }
      ],
      "name": "placeStake",
      "outputs": [],
      "stateMutability": "payable",
      "type": "function"
    },
    {
      "inputs": [
        {
          "internalType": "uint256",
          "name": "_marketId",
          "type": "uint256"
        },
        {
          "internalType": "bool",
          "name": "_outcome",
          "type": "bool"
        }
      ],
      "name": "resolveMarket",
      "outputs": [],
      "stateMutability": "nonpayable",
      "type": "function"
    }
  ],
  "bytecode": "0x608060405234801561001057600080fd5b5061297b806100206000396000f3fe60806040526004361061009c5760003560e01c8063b1283e7711610064578063b1283e771461019c578063cc98ba58146101de578063d1145f10146101fa578063e2889e5a14610237578063ec97908214610262578063f15cc4061461028d5761009c565b806357bde446146100a1578063677bd9ff146100ca578063883c84c1146100f35780639626a2301461011c578063b06c1ba31461015a575b600080fd5b3480156100ad57600080fd5b506100c860048036038101906100c39190611730565b6102ca565b005b3480156100d657600080fd5b506100f160048036038101906100ec9190611770565b6104f7565b005b3480156100ff57600080fd5b5061011a600480360381019061011591906118e3565b610982565b005b34801561012857600080fd5b50610143600480360381019061013e919061199d565b610a8e565b6040516101519291906119fb565b60405180910390f35b34801561016657600080fd5b50610181600480360381019061017c9190611770565b610b96565b60405161019396959493929190611b29565b60405180910390f35b3480156101a857600080fd5b506101c360048036038101906101be9190611770565b610cf4565b6040516101d596959493929190611b29565b60405180910390f35b6101f860048036038101906101f39190611730565b610de5565b005b34801561020657600080fd5b50610221600480360381019061021c9190611770565b61107c565b60405161022e9190611b91565b60405180910390f35b34801561024357600080fd5b5061024c6110f9565b6040516102599190611d6e565b60405180910390f35b34801561026e57600080fd5b506102776111b2565b6040516102849190611d90565b60405180910390f35b34801561029957600080fd5b506102b460048036038101906102af919061199d565b6111b8565b6040516102c19190611d90565b60405180910390f35b6000821180156102dc57506000548211155b61031b576040517f08c379a000000000000000000000000000000000000000000000000000000000815260040161031290611df7565b60405180910390fd5b60006001600084815260200190815260200160002090508060000160009054906101000a900473ffffffffffffffffffffffffffffffffffffffff1673ffffffffffffffffffffffffffffffffffffffff163373ffffffffffffffffffffffffffffffffffffffff16146103c4576040517f08c379a00000000000000000000000000000000000000000000000000000000081526004016103bb90611e89565b60405180910390fd5b8060040154421161040a576040517f08c379a000000000000000000000000000000000000000000000000000000000815260040161040190611f1b565b60405180910390fd5b6000600281111561041e5761041d611ab2565b5b8160050160009054906101000a900460ff16600281111561044257610441611ab2565b5b14610482576040517f08c379a000000000000000000000000000000000000000000000000000000000815260040161047990611f87565b60405180910390fd5b8161048e576002610491565b60015b8160050160006101000a81548160ff021916908360028111156104b7576104b6611ab2565b5b0217905550827f6c4c673de56fc2f5caa6b45750bd06edab043c7fbf14004f87cebeec9d72bf286040516104ea90611ff3565b60405180910390a2505050565b60008111801561050957506000548111155b610548576040517f08c379a000000000000000000000000000000000000000000000000000000000815260040161053f90611df7565b60405180910390fd5b60006001600083815260200190815260200160002090506000600281111561057357610572611ab2565b5b8160050160009054906101000a900460ff16600281111561059757610596611ab2565b5b036105d7576040517f08c379a00000000000000000000000000000000000000000000000000000000081526004016105ce9061205f565b60405180910390fd5b600033905060008260060160008373ffffffffffffffffffffffffffffffffffffffff1673ffffffffffffffffffffffffffffffffffffffff16815260200190815260200160002054905060008111610665576040517f08c379a000000000000000000000000000000000000000000000000000000000815260040161065c906120cb565b60405180910390fd5b60006001600281111561067b5761067a611ab2565b5b8460050160009054906101000a900460ff16600281111561069f5761069e611ab2565b5b1480156106f757508360070160008473ffffffffffffffffffffffffffffffffffffffff1673ffffffffffffffffffffffffffffffffffffffff16815260200190815260200160002060009054906101000a900460ff165b8061078e57506002808111156107105761070f611ab2565b5b8460050160009054906101000a900460ff16600281111561073457610733611ab2565b5b14801561078d57508360070160008473ffffffffffffffffffffffffffffffffffffffff1673ffffffffffffffffffffffffffffffffffffffff16815260200190815260200160002060009054906101000a900460ff16155b5b9050806107d0576040517f08c379a00000000000000000000000000000000000000000000000000000000081526004016107c79061215d565b60405180910390fd5b6000600160028111156107e6576107e5611ab2565b5b8560050160009054906101000a900460ff16600281111561080a57610809611ab2565b5b1461081957846003015461081f565b84600201545b90506000818660030154876002015461083891906121ac565b8561084391906121e0565b61084d9190612251565b905060008660060160008773ffffffffffffffffffffffffffffffffffffffff1673ffffffffffffffffffffffffffffffffffffffff1681526020019081526020016000208190555060008573ffffffffffffffffffffffffffffffffffffffff16826040516108bc906122b3565b60006040518083038185875af1925050503d80600081146108f9576040519150601f19603f3d011682016040523d82523d6000602084013e6108fe565b606091505b5050905080610942576040517f08c379a000000000000000000000000000000000000000000000000000000000815260040161093990612314565b60405180910390fd5b877f6c4c673de56fc2f5caa6b45750bd06edab043c7fbf14004f87cebeec9d72bf2860405161097090612380565b60405180910390a25050505050505050565b4281116109c4576040517f08c379a00000000000000000000000000000000000000000000000000000000081526004016109bb906123ec565b60405180910390fd5b6000808154809291906109d69061240c565b9190505550600060016000805481526020019081526020016000209050338160000160006101000a81548173ffffffffffffffffffffffffffffffffffffffff021916908373ffffffffffffffffffffffffffffffffffffffff16021790555082816001019081610a479190612660565b508181600401819055506000547f6c4c673de56fc2f5caa6b45750bd06edab043c7fbf14004f87cebeec9d72bf28604051610a819061277e565b60405180910390a2505050565b600080600084118015610aa357506000548411155b610ae2576040517f08c379a0000000000000000000000000000000000000000000000000000000008152600401610ad990611df7565b60405180910390fd5b60006001600086815260200190815260200160002090508060060160008573ffffffffffffffffffffffffffffffffffffffff1673ffffffffffffffffffffffffffffffffffffffff168152602001908152602001600020548160070160008673ffffffffffffffffffffffffffffffffffffffff1673ffffffffffffffffffffffffffffffffffffffff16815260200190815260200160002060009054906101000a900460ff1692509250509250929050565b60006060600080600080600087118015610bb257506000548711155b610bf1576040517f08c379a0000000000000000000000000000000000000000000000000000000008152600401610be890611df7565b60405180910390fd5b60006001600089815260200190815260200160002090508060000160009054906101000a900473ffffffffffffffffffffffffffffffffffffffff16816001018260020154836003015484600401548560050160009054906101000a900460ff16848054610c5e90612483565b80601f0160208091040260200160405190810160405280929190818152602001828054610c8a90612483565b8015610cd75780601f10610cac57610100808354040283529160200191610cd7565b820191906000526020600020905b815481529060010190602001808311610cba57829003601f168201915b505050505094509650965096509650965096505091939550919395565b60016020528060005260406000206000915090508060000160009054906101000a900473ffffffffffffffffffffffffffffffffffffffff1690806001018054610d3d90612483565b80601f0160208091040260200160405190810160405280929190818152602001828054610d6990612483565b8015610db65780601f10610d8b57610100808354040283529160200191610db6565b820191906000526020600020905b815481529060010190602001808311610d9957829003601f168201915b5050505050908060020154908060030154908060040154908060050160009054906101000a900460ff16905086565b600082118015610df757506000548211155b610e36576040517f08c379a0000000000000000000000000000000000000000000000000000000008152600401610e2d90611df7565b60405180910390fd5b60003411610e79576040517f08c379a0000000000000000000000000000000000000000000000000000000008152600401610e70906127ea565b60405180910390fd5b600060016000848152602001908152602001600020905080600401544210610ed6576040517f08c379a0000000000000000000000000000000000000000000000000000000008152600401610ecd90612856565b60405180910390fd5b60006002811115610eea57610ee9611ab2565b5b8160050160009054906101000a900460ff166002811115610f0e57610f0d611ab2565b5b14610f4e576040517f08c379a0000000000000000000000000000000000000000000000000000000008152600401610f4590611f87565b60405180910390fd5b8115610f745734816002016000828254610f6891906121ac565b92505081905550610f90565b34816003016000828254610f8891906121ac565b925050819055505b348160060160003373ffffffffffffffffffffffffffffffffffffffff1673ffffffffffffffffffffffffffffffffffffffff1681526020019081526020016000206000828254610fe191906121ac565b92505081905550818160070160003373ffffffffffffffffffffffffffffffffffffffff1673ffffffffffffffffffffffffffffffffffffffff16815260200190815260200160002060006101000a81548160ff021916908315150217905550827f6c4c673de56fc2f5caa6b45750bd06edab043c7fbf14004f87cebeec9d72bf2860405161106f906128c2565b60405180910390a2505050565b6000808211801561108f57506000548211155b6110ce576040517f08c379a00000000000000000000000000000000000000000000000000000000081526004016110c590611df7565b60405180910390fd5b6001600083815260200190815260200160002060050160009054906101000a900460ff169050919050565b60606000805467ffffffffffffffff811115611118576111176117b8565b5b60405190808252806020026020018201604052801561115157816020015b61113e611650565b8152602001906001900390816111365790505b5090506000600190505b60005481116111aa5761116d816114b6565b8260018361117b91906128e2565b8151811061118c5761118b612916565b5b602002602001018190525080806111a29061240c565b91505061115b565b508091505090565b60005481565b600080831180156111cb57506000548311155b61120a576040517f08c379a000000000000000000000000000000000000000000000000000000000815260040161120190611df7565b60405180910390fd5b60006001600085815260200190815260200160002090506000600281111561123557611234611ab2565b5b8160050160009054906101000a900460ff16600281111561125957611258611ab2565b5b03611299576040517f08c379a00000000000000000000000000000000000000000000000000000000081526004016112909061205f565b60405180910390fd5b60008160060160008573ffffffffffffffffffffffffffffffffffffffff1673ffffffffffffffffffffffffffffffffffffffff168152602001908152602001600020549050600081036112f2576000925050506114b0565b60006001600281111561130857611307611ab2565b5b8360050160009054906101000a900460ff16600281111561132c5761132b611ab2565b5b14801561138457508260070160008673ffffffffffffffffffffffffffffffffffffffff1673ffffffffffffffffffffffffffffffffffffffff16815260200190815260200160002060009054906101000a900460ff165b8061141b575060028081111561139d5761139c611ab2565b5b8360050160009054906101000a900460ff1660028111156113c1576113c0611ab2565b5b14801561141a57508260070160008673ffffffffffffffffffffffffffffffffffffffff1673ffffffffffffffffffffffffffffffffffffffff16815260200190815260200160002060009054906101000a900460ff16155b5b90508061142e57600093505050506114b0565b60006001600281111561144457611443611ab2565b5b8460050160009054906101000a900460ff16600281111561146857611467611ab2565b5b1461147757836003015461147d565b83600201545b9050808460030154856002015461149491906121ac565b8461149f91906121e0565b6114a99190612251565b9450505050505b92915050565b6114be611650565b6000821180156114d057506000548211155b61150f576040517f08c379a000000000000000000000000000000000000000000000000000000000815260040161150690611df7565b60405180910390fd5b60006001600084815260200190815260200160002090506040518060c001604052808260000160009054906101000a900473ffffffffffffffffffffffffffffffffffffffff1673ffffffffffffffffffffffffffffffffffffffff16815260200182600101805461158090612483565b80601f01602080910402602001604051908101604052809291908181526020018280546115ac90612483565b80156115f95780601f106115ce576101008083540402835291602001916115f9565b820191906000526020600020905b8154815290600101906020018083116115dc57829003601f168201915b505050505081526020018260020154815260200182600301548152602001826004015481526020018260050160009054906101000a900460ff16600281111561164557611644611ab2565b5b815250915050919050565b6040518060c00160405280600073ffffffffffffffffffffffffffffffffffffffff16815260200160608152602001600081526020016000815260200160008152602001600060028111156116a8576116a7611ab2565b5b81525090565b6000604051905090565b600080fd5b600080fd5b6000819050919050565b6116d5816116c2565b81146116e057600080fd5b50565b6000813590506116f2816116cc565b92915050565b60008115159050919050565b61170d816116f8565b811461171857600080fd5b50565b60008135905061172a81611704565b92915050565b60008060408385031215611747576117466116b8565b5b6000611755858286016116e3565b92505060206117668582860161171b565b9150509250929050565b600060208284031215611786576117856116b8565b5b6000611794848285016116e3565b91505092915050565b600080fd5b600080fd5b6000601f19601f8301169050919050565b7f4e487b7100000000000000000000000000000000000000000000000000000000600052604160045260246000fd5b6117f0826117a7565b810181811067ffffffffffffffff8211171561180f5761180e6117b8565b5b80604052505050565b60006118226116ae565b905061182e82826117e7565b919050565b600067ffffffffffffffff82111561184e5761184d6117b8565b5b611857826117a7565b9050602081019050919050565b82818337600083830152505050565b600061188661188184611833565b611818565b9050828152602081018484840111156118a2576118a16117a2565b5b6118ad848285611864565b509392505050565b600082601f8301126118ca576118c961179d565b5b81356118da848260208601611873565b91505092915050565b600080604083850312156118fa576118f96116b8565b5b600083013567ffffffffffffffff811115611918576119176116bd565b5b611924858286016118b5565b9250506020611935858286016116e3565b9150509250929050565b600073ffffffffffffffffffffffffffffffffffffffff82169050919050565b600061196a8261193f565b9050919050565b61197a8161195f565b811461198557600080fd5b50565b60008135905061199781611971565b92915050565b600080604083850312156119b4576119b36116b8565b5b60006119c2858286016116e3565b92505060206119d385828601611988565b9150509250929050565b6119e6816116c2565b82525050565b6119f5816116f8565b82525050565b6000604082019050611a1060008301856119dd565b611a1d60208301846119ec565b9392505050565b611a2d8161195f565b82525050565b600081519050919050565b600082825260208201905092915050565b60005b83811015611a6d578082015181840152602081019050611a52565b60008484015250505050565b6000611a8482611a33565b611a8e8185611a3e565b9350611a9e818560208601611a4f565b611aa7816117a7565b840191505092915050565b7f4e487b7100000000000000000000000000000000000000000000000000000000600052602160045260246000fd5b60038110611af257611af1611ab2565b5b50565b6000819050611b0382611ae1565b919050565b6000611b1382611af5565b9050919050565b611b2381611b08565b82525050565b600060c082019050611b3e6000830189611a24565b8181036020830152611b508188611a79565b9050611b5f60408301876119dd565b611b6c60608301866119dd565b611b7960808301856119dd565b611b8660a0830184611b1a565b979650505050505050565b6000602082019050611ba66000830184611b1a565b92915050565b600081519050919050565b600082825260208201905092915050565b6000819050602082019050919050565b611be18161195f565b82525050565b600082825260208201905092915050565b6000611c0382611a33565b611c0d8185611be7565b9350611c1d818560208601611a4f565b611c26816117a7565b840191505092915050565b611c3a816116c2565b82525050565b611c4981611b08565b82525050565b600060c083016000830151611c676000860182611bd8565b5060208301518482036020860152611c7f8282611bf8565b9150506040830151611c946040860182611c31565b506060830151611ca76060860182611c31565b506080830151611cba6080860182611c31565b5060a0830151611ccd60a0860182611c40565b508091505092915050565b6000611ce48383611c4f565b905092915050565b6000602082019050919050565b6000611d0482611bac565b611d0e8185611bb7565b935083602082028501611d2085611bc8565b8060005b85811015611d5c5784840389528151611d3d8582611cd8565b9450611d4883611cec565b925060208a01995050600181019050611d24565b50829750879550505050505092915050565b60006020820190508181036000830152611d888184611cf9565b905092915050565b6000602082019050611da560008301846119dd565b92915050565b7f496e76616c6964206d61726b6574204944000000000000000000000000000000600082015250565b6000611de1601183611a3e565b9150611dec82611dab565b602082019050919050565b60006020820190508181036000830152611e1081611dd4565b9050919050565b7f4f6e6c7920746865206d61726b6574206f776e65722063616e207265736f6c7660008201527f6500000000000000000000000000000000000000000000000000000000000000602082015250565b6000611e73602183611a3e565b9150611e7e82611e17565b604082019050919050565b60006020820190508181036000830152611ea281611e66565b9050919050565b7f43616e6e6f74207265736f6c7665206d61726b6574206265666f726520656e6460008201527f2064617465000000000000000000000000000000000000000000000000000000602082015250565b6000611f05602583611a3e565b9150611f1082611ea9565b604082019050919050565b60006020820190508181036000830152611f3481611ef8565b9050919050565b7f4d61726b657420616c7265616479207265736f6c766564000000000000000000600082015250565b6000611f71601783611a3e565b9150611f7c82611f3b565b602082019050919050565b60006020820190508181036000830152611fa081611f64565b9050919050565b7f5265736f6c766564000000000000000000000000000000000000000000000000600082015250565b6000611fdd600883611a3e565b9150611fe882611fa7565b602082019050919050565b6000602082019050818103600083015261200c81611fd0565b9050919050565b7f4d61726b6574206e6f7420796574207265736f6c766564000000000000000000600082015250565b6000612049601783611a3e565b915061205482612013565b602082019050919050565b600060208201905081810360008301526120788161203c565b9050919050565b7f4e6f207374616b65206d61646520627920757365720000000000000000000000600082015250565b60006120b5601583611a3e565b91506120c08261207f565b602082019050919050565b600060208201905081810360008301526120e4816120a8565b9050919050565b7f5573657220646964206e6f74207374616b65206f6e207468652077696e6e696e60008201527f67206f7574636f6d650000000000000000000000000000000000000000000000602082015250565b6000612147602983611a3e565b9150612152826120eb565b604082019050919050565b600060208201905081810360008301526121768161213a565b9050919050565b7f4e487b7100000000000000000000000000000000000000000000000000000000600052601160045260246000fd5b60006121b7826116c2565b91506121c2836116c2565b92508282019050808211156121da576121d961217d565b5b92915050565b60006121eb826116c2565b91506121f6836116c2565b9250828202612204816116c2565b9150828204841483151761221b5761221a61217d565b5b5092915050565b7f4e487b7100000000000000000000000000000000000000000000000000000000600052601260045260246000fd5b600061225c826116c2565b9150612267836116c2565b92508261227757612276612222565b5b828204905092915050565b600081905092915050565b50565b600061229d600083612282565b91506122a88261228d565b600082019050919050565b60006122be82612290565b9150819050919050565b7f4661696c656420746f2073656e642077696e6e696e6773000000000000000000600082015250565b60006122fe601783611a3e565b9150612309826122c8565b602082019050919050565b6000602082019050818103600083015261232d816122f1565b9050919050565b7f57696e6e696e6773436c61696d65640000000000000000000000000000000000600082015250565b600061236a600f83611a3e565b915061237582612334565b602082019050919050565b600060208201905081810360008301526123998161235d565b9050919050565b7f456e642064617465206d75737420626520696e20746865206675747572650000600082015250565b60006123d6601e83611a3e565b91506123e1826123a0565b602082019050919050565b60006020820190508181036000830152612405816123c9565b9050919050565b6000612417826116c2565b91507fffffffffffffffffffffffffffffffffffffffffffffffffffffffffffffffff82036124495761244861217d565b5b600182019050919050565b7f4e487b7100000000000000000000000000000000000000000000000000000000600052602260045260246000fd5b6000600282049050600182168061249b57607f821691505b6020821081036124ae576124ad612454565b5b50919050565b60008190508160005260206000209050919050565b60006020601f8301049050919050565b600082821b905092915050565b6000600883026125167fffffffffffffffffffffffffffffffffffffffffffffffffffffffffffffffff826124d9565b61252086836124d9565b95508019841693508086168417925050509392505050565b6000819050919050565b600061255d612558612553846116c2565b612538565b6116c2565b9050919050565b6000819050919050565b61257783612542565b61258b61258382612564565b8484546124e6565b825550505050565b600090565b6125a0612593565b6125ab81848461256e565b505050565b5b818110156125cf576125c4600082612598565b6001810190506125b1565b5050565b601f821115612614576125e5816124b4565b6125ee846124c9565b810160208510156125fd578190505b612611612609856124c9565b8301826125b0565b50505b505050565b600082821c905092915050565b600061263760001984600802612619565b1980831691505092915050565b60006126508383612626565b9150826002028217905092915050565b61266982611a33565b67ffffffffffffffff811115612682576126816117b8565b5b61268c8254612483565b6126978282856125d3565b600060209050601f8311600181146126ca57600084156126b8578287015190505b6126c28582612644565b86555061272a565b601f1984166126d8866124b4565b60005b82811015612700578489015182556001820191506020850194506020810190506126db565b8683101561271d5784890151612719601f891682612626565b8355505b6001600288020188555050505b505050505050565b7f4372656174656400000000000000000000000000000000000000000000000000600082015250565b6000612768600783611a3e565b915061277382612732565b602082019050919050565b600060208201905081810360008301526127978161275b565b9050919050565b7f5374616b65206d7573742062652067726561746572207468616e203000000000600082015250565b60006127d4601c83611a3e565b91506127df8261279e565b602082019050919050565b60006020820190508181036000830152612803816127c7565b9050919050565b7f4d61726b65742068617320656e64656400000000000000000000000000000000600082015250565b6000612840601083611a3e565b915061284b8261280a565b602082019050919050565b6000602082019050818103600083015261286f81612833565b9050919050565b7f5374616b65506c61636564000000000000000000000000000000000000000000600082015250565b60006128ac600b83611a3e565b91506128b782612876565b602082019050919050565b600060208201905081810360008301526128db8161289f565b9050919050565b60006128ed826116c2565b91506128f8836116c2565b92508282039050818111156129105761290f61217d565b5b92915050565b7f4e487b7100000000000000000000000000000000000000000000000000000000600052603260045260246000fdfea264697066735822122095e11211c20c1a60ed879dc87b52df80cdc994d6236fe9756f9dca51a3a610bb64736f6c63430008140033",
  "linkReferences": {},
  "deployedLinkReferences": {}
}