{
  "_format": "hh-sol-artifact-1",
  "contractName": "PredictionMarket",
  "sourceName": "contracts/PredictionMarket.sol",
  "abi": [
    {
      "inputs": [
        {
          "internalType": "address",
          "name": "_maciContractAddress",
          "type": "address"
        }
      ],
      "stateMutability": "nonpayable",
      "type": "constructor"
    },
    {
      "anonymous": false,
      "inputs": [
        {
          "indexed": false,
          "internalType": "uint256",
          "name": "_marketId",
          "type": "uint256"
        },
        {
          "indexed": false,
          "internalType": "address",
          "name": "curator",
          "type": "address"
        },
        {
          "indexed": false,
          "internalType": "uint256",
          "name": "curatorShare",
          "type": "uint256"
        }
      ],
      "name": "CuratorFeeClaimed",
      "type": "event"
    },
    {
      "anonymous": false,
      "inputs": [
        {
          "indexed": true,
          "internalType": "uint256",
          "name": "id",
          "type": "uint256"
        },
        {
          "indexed": false,
          "internalType": "enum PredictionMarket.MarketOutcome",
          "name": "proposedOutcome",
          "type": "uint8"
        }
      ],
      "name": "MarketChallenged",
      "type": "event"
    },
    {
      "anonymous": false,
      "inputs": [
        {
          "indexed": true,
          "internalType": "uint256",
          "name": "id",
          "type": "uint256"
        },
        {
          "indexed": false,
          "internalType": "string",
          "name": "question",
          "type": "string"
        },
        {
          "indexed": false,
          "internalType": "uint256",
          "name": "endDate",
          "type": "uint256"
        }
      ],
      "name": "MarketCreated",
      "type": "event"
    },
    {
      "anonymous": false,
      "inputs": [
        {
          "indexed": true,
          "internalType": "uint256",
          "name": "id",
          "type": "uint256"
        },
        {
          "indexed": false,
          "internalType": "enum PredictionMarket.MarketOutcome",
          "name": "outcome",
          "type": "uint8"
        }
      ],
      "name": "MarketResolved",
      "type": "event"
    },
    {
      "anonymous": false,
      "inputs": [
        {
          "indexed": false,
          "internalType": "uint256",
          "name": "marketCount",
          "type": "uint256"
        },
        {
          "indexed": false,
          "internalType": "address",
          "name": "pollContractAddress",
          "type": "address"
        },
        {
          "indexed": false,
          "internalType": "address",
          "name": "messageProcessorContractAddress",
          "type": "address"
        },
        {
          "indexed": false,
          "internalType": "address",
          "name": "tallyContractAddress",
          "type": "address"
        }
      ],
      "name": "PollContractDeployed",
      "type": "event"
    },
    {
      "anonymous": false,
      "inputs": [
        {
          "indexed": true,
          "internalType": "address",
          "name": "user",
          "type": "address"
        }
      ],
      "name": "RegisteredWithMACI",
      "type": "event"
    },
    {
      "anonymous": false,
      "inputs": [
        {
          "indexed": true,
          "internalType": "uint256",
          "name": "id",
          "type": "uint256"
        },
        {
          "indexed": true,
          "internalType": "address",
          "name": "buyer",
          "type": "address"
        },
        {
          "indexed": false,
          "internalType": "uint256",
          "name": "amount",
          "type": "uint256"
        },
        {
          "indexed": false,
          "internalType": "bool",
          "name": "prediction",
          "type": "bool"
        }
      ],
      "name": "VotesBought",
      "type": "event"
    },
    {
      "anonymous": false,
      "inputs": [
        {
          "indexed": true,
          "internalType": "uint256",
          "name": "id",
          "type": "uint256"
        },
        {
          "indexed": true,
          "internalType": "address",
          "name": "claimer",
          "type": "address"
        },
        {
          "indexed": false,
          "internalType": "uint256",
          "name": "amount",
          "type": "uint256"
        }
      ],
      "name": "WinningsClaimed",
      "type": "event"
    },
    {
      "inputs": [
        {
          "internalType": "uint256",
          "name": "_marketId",
          "type": "uint256"
        },
        {
          "internalType": "bool",
          "name": "_prediction",
          "type": "bool"
        },
        {
          "internalType": "bytes",
          "name": "_encryptedVote",
          "type": "bytes"
        }
      ],
      "name": "buyVotes",
      "outputs": [],
      "stateMutability": "payable",
      "type": "function"
    },
    {
      "inputs": [
        {
          "internalType": "uint256",
          "name": "_marketId",
          "type": "uint256"
        }
      ],
      "name": "challengeMarketOutcome",
      "outputs": [],
      "stateMutability": "nonpayable",
      "type": "function"
    },
    {
      "inputs": [],
      "name": "challengePeriod",
      "outputs": [
        {
          "internalType": "uint256",
          "name": "",
          "type": "uint256"
        }
      ],
      "stateMutability": "view",
      "type": "function"
    },
    {
      "inputs": [
        {
          "internalType": "uint256",
          "name": "_marketId",
          "type": "uint256"
        }
      ],
      "name": "claimCuratorFee",
      "outputs": [],
      "stateMutability": "nonpayable",
      "type": "function"
    },
    {
      "inputs": [
        {
          "internalType": "uint256",
          "name": "_marketId",
          "type": "uint256"
        }
      ],
      "name": "claimWinnings",
      "outputs": [],
      "stateMutability": "nonpayable",
      "type": "function"
    },
    {
      "inputs": [
        {
          "internalType": "string",
          "name": "_question",
          "type": "string"
        },
        {
          "internalType": "uint256",
          "name": "_endDate",
          "type": "uint256"
        }
      ],
      "name": "createMarket",
      "outputs": [],
      "stateMutability": "nonpayable",
      "type": "function"
    },
    {
      "inputs": [],
      "name": "curatorFeePercentage",
      "outputs": [
        {
          "internalType": "uint256",
          "name": "",
          "type": "uint256"
        }
      ],
      "stateMutability": "view",
      "type": "function"
    },
    {
      "inputs": [
        {
          "internalType": "uint256",
          "name": "_marketId",
          "type": "uint256"
        },
        {
          "internalType": "bool",
          "name": "_agreeWithOutcome",
          "type": "bool"
        }
      ],
      "name": "curatorVoteOnOutcome",
      "outputs": [],
      "stateMutability": "nonpayable",
      "type": "function"
    },
    {
      "inputs": [
        {
          "internalType": "uint256",
          "name": "_marketId",
          "type": "uint256"
        }
      ],
      "name": "getCuratorAddresses",
      "outputs": [
        {
          "internalType": "address[]",
          "name": "",
          "type": "address[]"
        }
      ],
      "stateMutability": "view",
      "type": "function"
    },
    {
      "inputs": [],
      "name": "lockInPeriod",
      "outputs": [
        {
          "internalType": "uint256",
          "name": "",
          "type": "uint256"
        }
      ],
      "stateMutability": "view",
      "type": "function"
    },
    {
      "inputs": [],
      "name": "maciContractAddress",
      "outputs": [
        {
          "internalType": "address",
          "name": "",
          "type": "address"
        }
      ],
      "stateMutability": "view",
      "type": "function"
    },
    {
      "inputs": [],
      "name": "marketCount",
      "outputs": [
        {
          "internalType": "uint256",
          "name": "",
          "type": "uint256"
        }
      ],
      "stateMutability": "view",
      "type": "function"
    },
    {
      "inputs": [
        {
          "internalType": "uint256",
          "name": "",
          "type": "uint256"
        }
      ],
      "name": "markets",
      "outputs": [
        {
          "internalType": "uint256",
          "name": "id",
          "type": "uint256"
        },
        {
          "internalType": "address",
          "name": "owner",
          "type": "address"
        },
        {
          "internalType": "string",
          "name": "question",
          "type": "string"
        },
        {
          "internalType": "uint256",
          "name": "totalYesVotes",
          "type": "uint256"
        },
        {
          "internalType": "uint256",
          "name": "totalNoVotes",
          "type": "uint256"
        },
        {
          "internalType": "uint256",
          "name": "totalWinnings",
          "type": "uint256"
        },
        {
          "internalType": "enum PredictionMarket.MarketOutcome",
          "name": "outcome",
          "type": "uint8"
        },
        {
          "internalType": "uint256",
          "name": "endDate",
          "type": "uint256"
        },
        {
          "internalType": "uint256",
          "name": "resolvedAt",
          "type": "uint256"
        },
        {
          "internalType": "bool",
          "name": "challenged",
          "type": "bool"
        },
        {
          "internalType": "uint256",
          "name": "curatorYesVotes",
          "type": "uint256"
        },
        {
          "internalType": "uint256",
          "name": "curatorNoVotes",
          "type": "uint256"
        }
      ],
      "stateMutability": "view",
      "type": "function"
    },
    {
      "inputs": [],
      "name": "ownerFeeSharePercentage",
      "outputs": [
        {
          "internalType": "uint256",
          "name": "",
          "type": "uint256"
        }
      ],
      "stateMutability": "view",
      "type": "function"
    },
    {
      "inputs": [],
      "name": "platformFeePercentage",
      "outputs": [
        {
          "internalType": "uint256",
          "name": "",
          "type": "uint256"
        }
      ],
      "stateMutability": "view",
      "type": "function"
    },
    {
      "inputs": [],
      "name": "platformOwner",
      "outputs": [
        {
          "internalType": "address",
          "name": "",
          "type": "address"
        }
      ],
      "stateMutability": "view",
      "type": "function"
    },
    {
      "inputs": [
        {
          "components": [
            {
              "internalType": "uint256",
              "name": "x",
              "type": "uint256"
            },
            {
              "internalType": "uint256",
              "name": "y",
              "type": "uint256"
            }
          ],
          "internalType": "struct PredictionMarket.Pubkey",
          "name": "_pubkey",
          "type": "tuple"
        }
      ],
      "name": "registerWithMACI",
      "outputs": [],
      "stateMutability": "nonpayable",
      "type": "function"
    },
    {
      "inputs": [
        {
          "internalType": "uint256",
          "name": "_marketId",
          "type": "uint256"
        },
        {
          "internalType": "bool",
          "name": "_outcome",
          "type": "bool"
        }
      ],
      "name": "resolveMarket",
      "outputs": [],
      "stateMutability": "nonpayable",
      "type": "function"
    },
    {
      "inputs": [
        {
          "internalType": "address",
          "name": "user",
          "type": "address"
        },
        {
          "internalType": "uint256",
          "name": "voteCount",
          "type": "uint256"
        }
      ],
      "name": "setVoteCountForTest",
      "outputs": [],
      "stateMutability": "nonpayable",
      "type": "function"
    },
    {
      "inputs": [
        {
          "internalType": "address",
          "name": "_user",
          "type": "address"
        },
        {
          "internalType": "bool",
          "name": "_status",
          "type": "bool"
        }
      ],
      "name": "setWorldcoinVerified",
      "outputs": [],
      "stateMutability": "nonpayable",
      "type": "function"
    },
    {
      "inputs": [
        {
          "internalType": "address",
          "name": "",
          "type": "address"
        }
      ],
      "name": "userTotalWinnings",
      "outputs": [
        {
          "internalType": "uint256",
          "name": "",
          "type": "uint256"
        }
      ],
      "stateMutability": "view",
      "type": "function"
    },
    {
      "inputs": [
        {
          "internalType": "address",
          "name": "",
          "type": "address"
        }
      ],
      "name": "userVoteCounts",
      "outputs": [
        {
          "internalType": "uint256",
          "name": "",
          "type": "uint256"
        }
      ],
      "stateMutability": "view",
      "type": "function"
    },
    {
      "inputs": [
        {
          "internalType": "address",
          "name": "",
          "type": "address"
        }
      ],
      "name": "worldcoinVerified",
      "outputs": [
        {
          "internalType": "bool",
          "name": "",
          "type": "bool"
        }
      ],
      "stateMutability": "view",
      "type": "function"
    }
  ],
  "bytecode": "0x60806040526206978060035562093a806004556002600555601460065560056007553480156200002e57600080fd5b50604051620044503803806200445083398181016040528101906200005491906200014e565b33600160006101000a81548173ffffffffffffffffffffffffffffffffffffffff021916908373ffffffffffffffffffffffffffffffffffffffff1602179055506000600281905550806000806101000a81548173ffffffffffffffffffffffffffffffffffffffff021916908373ffffffffffffffffffffffffffffffffffffffff1602179055505062000180565b600080fd5b600073ffffffffffffffffffffffffffffffffffffffff82169050919050565b60006200011682620000e9565b9050919050565b620001288162000109565b81146200013457600080fd5b50565b60008151905062000148816200011d565b92915050565b600060208284031215620001675762000166620000e4565b5b6000620001778482850162000137565b91505092915050565b6142c080620001906000396000f3fe6080604052600436106101405760003560e01c80638266b03d116100b6578063b1283e771161006f578063b1283e7714610449578063cdd78cfc14610491578063d2a3cb32146104bc578063ec979082146104e5578063f3f480d914610510578063f5ed8a9c1461053b57610140565b80638266b03d14610329578063883c84c1146103665780638e325a431461038f57806391878d36146103b8578063a1d827f5146103e1578063af88884c1461040c57610140565b80634df8ccb1116101085780634df8ccb11461023e5780634fdba00914610269578063538953e21461029257806357bde446146102ae578063677bd9ff146102d75780636861244e1461030057610140565b806305377188146101455780630885744214610170578063176f3d0f146101ad57806322ecd296146101ea57806334b8373b14610213575b600080fd5b34801561015157600080fd5b5061015a610566565b60405161016791906125a8565b60405180910390f35b34801561017c57600080fd5b5061019760048036038101906101929190612635565b61056c565b6040516101a491906125a8565b60405180910390f35b3480156101b957600080fd5b506101d460048036038101906101cf9190612635565b610584565b6040516101e1919061267d565b60405180910390f35b3480156101f657600080fd5b50610211600480360381019061020c91906126c4565b6105a4565b005b34801561021f57600080fd5b506102286107d2565b60405161023591906125a8565b60405180910390f35b34801561024a57600080fd5b506102536107d8565b6040516102609190612700565b60405180910390f35b34801561027557600080fd5b50610290600480360381019061028b9190612747565b6107fe565b005b6102ac60048036038101906102a791906127ec565b6108e9565b005b3480156102ba57600080fd5b506102d560048036038101906102d09190612860565b610cde565b005b3480156102e357600080fd5b506102fe60048036038101906102f991906126c4565b611039565b005b34801561030c57600080fd5b5061032760048036038101906103229190612860565b61155b565b005b34801561033557600080fd5b50610350600480360381019061034b9190612635565b611916565b60405161035d91906125a8565b60405180910390f35b34801561037257600080fd5b5061038d600480360381019061038891906129e1565b61192e565b005b34801561039b57600080fd5b506103b660048036038101906103b19190612a92565b611d35565b005b3480156103c457600080fd5b506103df60048036038101906103da91906126c4565b611e67565b005b3480156103ed57600080fd5b506103f6612300565b6040516104039190612700565b60405180910390f35b34801561041857600080fd5b50610433600480360381019061042e91906126c4565b612324565b6040516104409190612b7d565b60405180910390f35b34801561045557600080fd5b50610470600480360381019061046b91906126c4565b6123c8565b6040516104889c9b9a99989796959493929190612c95565b60405180910390f35b34801561049d57600080fd5b506104a66124ea565b6040516104b391906125a8565b60405180910390f35b3480156104c857600080fd5b506104e360048036038101906104de9190612d56565b6124f0565b005b3480156104f157600080fd5b506104fa61257d565b60405161050791906125a8565b60405180910390f35b34801561051c57600080fd5b50610525612583565b60405161053291906125a8565b60405180910390f35b34801561054757600080fd5b50610550612589565b60405161055d91906125a8565b60405180910390f35b60045481565b600a6020528060005260406000206000915090505481565b600b6020528060005260406000206000915054906101000a900460ff1681565b806000811180156105b757506002548111155b6105f6576040517f08c379a00000000000000000000000000000000000000000000000000000000081526004016105ed90612de2565b60405180910390fd5b33600b60008273ffffffffffffffffffffffffffffffffffffffff1673ffffffffffffffffffffffffffffffffffffffff16815260200190815260200160002060009054906101000a900460ff16610683576040517f08c379a000000000000000000000000000000000000000000000000000000000815260040161067a90612e74565b60405180910390fd5b600060086000858152602001908152602001600020905060035481600901546106ac9190612ec3565b4211156106ee576040517f08c379a00000000000000000000000000000000000000000000000000000000081526004016106e590612f43565b60405180910390fd5b6000600281111561070257610701612c1e565b5b8160070160009054906101000a900460ff16600281111561072657610725612c1e565b5b03610766576040517f08c379a000000000000000000000000000000000000000000000000000000000815260040161075d90612fd5565b60405180910390fd5b600181600a0160006101000a81548160ff021916908315150217905550837ff9e85b2267674582d9895ae9424c9ca69bb26284a12207df54e8dde4f07c19e68260070160009054906101000a900460ff166040516107c49190612ff5565b60405180910390a250505050565b60075481565b600160009054906101000a900473ffffffffffffffffffffffffffffffffffffffff1681565b600160009054906101000a900473ffffffffffffffffffffffffffffffffffffffff1673ffffffffffffffffffffffffffffffffffffffff163373ffffffffffffffffffffffffffffffffffffffff161461088e576040517f08c379a000000000000000000000000000000000000000000000000000000000815260040161088590613082565b60405180910390fd5b80600b60008473ffffffffffffffffffffffffffffffffffffffff1673ffffffffffffffffffffffffffffffffffffffff16815260200190815260200160002060006101000a81548160ff0219169083151502179055505050565b836000811180156108fc57506002548111155b61093b576040517f08c379a000000000000000000000000000000000000000000000000000000000815260040161093290612de2565b60405180910390fd5b84600060028111156109505761094f612c1e565b5b6008600083815260200190815260200160002060070160009054906101000a900460ff16600281111561098657610985612c1e565b5b146109c6576040517f08c379a00000000000000000000000000000000000000000000000000000000081526004016109bd906130ee565b60405180910390fd5b33600b60008273ffffffffffffffffffffffffffffffffffffffff1673ffffffffffffffffffffffffffffffffffffffff16815260200190815260200160002060009054906101000a900460ff16610a53576040517f08c379a0000000000000000000000000000000000000000000000000000000008152600401610a4a90612e74565b60405180910390fd5b60003411610a96576040517f08c379a0000000000000000000000000000000000000000000000000000000008152600401610a8d9061315a565b60405180910390fd5b60086000888152602001908152602001600020600801544210610aee576040517f08c379a0000000000000000000000000000000000000000000000000000000008152600401610ae5906131c6565b60405180910390fd5b600060086000898152602001908152602001600020905060003390508715610b305734826003016000828254610b249190612ec3565b92505081905550610b4c565b34826004016000828254610b449190612ec3565b925050819055505b81600601878790918060018154018082558091505060019003906000526020600020016000909192909192909192909192509182610b8b9291906133fd565b503482600b0160008373ffffffffffffffffffffffffffffffffffffffff1673ffffffffffffffffffffffffffffffffffffffff1681526020019081526020016000206000828254610bdd9190612ec3565b925050819055503482600b0160008373ffffffffffffffffffffffffffffffffffffffff1673ffffffffffffffffffffffffffffffffffffffff1681526020019081526020016000205403610c8257600960008273ffffffffffffffffffffffffffffffffffffffff1673ffffffffffffffffffffffffffffffffffffffff1681526020019081526020016000206000815480929190610c7c906134cd565b91905055505b8073ffffffffffffffffffffffffffffffffffffffff16897f735db38119c48c40c947a31bde6bbf4fd861f73beeb74c6c8fd9173af13931d6348b604051610ccb929190613515565b60405180910390a3505050505050505050565b816008600082815260200190815260200160002060010160009054906101000a900473ffffffffffffffffffffffffffffffffffffffff1673ffffffffffffffffffffffffffffffffffffffff163373ffffffffffffffffffffffffffffffffffffffff1614610d83576040517f08c379a0000000000000000000000000000000000000000000000000000000008152600401610d7a906135b0565b60405180910390fd5b82600081118015610d9657506002548111155b610dd5576040517f08c379a0000000000000000000000000000000000000000000000000000000008152600401610dcc90612de2565b60405180910390fd5b8360006002811115610dea57610de9612c1e565b5b6008600083815260200190815260200160002060070160009054906101000a900460ff166002811115610e2057610e1f612c1e565b5b14610e60576040517f08c379a0000000000000000000000000000000000000000000000000000000008152600401610e57906130ee565b60405180910390fd5b33600b60008273ffffffffffffffffffffffffffffffffffffffff1673ffffffffffffffffffffffffffffffffffffffff16815260200190815260200160002060009054906101000a900460ff16610eed576040517f08c379a0000000000000000000000000000000000000000000000000000000008152600401610ee490612e74565b60405180910390fd5b60086000878152602001908152602001600020600801544211610f45576040517f08c379a0000000000000000000000000000000000000000000000000000000008152600401610f3c90613642565b60405180910390fd5b600060086000888152602001908152602001600020905042816009018190555080600301548160040154610f799190612ec3565b81600501819055508515610fb95760018160070160006101000a81548160ff02191690836002811115610faf57610fae612c1e565b5b0217905550610fe7565b60028160070160006101000a81548160ff02191690836002811115610fe157610fe0612c1e565b5b02179055505b867f739f283563fb51ab6b89ee95d937b2e63a6cfcb83c385dbebb629f9d97bd43e68260070160009054906101000a900460ff166040516110289190612ff5565b60405180910390a250505050505050565b8060008111801561104c57506002548111155b61108b576040517f08c379a000000000000000000000000000000000000000000000000000000000815260040161108290612de2565b60405180910390fd5b33600b60008273ffffffffffffffffffffffffffffffffffffffff1673ffffffffffffffffffffffffffffffffffffffff16815260200190815260200160002060009054906101000a900460ff16611118576040517f08c379a000000000000000000000000000000000000000000000000000000000815260040161110f90612e74565b60405180910390fd5b60006008600085815260200190815260200160002090506000600281111561114357611142612c1e565b5b8160070160009054906101000a900460ff16600281111561116757611166612c1e565b5b036111a7576040517f08c379a000000000000000000000000000000000000000000000000000000000815260040161119e906136ae565b60405180910390fd5b60045481600901546111b99190612ec3565b42116111fa576040517f08c379a00000000000000000000000000000000000000000000000000000000081526004016111f19061371a565b60405180910390fd5b80600a0160009054906101000a900460ff16158061121f575080601201548160110154115b61125e576040517f08c379a000000000000000000000000000000000000000000000000000000000815260040161125590613786565b60405180910390fd5b6000339050600082600b0160008373ffffffffffffffffffffffffffffffffffffffff1673ffffffffffffffffffffffffffffffffffffffff168152602001908152602001600020549050600081116112ec576040517f08c379a00000000000000000000000000000000000000000000000000000000081526004016112e3906137f2565b60405180910390fd5b82600e0160008373ffffffffffffffffffffffffffffffffffffffff1673ffffffffffffffffffffffffffffffffffffffff16815260200190815260200160002060009054906101000a900460ff161561137b576040517f08c379a000000000000000000000000000000000000000000000000000000000815260040161137290613884565b60405180910390fd5b6000836004015484600301546113919190612ec3565b8460050154836113a191906138a4565b6113ab9190613915565b905060006064600554836113bf91906138a4565b6113c99190613915565b905060006064600654836113dd91906138a4565b6113e79190613915565b9050600082846113f79190613946565b905060008673ffffffffffffffffffffffffffffffffffffffff168260405161141f906139ab565b60006040518083038185875af1925050503d806000811461145c576040519150601f19603f3d011682016040523d82523d6000602084013e611461565b606091505b50509050806114a5576040517f08c379a000000000000000000000000000000000000000000000000000000000815260040161149c90613a0c565b60405180910390fd5b600188600e0160008973ffffffffffffffffffffffffffffffffffffffff1673ffffffffffffffffffffffffffffffffffffffff16815260200190815260200160002060006101000a81548160ff0219169083151502179055508673ffffffffffffffffffffffffffffffffffffffff168b7f5380cf6fe903b40c6d5a9e0dfbca2f3a423f0a21520b4d5947ed5169bdba946d8460405161154691906125a8565b60405180910390a35050505050505050505050565b8160008111801561156e57506002548111155b6115ad576040517f08c379a00000000000000000000000000000000000000000000000000000000081526004016115a490612de2565b60405180910390fd5b33600b60008273ffffffffffffffffffffffffffffffffffffffff1673ffffffffffffffffffffffffffffffffffffffff16815260200190815260200160002060009054906101000a900460ff1661163a576040517f08c379a000000000000000000000000000000000000000000000000000000000815260040161163190612e74565b60405180910390fd5b600060086000868152602001908152602001600020905080600a0160009054906101000a900460ff166116a2576040517f08c379a000000000000000000000000000000000000000000000000000000000815260040161169990613a78565b60405180910390fd5b80600d0160003373ffffffffffffffffffffffffffffffffffffffff1673ffffffffffffffffffffffffffffffffffffffff16815260200190815260200160002060009054906101000a900460ff1615611731576040517f08c379a000000000000000000000000000000000000000000000000000000000815260040161172890613b0a565b60405180910390fd5b83156117bb5780601101600081548092919061174c906134cd565b919050555080601001339080600181540180825580915050600190039060005260206000200160009091909190916101000a81548173ffffffffffffffffffffffffffffffffffffffff021916908373ffffffffffffffffffffffffffffffffffffffff1602179055506117d6565b8060120160008154809291906117d0906134cd565b91905055505b600181600d0160003373ffffffffffffffffffffffffffffffffffffffff1673ffffffffffffffffffffffffffffffffffffffff16815260200190815260200160002060006101000a81548160ff0219169083151502179055508060120154816011015411801561186a57506002816012015482601101546118589190612ec3565b6118629190613915565b816011015410155b156118a15760018160070160006101000a81548160ff0219169083600281111561189757611896612c1e565b5b021790555061190f565b806011015481601201541180156118db57506002816012015482601101546118c99190612ec3565b6118d39190613915565b816012015410155b1561190e5760028160070160006101000a81548160ff0219169083600281111561190857611907612c1e565b5b02179055505b5b5050505050565b60096020528060005260406000206000915090505481565b336003600960008373ffffffffffffffffffffffffffffffffffffffff1673ffffffffffffffffffffffffffffffffffffffff1681526020019081526020016000205410156119b2576040517f08c379a00000000000000000000000000000000000000000000000000000000081526004016119a990613b9c565b60405180910390fd5b33600b60008273ffffffffffffffffffffffffffffffffffffffff1673ffffffffffffffffffffffffffffffffffffffff16815260200190815260200160002060009054906101000a900460ff16611a3f576040517f08c379a0000000000000000000000000000000000000000000000000000000008152600401611a3690612e74565b60405180910390fd5b428311611a81576040517f08c379a0000000000000000000000000000000000000000000000000000000008152600401611a7890613c08565b60405180910390fd5b60026000815480929190611a94906134cd565b9190505550600060086000600254815260200190815260200160002090506002548160000181905550338160010160006101000a81548173ffffffffffffffffffffffffffffffffffffffff021916908373ffffffffffffffffffffffffffffffffffffffff16021790555084816002019081611b119190613c83565b5060008160070160006101000a81548160ff02191690836002811115611b3a57611b39612c1e565b5b0217905550838160080181905550600060405180604001604052807f06af21ce5cda6908de34db121621d7bb4abd3fe1b0ada4e85fd258729d27f51c81526020017f218a257d98ed37eaecff306ab38cea47d535ac6bf3a18ab3e42b96ad120d01c0815250905060008060009054906101000a900473ffffffffffffffffffffffffffffffffffffffff16905060006040518060800160405280600a815260200160038152602001600481526020016005815250905060008060008473ffffffffffffffffffffffffffffffffffffffff16636f63e62762093a808689739fe46736679d2d9a65f0992f2272de9f3c7fa6e073a51c1fc2f0d1a1b8494ed1fe312d7c3a78ed91c060006040518763ffffffff1660e01b8152600401611c6496959493929190613e23565b6060604051808303816000875af1158015611c83573d6000803e3d6000fd5b505050506040513d601f19601f82011682018060405250810190611ca79190613e9c565b9250925092506002547f2d1e9ad45dbe8e898e0374deebf2a661b2ae7c1855d2a29507d584c35d287c758c8c604051611ce1929190613eef565b60405180910390a27f385a2b5a4dc983d2635f144cc5f8b730fd38c8a8f1dfef63bce88b54124e69f0600254848484604051611d209493929190613f1f565b60405180910390a15050505050505050505050565b60008060009054906101000a900473ffffffffffffffffffffffffffffffffffffffff169050600060405180604001604052807f06af21ce5cda6908de34db121621d7bb4abd3fe1b0ada4e85fd258729d27f51c81526020017f218a257d98ed37eaecff306ab38cea47d535ac6bf3a18ab3e42b96ad120d01c081525090508173ffffffffffffffffffffffffffffffffffffffff166379139b70826040518263ffffffff1660e01b8152600401611ded9190613fc1565b600060405180830381600087803b158015611e0757600080fd5b505af1158015611e1b573d6000803e3d6000fd5b505050503373ffffffffffffffffffffffffffffffffffffffff167fe1548e420ec342f3f2cebe40ea8a7cb352ba5499c64db3a4aaa0ceff609bf54060405160405180910390a2505050565b80600081118015611e7a57506002548111155b611eb9576040517f08c379a0000000000000000000000000000000000000000000000000000000008152600401611eb090612de2565b60405180910390fd5b600060086000848152602001908152602001600020905060006002811115611ee457611ee3612c1e565b5b8160070160009054906101000a900460ff166002811115611f0857611f07612c1e565b5b03611f48576040517f08c379a0000000000000000000000000000000000000000000000000000000008152600401611f3f906136ae565b60405180910390fd5b6004548160090154611f5a9190612ec3565b4211611f9b576040517f08c379a0000000000000000000000000000000000000000000000000000000008152600401611f929061371a565b60405180910390fd5b80600a0160009054906101000a900460ff161580611fc0575080601201548160110154115b611fff576040517f08c379a0000000000000000000000000000000000000000000000000000000008152600401611ff690613786565b60405180910390fd5b600033905081600f0160008273ffffffffffffffffffffffffffffffffffffffff1673ffffffffffffffffffffffffffffffffffffffff16815260200190815260200160002060009054906101000a900460ff1615612093576040517f08c379a000000000000000000000000000000000000000000000000000000000815260040161208a90614074565b60405180910390fd5b6000805b836010018054905081101561212f578273ffffffffffffffffffffffffffffffffffffffff168460100182815481106120d3576120d2614094565b5b9060005260206000200160009054906101000a900473ffffffffffffffffffffffffffffffffffffffff1673ffffffffffffffffffffffffffffffffffffffff1603612122576001915061212f565b8080600101915050612097565b5080612170576040517f08c379a000000000000000000000000000000000000000000000000000000000815260040161216790614135565b60405180910390fd5b60006064600754856005015461218691906138a4565b6121909190613915565b90506000846012015485601101546121a89190612ec3565b826121b39190613915565b905060008473ffffffffffffffffffffffffffffffffffffffff16826040516121db906139ab565b60006040518083038185875af1925050503d8060008114612218576040519150601f19603f3d011682016040523d82523d6000602084013e61221d565b606091505b5050905080612261576040517f08c379a0000000000000000000000000000000000000000000000000000000008152600401612258906141a1565b60405180910390fd5b600186600f0160008773ffffffffffffffffffffffffffffffffffffffff1673ffffffffffffffffffffffffffffffffffffffff16815260200190815260200160002060006101000a81548160ff0219169083151502179055507f9af5b21cabce4c362b205b388dac7cdf80b3b509bfedc607b74f1790bb5fce378886846040516122ee939291906141c1565b60405180910390a15050505050505050565b60008054906101000a900473ffffffffffffffffffffffffffffffffffffffff1681565b6060600860008381526020019081526020016000206010018054806020026020016040519081016040528092919081815260200182805480156123bc57602002820191906000526020600020905b8160009054906101000a900473ffffffffffffffffffffffffffffffffffffffff1673ffffffffffffffffffffffffffffffffffffffff1681526020019060010190808311612372575b50505050509050919050565b60086020528060005260406000206000915090508060000154908060010160009054906101000a900473ffffffffffffffffffffffffffffffffffffffff169080600201805461241790613220565b80601f016020809104026020016040519081016040528092919081815260200182805461244390613220565b80156124905780601f1061246557610100808354040283529160200191612490565b820191906000526020600020905b81548152906001019060200180831161247357829003601f168201915b5050505050908060030154908060040154908060050154908060070160009054906101000a900460ff169080600801549080600901549080600a0160009054906101000a900460ff1690806011015490806012015490508c565b60055481565b6003811115612534576040517f08c379a000000000000000000000000000000000000000000000000000000000815260040161252b9061426a565b60405180910390fd5b6004600960008473ffffffffffffffffffffffffffffffffffffffff1673ffffffffffffffffffffffffffffffffffffffff168152602001908152602001600020819055505050565b60025481565b60035481565b60065481565b6000819050919050565b6125a28161258f565b82525050565b60006020820190506125bd6000830184612599565b92915050565b6000604051905090565b600080fd5b600080fd5b600073ffffffffffffffffffffffffffffffffffffffff82169050919050565b6000612602826125d7565b9050919050565b612612816125f7565b811461261d57600080fd5b50565b60008135905061262f81612609565b92915050565b60006020828403121561264b5761264a6125cd565b5b600061265984828501612620565b91505092915050565b60008115159050919050565b61267781612662565b82525050565b6000602082019050612692600083018461266e565b92915050565b6126a18161258f565b81146126ac57600080fd5b50565b6000813590506126be81612698565b92915050565b6000602082840312156126da576126d96125cd565b5b60006126e8848285016126af565b91505092915050565b6126fa816125f7565b82525050565b600060208201905061271560008301846126f1565b92915050565b61272481612662565b811461272f57600080fd5b50565b6000813590506127418161271b565b92915050565b6000806040838503121561275e5761275d6125cd565b5b600061276c85828601612620565b925050602061277d85828601612732565b9150509250929050565b600080fd5b600080fd5b600080fd5b60008083601f8401126127ac576127ab612787565b5b8235905067ffffffffffffffff8111156127c9576127c861278c565b5b6020830191508360018202830111156127e5576127e4612791565b5b9250929050565b60008060008060608587031215612806576128056125cd565b5b6000612814878288016126af565b945050602061282587828801612732565b935050604085013567ffffffffffffffff811115612846576128456125d2565b5b61285287828801612796565b925092505092959194509250565b60008060408385031215612877576128766125cd565b5b6000612885858286016126af565b925050602061289685828601612732565b9150509250929050565b600080fd5b6000601f19601f8301169050919050565b7f4e487b7100000000000000000000000000000000000000000000000000000000600052604160045260246000fd5b6128ee826128a5565b810181811067ffffffffffffffff8211171561290d5761290c6128b6565b5b80604052505050565b60006129206125c3565b905061292c82826128e5565b919050565b600067ffffffffffffffff82111561294c5761294b6128b6565b5b612955826128a5565b9050602081019050919050565b82818337600083830152505050565b600061298461297f84612931565b612916565b9050828152602081018484840111156129a05761299f6128a0565b5b6129ab848285612962565b509392505050565b600082601f8301126129c8576129c7612787565b5b81356129d8848260208601612971565b91505092915050565b600080604083850312156129f8576129f76125cd565b5b600083013567ffffffffffffffff811115612a1657612a156125d2565b5b612a22858286016129b3565b9250506020612a33858286016126af565b9150509250929050565b600080fd5b600060408284031215612a5857612a57612a3d565b5b612a626040612916565b90506000612a72848285016126af565b6000830152506020612a86848285016126af565b60208301525092915050565b600060408284031215612aa857612aa76125cd565b5b6000612ab684828501612a42565b91505092915050565b600081519050919050565b600082825260208201905092915050565b6000819050602082019050919050565b612af4816125f7565b82525050565b6000612b068383612aeb565b60208301905092915050565b6000602082019050919050565b6000612b2a82612abf565b612b348185612aca565b9350612b3f83612adb565b8060005b83811015612b70578151612b578882612afa565b9750612b6283612b12565b925050600181019050612b43565b5085935050505092915050565b60006020820190508181036000830152612b978184612b1f565b905092915050565b600081519050919050565b600082825260208201905092915050565b60005b83811015612bd9578082015181840152602081019050612bbe565b60008484015250505050565b6000612bf082612b9f565b612bfa8185612baa565b9350612c0a818560208601612bbb565b612c13816128a5565b840191505092915050565b7f4e487b7100000000000000000000000000000000000000000000000000000000600052602160045260246000fd5b60038110612c5e57612c5d612c1e565b5b50565b6000819050612c6f82612c4d565b919050565b6000612c7f82612c61565b9050919050565b612c8f81612c74565b82525050565b600061018082019050612cab600083018f612599565b612cb8602083018e6126f1565b8181036040830152612cca818d612be5565b9050612cd9606083018c612599565b612ce6608083018b612599565b612cf360a083018a612599565b612d0060c0830189612c86565b612d0d60e0830188612599565b612d1b610100830187612599565b612d2961012083018661266e565b612d37610140830185612599565b612d45610160830184612599565b9d9c50505050505050505050505050565b60008060408385031215612d6d57612d6c6125cd565b5b6000612d7b85828601612620565b9250506020612d8c858286016126af565b9150509250929050565b7f496e76616c6964206d61726b6574204944000000000000000000000000000000600082015250565b6000612dcc601183612baa565b9150612dd782612d96565b602082019050919050565b60006020820190508181036000830152612dfb81612dbf565b9050919050565b7f55736572206973206e6f74207665726966696564207769746820576f726c646360008201527f6f696e0000000000000000000000000000000000000000000000000000000000602082015250565b6000612e5e602383612baa565b9150612e6982612e02565b604082019050919050565b60006020820190508181036000830152612e8d81612e51565b9050919050565b7f4e487b7100000000000000000000000000000000000000000000000000000000600052601160045260246000fd5b6000612ece8261258f565b9150612ed98361258f565b9250828201905080821115612ef157612ef0612e94565b5b92915050565b7f4368616c6c656e676520706572696f6420686173206578706972656400000000600082015250565b6000612f2d601c83612baa565b9150612f3882612ef7565b602082019050919050565b60006020820190508181036000830152612f5c81612f20565b9050919050565b7f4d61726b6574206d757374206265207265736f6c76656420746f206368616c6c60008201527f656e676500000000000000000000000000000000000000000000000000000000602082015250565b6000612fbf602483612baa565b9150612fca82612f63565b604082019050919050565b60006020820190508181036000830152612fee81612fb2565b9050919050565b600060208201905061300a6000830184612c86565b92915050565b7f4f6e6c792074686520706c6174666f726d206f776e65722063616e2063616c6c60008201527f20746869732066756e6374696f6e000000000000000000000000000000000000602082015250565b600061306c602e83612baa565b915061307782613010565b604082019050919050565b6000602082019050818103600083015261309b8161305f565b9050919050565b7f4d61726b657420616c7265616479207265736f6c766564000000000000000000600082015250565b60006130d8601783612baa565b91506130e3826130a2565b602082019050919050565b60006020820190508181036000830152613107816130cb565b9050919050565b7f416d6f756e74206d7573742062652067726561746572207468616e2030000000600082015250565b6000613144601d83612baa565b915061314f8261310e565b602082019050919050565b6000602082019050818103600083015261317381613137565b9050919050565b7f566f74696e6720706572696f642068617320656e646564000000000000000000600082015250565b60006131b0601783612baa565b91506131bb8261317a565b602082019050919050565b600060208201905081810360008301526131df816131a3565b9050919050565b600082905092915050565b7f4e487b7100000000000000000000000000000000000000000000000000000000600052602260045260246000fd5b6000600282049050600182168061323857607f821691505b60208210810361324b5761324a6131f1565b5b50919050565b60008190508160005260206000209050919050565b60006020601f8301049050919050565b600082821b905092915050565b6000600883026132b37fffffffffffffffffffffffffffffffffffffffffffffffffffffffffffffffff82613276565b6132bd8683613276565b95508019841693508086168417925050509392505050565b6000819050919050565b60006132fa6132f56132f08461258f565b6132d5565b61258f565b9050919050565b6000819050919050565b613314836132df565b61332861332082613301565b848454613283565b825550505050565b600090565b61333d613330565b61334881848461330b565b505050565b5b8181101561336c57613361600082613335565b60018101905061334e565b5050565b601f8211156133b15761338281613251565b61338b84613266565b8101602085101561339a578190505b6133ae6133a685613266565b83018261334d565b50505b505050565b600082821c905092915050565b60006133d4600019846008026133b6565b1980831691505092915050565b60006133ed83836133c3565b9150826002028217905092915050565b61340783836131e6565b67ffffffffffffffff8111156134205761341f6128b6565b5b61342a8254613220565b613435828285613370565b6000601f8311600181146134645760008415613452578287013590505b61345c85826133e1565b8655506134c4565b601f19841661347286613251565b60005b8281101561349a57848901358255600182019150602085019450602081019050613475565b868310156134b757848901356134b3601f8916826133c3565b8355505b6001600288020188555050505b50505050505050565b60006134d88261258f565b91507fffffffffffffffffffffffffffffffffffffffffffffffffffffffffffffffff820361350a57613509612e94565b5b600182019050919050565b600060408201905061352a6000830185612599565b613537602083018461266e565b9392505050565b7f4f6e6c7920746865206d61726b6574206f776e65722063616e2063616c6c207460008201527f6869732066756e6374696f6e0000000000000000000000000000000000000000602082015250565b600061359a602c83612baa565b91506135a58261353e565b604082019050919050565b600060208201905081810360008301526135c98161358d565b9050919050565b7f43616e6e6f74207265736f6c7665206d61726b6574206265666f726520656e6460008201527f2064617465000000000000000000000000000000000000000000000000000000602082015250565b600061362c602583612baa565b9150613637826135d0565b604082019050919050565b6000602082019050818103600083015261365b8161361f565b9050919050565b7f4d61726b6574206e6f7420796574207265736f6c766564000000000000000000600082015250565b6000613698601783612baa565b91506136a382613662565b602082019050919050565b600060208201905081810360008301526136c78161368b565b9050919050565b7f4c6f636b2d696e20706572696f6420686173206e6f7420656e64656400000000600082015250565b6000613704601c83612baa565b915061370f826136ce565b602082019050919050565b60006020820190508181036000830152613733816136f7565b9050919050565b7f4368616c6c656e67657320756e7265736f6c7665640000000000000000000000600082015250565b6000613770601583612baa565b915061377b8261373a565b602082019050919050565b6000602082019050818103600083015261379f81613763565b9050919050565b7f4e6f20766f74657320706c616365642062792075736572000000000000000000600082015250565b60006137dc601783612baa565b91506137e7826137a6565b602082019050919050565b6000602082019050818103600083015261380b816137cf565b9050919050565b7f57696e6e696e677320616c726561647920636c61696d6564206279207468697360008201527f2075736572000000000000000000000000000000000000000000000000000000602082015250565b600061386e602583612baa565b915061387982613812565b604082019050919050565b6000602082019050818103600083015261389d81613861565b9050919050565b60006138af8261258f565b91506138ba8361258f565b92508282026138c88161258f565b915082820484148315176138df576138de612e94565b5b5092915050565b7f4e487b7100000000000000000000000000000000000000000000000000000000600052601260045260246000fd5b60006139208261258f565b915061392b8361258f565b92508261393b5761393a6138e6565b5b828204905092915050565b60006139518261258f565b915061395c8361258f565b925082820390508181111561397457613973612e94565b5b92915050565b600081905092915050565b50565b600061399560008361397a565b91506139a082613985565b600082019050919050565b60006139b682613988565b9150819050919050565b7f4661696c656420746f2073656e642077696e6e696e6773000000000000000000600082015250565b60006139f6601783612baa565b9150613a01826139c0565b602082019050919050565b60006020820190508181036000830152613a25816139e9565b9050919050565b7f4d61726b657420686173206e6f74206265656e206368616c6c656e6765640000600082015250565b6000613a62601e83612baa565b9150613a6d82613a2c565b602082019050919050565b60006020820190508181036000830152613a9181613a55565b9050919050565b7f596f75206861766520616c726561647920766f7465642061732061206375726160008201527f746f720000000000000000000000000000000000000000000000000000000000602082015250565b6000613af4602383612baa565b9150613aff82613a98565b604082019050919050565b60006020820190508181036000830152613b2381613ae7565b9050919050565b7f55736572206d757374206861766520766f74656420696e206174206c6561737460008201527f2033206d61726b65747320746f206372656174652061206d61726b6574000000602082015250565b6000613b86603d83612baa565b9150613b9182613b2a565b604082019050919050565b60006020820190508181036000830152613bb581613b79565b9050919050565b7f456e642064617465206d75737420626520696e20746865206675747572650000600082015250565b6000613bf2601e83612baa565b9150613bfd82613bbc565b602082019050919050565b60006020820190508181036000830152613c2181613be5565b9050919050565b60008190508160005260206000209050919050565b601f821115613c7e57613c4f81613c28565b613c5884613266565b81016020851015613c67578190505b613c7b613c7385613266565b83018261334d565b50505b505050565b613c8c82612b9f565b67ffffffffffffffff811115613ca557613ca46128b6565b5b613caf8254613220565b613cba828285613c3d565b600060209050601f831160018114613ced5760008415613cdb578287015190505b613ce585826133e1565b865550613d4d565b601f198416613cfb86613c28565b60005b82811015613d2357848901518255600182019150602085019450602081019050613cfe565b86831015613d405784890151613d3c601f8916826133c3565b8355505b6001600288020188555050505b505050505050565b6000819050919050565b6000613d7a613d75613d7084613d55565b6132d5565b61258f565b9050919050565b613d8a81613d5f565b82525050565b613d998161258f565b82525050565b608082016000820151613db56000850182613d90565b506020820151613dc86020850182613d90565b506040820151613ddb6040850182613d90565b506060820151613dee6060850182613d90565b50505050565b604082016000820151613e0a6000850182613d90565b506020820151613e1d6020850182613d90565b50505050565b600061014082019050613e396000830189613d81565b613e466020830188613d9f565b613e5360a0830187613df4565b613e6060e08301866126f1565b613e6e6101008301856126f1565b613e7c61012083018461266e565b979650505050505050565b600081519050613e9681612609565b92915050565b600080600060608486031215613eb557613eb46125cd565b5b6000613ec386828701613e87565b9350506020613ed486828701613e87565b9250506040613ee586828701613e87565b9150509250925092565b60006040820190508181036000830152613f098185612be5565b9050613f186020830184612599565b9392505050565b6000608082019050613f346000830187612599565b613f4160208301866126f1565b613f4e60408301856126f1565b613f5b60608301846126f1565b95945050505050565b600082825260208201905092915050565b7f3078000000000000000000000000000000000000000000000000000000000000600082015250565b6000613fab600283613f64565b9150613fb682613f75565b602082019050919050565b6000608082019050613fd66000830184613df4565b8181036040830152613fe781613f9e565b90508181036060830152613ffa81613f9e565b905092915050565b7f43757261746f722066656520616c726561647920636c61696d6564206279207460008201527f6869732063757261746f72000000000000000000000000000000000000000000602082015250565b600061405e602b83612baa565b915061406982614002565b604082019050919050565b6000602082019050818103600083015261408d81614051565b9050919050565b7f4e487b7100000000000000000000000000000000000000000000000000000000600052603260045260246000fd5b7f43757261746f72206973206e6f742070617274206f6620746865206368616c6c60008201527f656e676500000000000000000000000000000000000000000000000000000000602082015250565b600061411f602483612baa565b915061412a826140c3565b604082019050919050565b6000602082019050818103600083015261414e81614112565b9050919050565b7f4661696c656420746f2073656e642063757261746f7220666565000000000000600082015250565b600061418b601a83612baa565b915061419682614155565b602082019050919050565b600060208201905081810360008301526141ba8161417e565b9050919050565b60006060820190506141d66000830186612599565b6141e360208301856126f1565b6141f06040830184612599565b949350505050565b7f43616e206f6e6c792073657420757020746f203320766f74657320666f72207460008201527f657374696e670000000000000000000000000000000000000000000000000000602082015250565b6000614254602683612baa565b915061425f826141f8565b604082019050919050565b6000602082019050818103600083015261428381614247565b905091905056fea264697066735822122003fe38d3c57c3de854cb7099830ccdd188d7b0c64dcefb2c4b27c040d7a4ba8464736f6c63430008180033",
  "linkReferences": {},
  "deployedLinkReferences": {}
}