{
  "_format": "hh-sol-artifact-1",
  "contractName": "PredictionMarket",
  "sourceName": "contracts/PredictionMarket.sol",
  "abi": [
    {
      "inputs": [],
      "stateMutability": "nonpayable",
      "type": "constructor"
    },
    {
      "anonymous": false,
      "inputs": [
        {
          "indexed": true,
          "internalType": "uint256",
          "name": "id",
          "type": "uint256"
        },
        {
          "indexed": false,
          "internalType": "address",
          "name": "curator",
          "type": "address"
        },
        {
          "indexed": false,
          "internalType": "uint256",
          "name": "curatorShare",
          "type": "uint256"
        }
      ],
      "name": "CuratorFeeClaimed",
      "type": "event"
    },
    {
      "anonymous": false,
      "inputs": [
        {
          "indexed": true,
          "internalType": "uint256",
          "name": "id",
          "type": "uint256"
        },
        {
          "indexed": false,
          "internalType": "enum PredictionMarket.MarketOutcome",
          "name": "proposedOutcome",
          "type": "uint8"
        }
      ],
      "name": "MarketChallenged",
      "type": "event"
    },
    {
      "anonymous": false,
      "inputs": [
        {
          "indexed": true,
          "internalType": "uint256",
          "name": "id",
          "type": "uint256"
        },
        {
          "indexed": false,
          "internalType": "string",
          "name": "question",
          "type": "string"
        },
        {
          "indexed": false,
          "internalType": "uint256",
          "name": "endDate",
          "type": "uint256"
        }
      ],
      "name": "MarketCreated",
      "type": "event"
    },
    {
      "anonymous": false,
      "inputs": [
        {
          "indexed": true,
          "internalType": "uint256",
          "name": "id",
          "type": "uint256"
        },
        {
          "indexed": false,
          "internalType": "enum PredictionMarket.MarketOutcome",
          "name": "outcome",
          "type": "uint8"
        }
      ],
      "name": "MarketResolved",
      "type": "event"
    },
    {
      "anonymous": false,
      "inputs": [
        {
          "indexed": true,
          "internalType": "uint256",
          "name": "id",
          "type": "uint256"
        },
        {
          "indexed": true,
          "internalType": "address",
          "name": "buyer",
          "type": "address"
        },
        {
          "indexed": false,
          "internalType": "uint256",
          "name": "amount",
          "type": "uint256"
        },
        {
          "indexed": false,
          "internalType": "bool",
          "name": "prediction",
          "type": "bool"
        }
      ],
      "name": "VotesBought",
      "type": "event"
    },
    {
      "anonymous": false,
      "inputs": [
        {
          "indexed": true,
          "internalType": "uint256",
          "name": "id",
          "type": "uint256"
        },
        {
          "indexed": true,
          "internalType": "address",
          "name": "claimer",
          "type": "address"
        },
        {
          "indexed": false,
          "internalType": "uint256",
          "name": "amount",
          "type": "uint256"
        }
      ],
      "name": "WinningsClaimed",
      "type": "event"
    },
    {
      "inputs": [],
      "name": "CHALLENGE_PERIOD",
      "outputs": [
        {
          "internalType": "uint256",
          "name": "",
          "type": "uint256"
        }
      ],
      "stateMutability": "view",
      "type": "function"
    },
    {
      "inputs": [],
      "name": "CURATOR_FEE_PERCENTAGE",
      "outputs": [
        {
          "internalType": "uint256",
          "name": "",
          "type": "uint256"
        }
      ],
      "stateMutability": "view",
      "type": "function"
    },
    {
      "inputs": [],
      "name": "LOCK_IN_PERIOD",
      "outputs": [
        {
          "internalType": "uint256",
          "name": "",
          "type": "uint256"
        }
      ],
      "stateMutability": "view",
      "type": "function"
    },
    {
      "inputs": [],
      "name": "OWNER_FEE_SHARE_PERCENTAGE",
      "outputs": [
        {
          "internalType": "uint256",
          "name": "",
          "type": "uint256"
        }
      ],
      "stateMutability": "view",
      "type": "function"
    },
    {
      "inputs": [],
      "name": "PLATFORM_FEE_PERCENTAGE",
      "outputs": [
        {
          "internalType": "uint256",
          "name": "",
          "type": "uint256"
        }
      ],
      "stateMutability": "view",
      "type": "function"
    },
    {
      "inputs": [
        {
          "internalType": "uint256",
          "name": "_marketId",
          "type": "uint256"
        },
        {
          "internalType": "bool",
          "name": "_prediction",
          "type": "bool"
        }
      ],
      "name": "buyVotes",
      "outputs": [],
      "stateMutability": "payable",
      "type": "function"
    },
    {
      "inputs": [
        {
          "internalType": "uint256",
          "name": "_marketId",
          "type": "uint256"
        }
      ],
      "name": "challengeMarketOutcome",
      "outputs": [],
      "stateMutability": "nonpayable",
      "type": "function"
    },
    {
      "inputs": [
        {
          "internalType": "uint256",
          "name": "_marketId",
          "type": "uint256"
        }
      ],
      "name": "claimCuratorFee",
      "outputs": [],
      "stateMutability": "nonpayable",
      "type": "function"
    },
    {
      "inputs": [
        {
          "internalType": "uint256",
          "name": "_marketId",
          "type": "uint256"
        }
      ],
      "name": "claimWinnings",
      "outputs": [],
      "stateMutability": "nonpayable",
      "type": "function"
    },
    {
      "inputs": [
        {
          "internalType": "string",
          "name": "_question",
          "type": "string"
        },
        {
          "internalType": "uint256",
          "name": "_endDate",
          "type": "uint256"
        }
      ],
      "name": "createMarket",
      "outputs": [],
      "stateMutability": "nonpayable",
      "type": "function"
    },
    {
      "inputs": [
        {
          "internalType": "uint256",
          "name": "",
          "type": "uint256"
        },
        {
          "internalType": "uint256",
          "name": "",
          "type": "uint256"
        }
      ],
      "name": "curatorAddresses",
      "outputs": [
        {
          "internalType": "address",
          "name": "",
          "type": "address"
        }
      ],
      "stateMutability": "view",
      "type": "function"
    },
    {
      "inputs": [
        {
          "internalType": "uint256",
          "name": "",
          "type": "uint256"
        },
        {
          "internalType": "address",
          "name": "",
          "type": "address"
        }
      ],
      "name": "curatorFeeClaimed",
      "outputs": [
        {
          "internalType": "bool",
          "name": "",
          "type": "bool"
        }
      ],
      "stateMutability": "view",
      "type": "function"
    },
    {
      "inputs": [
        {
          "internalType": "uint256",
          "name": "_marketId",
          "type": "uint256"
        },
        {
          "internalType": "bool",
          "name": "_agreeWithOutcome",
          "type": "bool"
        }
      ],
      "name": "curatorVoteOnOutcome",
      "outputs": [],
      "stateMutability": "nonpayable",
      "type": "function"
    },
    {
      "inputs": [
        {
          "internalType": "uint256",
          "name": "",
          "type": "uint256"
        },
        {
          "internalType": "address",
          "name": "",
          "type": "address"
        }
      ],
      "name": "curatorVotes",
      "outputs": [
        {
          "internalType": "bool",
          "name": "",
          "type": "bool"
        }
      ],
      "stateMutability": "view",
      "type": "function"
    },
    {
      "inputs": [
        {
          "internalType": "uint256",
          "name": "_marketId",
          "type": "uint256"
        }
      ],
      "name": "getCuratorAddresses",
      "outputs": [
        {
          "internalType": "address[]",
          "name": "",
          "type": "address[]"
        }
      ],
      "stateMutability": "view",
      "type": "function"
    },
    {
      "inputs": [],
      "name": "marketCount",
      "outputs": [
        {
          "internalType": "uint256",
          "name": "",
          "type": "uint256"
        }
      ],
      "stateMutability": "view",
      "type": "function"
    },
    {
      "inputs": [
        {
          "internalType": "uint256",
          "name": "",
          "type": "uint256"
        }
      ],
      "name": "markets",
      "outputs": [
        {
          "internalType": "address",
          "name": "owner",
          "type": "address"
        },
        {
          "internalType": "string",
          "name": "question",
          "type": "string"
        },
        {
          "internalType": "uint256",
          "name": "totalYesVotes",
          "type": "uint256"
        },
        {
          "internalType": "uint256",
          "name": "totalNoVotes",
          "type": "uint256"
        },
        {
          "internalType": "uint256",
          "name": "resolvedAt",
          "type": "uint256"
        },
        {
          "internalType": "uint256",
          "name": "endDate",
          "type": "uint256"
        },
        {
          "internalType": "enum PredictionMarket.MarketOutcome",
          "name": "outcome",
          "type": "uint8"
        },
        {
          "internalType": "bool",
          "name": "challenged",
          "type": "bool"
        },
        {
          "internalType": "uint256",
          "name": "curatorYesVotes",
          "type": "uint256"
        },
        {
          "internalType": "uint256",
          "name": "curatorNoVotes",
          "type": "uint256"
        },
        {
          "internalType": "bool",
          "name": "ownerFeeClaimed",
          "type": "bool"
        }
      ],
      "stateMutability": "view",
      "type": "function"
    },
    {
      "inputs": [],
      "name": "platformOwner",
      "outputs": [
        {
          "internalType": "address",
          "name": "",
          "type": "address"
        }
      ],
      "stateMutability": "view",
      "type": "function"
    },
    {
      "inputs": [
        {
          "internalType": "uint256",
          "name": "_marketId",
          "type": "uint256"
        },
        {
          "internalType": "bool",
          "name": "_outcome",
          "type": "bool"
        }
      ],
      "name": "resolveMarket",
      "outputs": [],
      "stateMutability": "nonpayable",
      "type": "function"
    },
    {
      "inputs": [
        {
          "internalType": "address",
          "name": "_user",
          "type": "address"
        },
        {
          "internalType": "bool",
          "name": "_status",
          "type": "bool"
        }
      ],
      "name": "setWorldcoinVerified",
      "outputs": [],
      "stateMutability": "nonpayable",
      "type": "function"
    },
    {
      "inputs": [
        {
          "internalType": "address",
          "name": "",
          "type": "address"
        }
      ],
      "name": "userTotalWinnings",
      "outputs": [
        {
          "internalType": "uint256",
          "name": "",
          "type": "uint256"
        }
      ],
      "stateMutability": "view",
      "type": "function"
    },
    {
      "inputs": [
        {
          "internalType": "address",
          "name": "",
          "type": "address"
        }
      ],
      "name": "userVoteCounts",
      "outputs": [
        {
          "internalType": "uint256",
          "name": "",
          "type": "uint256"
        }
      ],
      "stateMutability": "view",
      "type": "function"
    },
    {
      "inputs": [
        {
          "internalType": "uint256",
          "name": "",
          "type": "uint256"
        },
        {
          "internalType": "address",
          "name": "",
          "type": "address"
        }
      ],
      "name": "userVotes",
      "outputs": [
        {
          "internalType": "uint256",
          "name": "",
          "type": "uint256"
        }
      ],
      "stateMutability": "view",
      "type": "function"
    },
    {
      "inputs": [
        {
          "internalType": "uint256",
          "name": "",
          "type": "uint256"
        },
        {
          "internalType": "address",
          "name": "",
          "type": "address"
        }
      ],
      "name": "userWinnings",
      "outputs": [
        {
          "internalType": "uint256",
          "name": "",
          "type": "uint256"
        }
      ],
      "stateMutability": "view",
      "type": "function"
    },
    {
      "inputs": [
        {
          "internalType": "uint256",
          "name": "",
          "type": "uint256"
        },
        {
          "internalType": "address",
          "name": "",
          "type": "address"
        }
      ],
      "name": "userWinningsClaimed",
      "outputs": [
        {
          "internalType": "bool",
          "name": "",
          "type": "bool"
        }
      ],
      "stateMutability": "view",
      "type": "function"
    },
    {
      "inputs": [
        {
          "internalType": "address",
          "name": "",
          "type": "address"
        }
      ],
      "name": "worldcoinVerified",
      "outputs": [
        {
          "internalType": "bool",
          "name": "",
          "type": "bool"
        }
      ],
      "stateMutability": "view",
      "type": "function"
    }
  ],
  "bytecode": "0x608060405234801561001057600080fd5b50336000806101000a81548173ffffffffffffffffffffffffffffffffffffffff021916908373ffffffffffffffffffffffffffffffffffffffff160217905550613c67806100606000396000f3fe6080604052600436106101815760003560e01c80636861244e116100d1578063b1283e771161008a578063db41b3d011610064578063db41b3d0146105b5578063ec979082146105f2578063f39a469e1461061d578063fe5b3e3b1461065a57610181565b8063b1283e7714610518578063b720e8581461055f578063c3a079ed1461058a57610181565b80636861244e146103e65780638266b03d1461040f578063883c84c11461044c57806391878d36146104755780639cd9ce741461049e578063af88884c146104db57610181565b8063360e2e961161013e5780634fdba009116101185780634fdba0091461034f57806357bde4461461037857806365e6c9c5146103a1578063677bd9ff146103bd57610181565b8063360e2e96146102bc57806343d71e31146102e75780634df8ccb11461032457610181565b8063088574421461018657806315548232146101c3578063176f3d0f146101ee57806319dd1ca51461022b5780631e7db0071461026857806322ecd29614610293575b600080fd5b34801561019257600080fd5b506101ad60048036038101906101a891906125c1565b610697565b6040516101ba9190612607565b60405180910390f35b3480156101cf57600080fd5b506101d86106af565b6040516101e59190612607565b60405180910390f35b3480156101fa57600080fd5b50610215600480360381019061021091906125c1565b6106b4565b604051610222919061263d565b60405180910390f35b34801561023757600080fd5b50610252600480360381019061024d9190612684565b6106d4565b60405161025f9190612607565b60405180910390f35b34801561027457600080fd5b5061027d6106f9565b60405161028a9190612607565b60405180910390f35b34801561029f57600080fd5b506102ba60048036038101906102b591906126c4565b6106fe565b005b3480156102c857600080fd5b506102d161092b565b6040516102de9190612607565b60405180910390f35b3480156102f357600080fd5b5061030e60048036038101906103099190612684565b610932565b60405161031b919061263d565b60405180910390f35b34801561033057600080fd5b50610339610961565b6040516103469190612700565b60405180910390f35b34801561035b57600080fd5b5061037660048036038101906103719190612747565b610985565b005b34801561038457600080fd5b5061039f600480360381019061039a9190612787565b610a6e565b005b6103bb60048036038101906103b69190612787565b610d59565b005b3480156103c957600080fd5b506103e460048036038101906103df91906126c4565b611122565b005b3480156103f257600080fd5b5061040d60048036038101906104089190612787565b611817565b005b34801561041b57600080fd5b50610436600480360381019061043191906125c1565b611bc8565b6040516104439190612607565b60405180910390f35b34801561045857600080fd5b50610473600480360381019061046e919061290d565b611be0565b005b34801561048157600080fd5b5061049c600480360381019061049791906126c4565b611e1e565b005b3480156104aa57600080fd5b506104c560048036038101906104c09190612684565b6122a2565b6040516104d2919061263d565b60405180910390f35b3480156104e757600080fd5b5061050260048036038101906104fd91906126c4565b6122d1565b60405161050f9190612a27565b60405180910390f35b34801561052457600080fd5b5061053f600480360381019061053a91906126c4565b612372565b6040516105569b9a99989796959493929190612b3f565b60405180910390f35b34801561056b57600080fd5b5061057461249b565b6040516105819190612607565b60405180910390f35b34801561059657600080fd5b5061059f6124a0565b6040516105ac9190612607565b60405180910390f35b3480156105c157600080fd5b506105dc60048036038101906105d79190612bf1565b6124a7565b6040516105e99190612700565b60405180910390f35b3480156105fe57600080fd5b506106076124f5565b6040516106149190612607565b60405180910390f35b34801561062957600080fd5b50610644600480360381019061063f9190612684565b6124fb565b604051610651919061263d565b60405180910390f35b34801561066657600080fd5b50610681600480360381019061067c9190612684565b61252a565b60405161068e9190612607565b60405180910390f35b600a6020528060005260406000206000915090505481565b600281565b600b6020528060005260406000206000915054906101000a900460ff1681565b6004602052816000526040600020602052806000526040600020600091509150505481565b601481565b8060008111801561071157506001548111155b610750576040517f08c379a000000000000000000000000000000000000000000000000000000000815260040161074790612c7d565b60405180910390fd5b600b60003373ffffffffffffffffffffffffffffffffffffffff1673ffffffffffffffffffffffffffffffffffffffff16815260200190815260200160002060009054906101000a900460ff166107dc576040517f08c379a00000000000000000000000000000000000000000000000000000000081526004016107d390612d0f565b60405180910390fd5b60006002600084815260200190815260200160002090506206978081600401546108069190612d5e565b421115610848576040517f08c379a000000000000000000000000000000000000000000000000000000000815260040161083f90612dde565b60405180910390fd5b6000600281111561085c5761085b612ac8565b5b8160060160009054906101000a900460ff1660028111156108805761087f612ac8565b5b036108c0576040517f08c379a00000000000000000000000000000000000000000000000000000000081526004016108b790612e70565b60405180910390fd5b60018160060160016101000a81548160ff021916908315150217905550827ff9e85b2267674582d9895ae9424c9ca69bb26284a12207df54e8dde4f07c19e68260060160009054906101000a900460ff1660405161091e9190612e90565b60405180910390a2505050565b62093a8081565b60066020528160005260406000206020528060005260406000206000915091509054906101000a900460ff1681565b60008054906101000a900473ffffffffffffffffffffffffffffffffffffffff1681565b60008054906101000a900473ffffffffffffffffffffffffffffffffffffffff1673ffffffffffffffffffffffffffffffffffffffff163373ffffffffffffffffffffffffffffffffffffffff1614610a13576040517f08c379a0000000000000000000000000000000000000000000000000000000008152600401610a0a90612f1d565b60405180910390fd5b80600b60008473ffffffffffffffffffffffffffffffffffffffff1673ffffffffffffffffffffffffffffffffffffffff16815260200190815260200160002060006101000a81548160ff0219169083151502179055505050565b81600081118015610a8157506001548111155b610ac0576040517f08c379a0000000000000000000000000000000000000000000000000000000008152600401610ab790612c7d565b60405180910390fd5b8260006002811115610ad557610ad4612ac8565b5b6002600083815260200190815260200160002060060160009054906101000a900460ff166002811115610b0b57610b0a612ac8565b5b14610b4b576040517f08c379a0000000000000000000000000000000000000000000000000000000008152600401610b4290612f89565b60405180910390fd5b600b60003373ffffffffffffffffffffffffffffffffffffffff1673ffffffffffffffffffffffffffffffffffffffff16815260200190815260200160002060009054906101000a900460ff16610bd7576040517f08c379a0000000000000000000000000000000000000000000000000000000008152600401610bce90612d0f565b60405180910390fd5b60006002600086815260200190815260200160002090508060000160009054906101000a900473ffffffffffffffffffffffffffffffffffffffff1673ffffffffffffffffffffffffffffffffffffffff163373ffffffffffffffffffffffffffffffffffffffff1614610c80576040517f08c379a0000000000000000000000000000000000000000000000000000000008152600401610c779061301b565b60405180910390fd5b80600501544211610cc6576040517f08c379a0000000000000000000000000000000000000000000000000000000008152600401610cbd906130ad565b60405180910390fd5b42816004018190555083610cdb576002610cde565b60015b8160060160006101000a81548160ff02191690836002811115610d0457610d03612ac8565b5b0217905550847f739f283563fb51ab6b89ee95d937b2e63a6cfcb83c385dbebb629f9d97bd43e68260060160009054906101000a900460ff16604051610d4a9190612e90565b60405180910390a25050505050565b81600081118015610d6c57506001548111155b610dab576040517f08c379a0000000000000000000000000000000000000000000000000000000008152600401610da290612c7d565b60405180910390fd5b8260006002811115610dc057610dbf612ac8565b5b6002600083815260200190815260200160002060060160009054906101000a900460ff166002811115610df657610df5612ac8565b5b14610e36576040517f08c379a0000000000000000000000000000000000000000000000000000000008152600401610e2d90612f89565b60405180910390fd5b600b60003373ffffffffffffffffffffffffffffffffffffffff1673ffffffffffffffffffffffffffffffffffffffff16815260200190815260200160002060009054906101000a900460ff16610ec2576040517f08c379a0000000000000000000000000000000000000000000000000000000008152600401610eb990612d0f565b60405180910390fd5b60003411610f05576040517f08c379a0000000000000000000000000000000000000000000000000000000008152600401610efc90613119565b60405180910390fd5b60026000858152602001908152602001600020600501544210610f5d576040517f08c379a0000000000000000000000000000000000000000000000000000000008152600401610f5490613185565b60405180910390fd5b60006002600086815260200190815260200160002090508315610f9a5734816002016000828254610f8e9190612d5e565b92505081905550610fb6565b34816003016000828254610fae9190612d5e565b925050819055505b346003600087815260200190815260200160002060003373ffffffffffffffffffffffffffffffffffffffff1673ffffffffffffffffffffffffffffffffffffffff16815260200190815260200160002060008282546110169190612d5e565b92505081905550346003600087815260200190815260200160002060003373ffffffffffffffffffffffffffffffffffffffff1673ffffffffffffffffffffffffffffffffffffffff16815260200190815260200160002054036110ca57600960003373ffffffffffffffffffffffffffffffffffffffff1673ffffffffffffffffffffffffffffffffffffffff16815260200190815260200160002060008154809291906110c4906131a5565b91905055505b3373ffffffffffffffffffffffffffffffffffffffff16857f735db38119c48c40c947a31bde6bbf4fd861f73beeb74c6c8fd9173af13931d634876040516111139291906131ed565b60405180910390a35050505050565b8060008111801561113557506001548111155b611174576040517f08c379a000000000000000000000000000000000000000000000000000000000815260040161116b90612c7d565b60405180910390fd5b600b60003373ffffffffffffffffffffffffffffffffffffffff1673ffffffffffffffffffffffffffffffffffffffff16815260200190815260200160002060009054906101000a900460ff16611200576040517f08c379a00000000000000000000000000000000000000000000000000000000081526004016111f790612d0f565b60405180910390fd5b60006002600084815260200190815260200160002090506000600281111561122b5761122a612ac8565b5b8160060160009054906101000a900460ff16600281111561124f5761124e612ac8565b5b0361128f576040517f08c379a000000000000000000000000000000000000000000000000000000000815260040161128690613262565b60405180910390fd5b62093a8081600401546112a29190612d5e565b42116112e3576040517f08c379a00000000000000000000000000000000000000000000000000000000081526004016112da906132ce565b60405180910390fd5b8060060160019054906101000a900460ff161580611308575080600801548160070154115b611347576040517f08c379a000000000000000000000000000000000000000000000000000000000815260040161133e9061333a565b60405180910390fd5b60006003600085815260200190815260200160002060003373ffffffffffffffffffffffffffffffffffffffff1673ffffffffffffffffffffffffffffffffffffffff168152602001908152602001600020549050600081116113df576040517f08c379a00000000000000000000000000000000000000000000000000000000081526004016113d6906133a6565b60405180910390fd5b6005600085815260200190815260200160002060003373ffffffffffffffffffffffffffffffffffffffff1673ffffffffffffffffffffffffffffffffffffffff16815260200190815260200160002060009054906101000a900460ff161561147d576040517f08c379a000000000000000000000000000000000000000000000000000000000815260040161147490613438565b60405180910390fd5b6000826003015483600201546114939190612d5e565b90506000600160028111156114ab576114aa612ac8565b5b8460060160009054906101000a900460ff1660028111156114cf576114ce612ac8565b5b146114de5783600301546114e4565b83600201545b905060008183856114f59190613458565b6114ff91906134c9565b9050600060646002836115129190613458565b61151c91906134c9565b90506000606460148361152f9190613458565b61153991906134c9565b90506000828461154991906134fa565b90508760090160009054906101000a900460ff166116505760008860000160009054906101000a900473ffffffffffffffffffffffffffffffffffffffff1673ffffffffffffffffffffffffffffffffffffffff16836040516115ab9061355f565b60006040518083038185875af1925050503d80600081146115e8576040519150601f19603f3d011682016040523d82523d6000602084013e6115ed565b606091505b5050905080611631576040517f08c379a0000000000000000000000000000000000000000000000000000000008152600401611628906135c0565b60405180910390fd5b60018960090160006101000a81548160ff021916908315150217905550505b60003373ffffffffffffffffffffffffffffffffffffffff16826040516116769061355f565b60006040518083038185875af1925050503d80600081146116b3576040519150601f19603f3d011682016040523d82523d6000602084013e6116b8565b606091505b50509050806116fc576040517f08c379a00000000000000000000000000000000000000000000000000000000081526004016116f39061362c565b60405180910390fd5b81600a60003373ffffffffffffffffffffffffffffffffffffffff1673ffffffffffffffffffffffffffffffffffffffff168152602001908152602001600020600082825461174b9190612d5e565b925050819055506001600560008d815260200190815260200160002060003373ffffffffffffffffffffffffffffffffffffffff1673ffffffffffffffffffffffffffffffffffffffff16815260200190815260200160002060006101000a81548160ff0219169083151502179055503373ffffffffffffffffffffffffffffffffffffffff168b7f5380cf6fe903b40c6d5a9e0dfbca2f3a423f0a21520b4d5947ed5169bdba946d846040516118029190612607565b60405180910390a35050505050505050505050565b8160008111801561182a57506001548111155b611869576040517f08c379a000000000000000000000000000000000000000000000000000000000815260040161186090612c7d565b60405180910390fd5b600b60003373ffffffffffffffffffffffffffffffffffffffff1673ffffffffffffffffffffffffffffffffffffffff16815260200190815260200160002060009054906101000a900460ff166118f5576040517f08c379a00000000000000000000000000000000000000000000000000000000081526004016118ec90612d0f565b60405180910390fd5b60006002600085815260200190815260200160002090508060060160019054906101000a900460ff1661195d576040517f08c379a000000000000000000000000000000000000000000000000000000000815260040161195490613698565b60405180910390fd5b6006600085815260200190815260200160002060003373ffffffffffffffffffffffffffffffffffffffff1673ffffffffffffffffffffffffffffffffffffffff16815260200190815260200160002060009054906101000a900460ff16156119fb576040517f08c379a00000000000000000000000000000000000000000000000000000000081526004016119f29061372a565b60405180910390fd5b8215611a2057806007016000815480929190611a16906131a5565b9190505550611a3b565b806008016000815480929190611a35906131a5565b91905055505b60016006600086815260200190815260200160002060003373ffffffffffffffffffffffffffffffffffffffff1673ffffffffffffffffffffffffffffffffffffffff16815260200190815260200160002060006101000a81548160ff02191690831515021790555060086000858152602001908152602001600020339080600181540180825580915050600190039060005260206000200160009091909190916101000a81548173ffffffffffffffffffffffffffffffffffffffff021916908373ffffffffffffffffffffffffffffffffffffffff160217905550600081600801548260070154611b2e9190612d5e565b9050600281611b3d91906134c9565b82600701541115611b7a5760018260060160006101000a81548160ff02191690836002811115611b7057611b6f612ac8565b5b0217905550611bc1565b600281611b8791906134c9565b82600801541115611bc05760028260060160006101000a81548160ff02191690836002811115611bba57611bb9612ac8565b5b02179055505b5b5050505050565b60096020528060005260406000206000915090505481565b428111611c22576040517f08c379a0000000000000000000000000000000000000000000000000000000008152600401611c1990613796565b60405180910390fd5b60016000815480929190611c35906131a5565b91905055506040518061016001604052803373ffffffffffffffffffffffffffffffffffffffff16815260200183815260200160008152602001600081526020016000815260200182815260200160006002811115611c9757611c96612ac8565b5b815260200160001515815260200160008152602001600081526020016000151581525060026000600154815260200190815260200160002060008201518160000160006101000a81548173ffffffffffffffffffffffffffffffffffffffff021916908373ffffffffffffffffffffffffffffffffffffffff1602179055506020820151816001019081611d2b91906139c2565b5060408201518160020155606082015181600301556080820151816004015560a0820151816005015560c08201518160060160006101000a81548160ff02191690836002811115611d7f57611d7e612ac8565b5b021790555060e08201518160060160016101000a81548160ff021916908315150217905550610100820151816007015561012082015181600801556101408201518160090160006101000a81548160ff0219169083151502179055509050506001547f2d1e9ad45dbe8e898e0374deebf2a661b2ae7c1855d2a29507d584c35d287c758383604051611e12929190613a94565b60405180910390a25050565b80600081118015611e3157506001548111155b611e70576040517f08c379a0000000000000000000000000000000000000000000000000000000008152600401611e6790612c7d565b60405180910390fd5b600060026000848152602001908152602001600020905060006002811115611e9b57611e9a612ac8565b5b8160060160009054906101000a900460ff166002811115611ebf57611ebe612ac8565b5b03611eff576040517f08c379a0000000000000000000000000000000000000000000000000000000008152600401611ef690613262565b60405180910390fd5b62093a808160040154611f129190612d5e565b4211611f53576040517f08c379a0000000000000000000000000000000000000000000000000000000008152600401611f4a906132ce565b60405180910390fd5b8060060160019054906101000a900460ff161580611f78575080600801548160070154115b611fb7576040517f08c379a0000000000000000000000000000000000000000000000000000000008152600401611fae9061333a565b60405180910390fd5b6006600084815260200190815260200160002060003373ffffffffffffffffffffffffffffffffffffffff1673ffffffffffffffffffffffffffffffffffffffff16815260200190815260200160002060009054906101000a900460ff16612054576040517f08c379a000000000000000000000000000000000000000000000000000000000815260040161204b90613b10565b60405180910390fd5b6007600084815260200190815260200160002060003373ffffffffffffffffffffffffffffffffffffffff1673ffffffffffffffffffffffffffffffffffffffff16815260200190815260200160002060009054906101000a900460ff16156120f2576040517f08c379a00000000000000000000000000000000000000000000000000000000081526004016120e990613b7c565b60405180910390fd5b6000816003015482600201546121089190612d5e565b90506000606460058361211b9190613458565b61212591906134c9565b905060008360080154846007015461213d9190612d5e565b8261214891906134c9565b905060003373ffffffffffffffffffffffffffffffffffffffff16826040516121709061355f565b60006040518083038185875af1925050503d80600081146121ad576040519150601f19603f3d011682016040523d82523d6000602084013e6121b2565b606091505b50509050806121f6576040517f08c379a00000000000000000000000000000000000000000000000000000000081526004016121ed90613be8565b60405180910390fd5b60016007600089815260200190815260200160002060003373ffffffffffffffffffffffffffffffffffffffff1673ffffffffffffffffffffffffffffffffffffffff16815260200190815260200160002060006101000a81548160ff021916908315150217905550867f9af5b21cabce4c362b205b388dac7cdf80b3b509bfedc607b74f1790bb5fce373384604051612291929190613c08565b60405180910390a250505050505050565b60076020528160005260406000206020528060005260406000206000915091509054906101000a900460ff1681565b60606008600083815260200190815260200160002080548060200260200160405190810160405280929190818152602001828054801561236657602002820191906000526020600020905b8160009054906101000a900473ffffffffffffffffffffffffffffffffffffffff1673ffffffffffffffffffffffffffffffffffffffff168152602001906001019080831161231c575b50505050509050919050565b60026020528060005260406000206000915090508060000160009054906101000a900473ffffffffffffffffffffffffffffffffffffffff16908060010180546123bb906137e5565b80601f01602080910402602001604051908101604052809291908181526020018280546123e7906137e5565b80156124345780601f1061240957610100808354040283529160200191612434565b820191906000526020600020905b81548152906001019060200180831161241757829003601f168201915b5050505050908060020154908060030154908060040154908060050154908060060160009054906101000a900460ff16908060060160019054906101000a900460ff16908060070154908060080154908060090160009054906101000a900460ff1690508b565b600581565b6206978081565b600860205281600052604060002081815481106124c357600080fd5b906000526020600020016000915091509054906101000a900473ffffffffffffffffffffffffffffffffffffffff1681565b60015481565b60056020528160005260406000206020528060005260406000206000915091509054906101000a900460ff1681565b6003602052816000526040600020602052806000526040600020600091509150505481565b6000604051905090565b600080fd5b600080fd5b600073ffffffffffffffffffffffffffffffffffffffff82169050919050565b600061258e82612563565b9050919050565b61259e81612583565b81146125a957600080fd5b50565b6000813590506125bb81612595565b92915050565b6000602082840312156125d7576125d6612559565b5b60006125e5848285016125ac565b91505092915050565b6000819050919050565b612601816125ee565b82525050565b600060208201905061261c60008301846125f8565b92915050565b60008115159050919050565b61263781612622565b82525050565b6000602082019050612652600083018461262e565b92915050565b612661816125ee565b811461266c57600080fd5b50565b60008135905061267e81612658565b92915050565b6000806040838503121561269b5761269a612559565b5b60006126a98582860161266f565b92505060206126ba858286016125ac565b9150509250929050565b6000602082840312156126da576126d9612559565b5b60006126e88482850161266f565b91505092915050565b6126fa81612583565b82525050565b600060208201905061271560008301846126f1565b92915050565b61272481612622565b811461272f57600080fd5b50565b6000813590506127418161271b565b92915050565b6000806040838503121561275e5761275d612559565b5b600061276c858286016125ac565b925050602061277d85828601612732565b9150509250929050565b6000806040838503121561279e5761279d612559565b5b60006127ac8582860161266f565b92505060206127bd85828601612732565b9150509250929050565b600080fd5b600080fd5b6000601f19601f8301169050919050565b7f4e487b7100000000000000000000000000000000000000000000000000000000600052604160045260246000fd5b61281a826127d1565b810181811067ffffffffffffffff82111715612839576128386127e2565b5b80604052505050565b600061284c61254f565b90506128588282612811565b919050565b600067ffffffffffffffff821115612878576128776127e2565b5b612881826127d1565b9050602081019050919050565b82818337600083830152505050565b60006128b06128ab8461285d565b612842565b9050828152602081018484840111156128cc576128cb6127cc565b5b6128d784828561288e565b509392505050565b600082601f8301126128f4576128f36127c7565b5b813561290484826020860161289d565b91505092915050565b6000806040838503121561292457612923612559565b5b600083013567ffffffffffffffff8111156129425761294161255e565b5b61294e858286016128df565b925050602061295f8582860161266f565b9150509250929050565b600081519050919050565b600082825260208201905092915050565b6000819050602082019050919050565b61299e81612583565b82525050565b60006129b08383612995565b60208301905092915050565b6000602082019050919050565b60006129d482612969565b6129de8185612974565b93506129e983612985565b8060005b83811015612a1a578151612a0188826129a4565b9750612a0c836129bc565b9250506001810190506129ed565b5085935050505092915050565b60006020820190508181036000830152612a4181846129c9565b905092915050565b600081519050919050565b600082825260208201905092915050565b60005b83811015612a83578082015181840152602081019050612a68565b60008484015250505050565b6000612a9a82612a49565b612aa48185612a54565b9350612ab4818560208601612a65565b612abd816127d1565b840191505092915050565b7f4e487b7100000000000000000000000000000000000000000000000000000000600052602160045260246000fd5b60038110612b0857612b07612ac8565b5b50565b6000819050612b1982612af7565b919050565b6000612b2982612b0b565b9050919050565b612b3981612b1e565b82525050565b600061016082019050612b55600083018e6126f1565b8181036020830152612b67818d612a8f565b9050612b76604083018c6125f8565b612b83606083018b6125f8565b612b90608083018a6125f8565b612b9d60a08301896125f8565b612baa60c0830188612b30565b612bb760e083018761262e565b612bc56101008301866125f8565b612bd36101208301856125f8565b612be161014083018461262e565b9c9b505050505050505050505050565b60008060408385031215612c0857612c07612559565b5b6000612c168582860161266f565b9250506020612c278582860161266f565b9150509250929050565b7f496e76616c6964206d61726b6574204944000000000000000000000000000000600082015250565b6000612c67601183612a54565b9150612c7282612c31565b602082019050919050565b60006020820190508181036000830152612c9681612c5a565b9050919050565b7f55736572206973206e6f74207665726966696564207769746820576f726c646360008201527f6f696e0000000000000000000000000000000000000000000000000000000000602082015250565b6000612cf9602383612a54565b9150612d0482612c9d565b604082019050919050565b60006020820190508181036000830152612d2881612cec565b9050919050565b7f4e487b7100000000000000000000000000000000000000000000000000000000600052601160045260246000fd5b6000612d69826125ee565b9150612d74836125ee565b9250828201905080821115612d8c57612d8b612d2f565b5b92915050565b7f4368616c6c656e676520706572696f6420686173206578706972656400000000600082015250565b6000612dc8601c83612a54565b9150612dd382612d92565b602082019050919050565b60006020820190508181036000830152612df781612dbb565b9050919050565b7f4d61726b6574206d757374206265207265736f6c76656420746f206368616c6c60008201527f656e676500000000000000000000000000000000000000000000000000000000602082015250565b6000612e5a602483612a54565b9150612e6582612dfe565b604082019050919050565b60006020820190508181036000830152612e8981612e4d565b9050919050565b6000602082019050612ea56000830184612b30565b92915050565b7f4f6e6c792074686520706c6174666f726d206f776e65722063616e2063616c6c60008201527f20746869732066756e6374696f6e000000000000000000000000000000000000602082015250565b6000612f07602e83612a54565b9150612f1282612eab565b604082019050919050565b60006020820190508181036000830152612f3681612efa565b9050919050565b7f4d61726b657420616c7265616479207265736f6c766564000000000000000000600082015250565b6000612f73601783612a54565b9150612f7e82612f3d565b602082019050919050565b60006020820190508181036000830152612fa281612f66565b9050919050565b7f4f6e6c7920746865206d61726b6574206f776e65722063616e2063616c6c207460008201527f6869732066756e6374696f6e0000000000000000000000000000000000000000602082015250565b6000613005602c83612a54565b915061301082612fa9565b604082019050919050565b6000602082019050818103600083015261303481612ff8565b9050919050565b7f43616e6e6f74207265736f6c7665206d61726b6574206265666f726520656e6460008201527f2064617465000000000000000000000000000000000000000000000000000000602082015250565b6000613097602583612a54565b91506130a28261303b565b604082019050919050565b600060208201905081810360008301526130c68161308a565b9050919050565b7f416d6f756e74206d7573742062652067726561746572207468616e2030000000600082015250565b6000613103601d83612a54565b915061310e826130cd565b602082019050919050565b60006020820190508181036000830152613132816130f6565b9050919050565b7f566f74696e6720706572696f642068617320656e646564000000000000000000600082015250565b600061316f601783612a54565b915061317a82613139565b602082019050919050565b6000602082019050818103600083015261319e81613162565b9050919050565b60006131b0826125ee565b91507fffffffffffffffffffffffffffffffffffffffffffffffffffffffffffffffff82036131e2576131e1612d2f565b5b600182019050919050565b600060408201905061320260008301856125f8565b61320f602083018461262e565b9392505050565b7f4d61726b6574206e6f7420796574207265736f6c766564000000000000000000600082015250565b600061324c601783612a54565b915061325782613216565b602082019050919050565b6000602082019050818103600083015261327b8161323f565b9050919050565b7f4c6f636b2d696e20706572696f6420686173206e6f7420656e64656400000000600082015250565b60006132b8601c83612a54565b91506132c382613282565b602082019050919050565b600060208201905081810360008301526132e7816132ab565b9050919050565b7f4368616c6c656e67657320756e7265736f6c7665640000000000000000000000600082015250565b6000613324601583612a54565b915061332f826132ee565b602082019050919050565b6000602082019050818103600083015261335381613317565b9050919050565b7f4e6f20766f74657320706c616365642062792075736572000000000000000000600082015250565b6000613390601783612a54565b915061339b8261335a565b602082019050919050565b600060208201905081810360008301526133bf81613383565b9050919050565b7f57696e6e696e677320616c726561647920636c61696d6564206279207468697360008201527f2075736572000000000000000000000000000000000000000000000000000000602082015250565b6000613422602583612a54565b915061342d826133c6565b604082019050919050565b6000602082019050818103600083015261345181613415565b9050919050565b6000613463826125ee565b915061346e836125ee565b925082820261347c816125ee565b9150828204841483151761349357613492612d2f565b5b5092915050565b7f4e487b7100000000000000000000000000000000000000000000000000000000600052601260045260246000fd5b60006134d4826125ee565b91506134df836125ee565b9250826134ef576134ee61349a565b5b828204905092915050565b6000613505826125ee565b9150613510836125ee565b925082820390508181111561352857613527612d2f565b5b92915050565b600081905092915050565b50565b600061354960008361352e565b915061355482613539565b600082019050919050565b600061356a8261353c565b9150819050919050565b7f4661696c656420746f2073656e64206f776e6572277320666565000000000000600082015250565b60006135aa601a83612a54565b91506135b582613574565b602082019050919050565b600060208201905081810360008301526135d98161359d565b9050919050565b7f4661696c656420746f2073656e642077696e6e696e6773000000000000000000600082015250565b6000613616601783612a54565b9150613621826135e0565b602082019050919050565b6000602082019050818103600083015261364581613609565b9050919050565b7f4d61726b657420686173206e6f74206265656e206368616c6c656e6765640000600082015250565b6000613682601e83612a54565b915061368d8261364c565b602082019050919050565b600060208201905081810360008301526136b181613675565b9050919050565b7f596f75206861766520616c726561647920766f7465642061732061206375726160008201527f746f720000000000000000000000000000000000000000000000000000000000602082015250565b6000613714602383612a54565b915061371f826136b8565b604082019050919050565b6000602082019050818103600083015261374381613707565b9050919050565b7f456e642064617465206d75737420626520696e20746865206675747572650000600082015250565b6000613780601e83612a54565b915061378b8261374a565b602082019050919050565b600060208201905081810360008301526137af81613773565b9050919050565b7f4e487b7100000000000000000000000000000000000000000000000000000000600052602260045260246000fd5b600060028204905060018216806137fd57607f821691505b6020821081036138105761380f6137b6565b5b50919050565b60008190508160005260206000209050919050565b60006020601f8301049050919050565b600082821b905092915050565b6000600883026138787fffffffffffffffffffffffffffffffffffffffffffffffffffffffffffffffff8261383b565b613882868361383b565b95508019841693508086168417925050509392505050565b6000819050919050565b60006138bf6138ba6138b5846125ee565b61389a565b6125ee565b9050919050565b6000819050919050565b6138d9836138a4565b6138ed6138e5826138c6565b848454613848565b825550505050565b600090565b6139026138f5565b61390d8184846138d0565b505050565b5b81811015613931576139266000826138fa565b600181019050613913565b5050565b601f8211156139765761394781613816565b6139508461382b565b8101602085101561395f578190505b61397361396b8561382b565b830182613912565b50505b505050565b600082821c905092915050565b60006139996000198460080261397b565b1980831691505092915050565b60006139b28383613988565b9150826002028217905092915050565b6139cb82612a49565b67ffffffffffffffff8111156139e4576139e36127e2565b5b6139ee82546137e5565b6139f9828285613935565b600060209050601f831160018114613a2c5760008415613a1a578287015190505b613a2485826139a6565b865550613a8c565b601f198416613a3a86613816565b60005b82811015613a6257848901518255600182019150602085019450602081019050613a3d565b86831015613a7f5784890151613a7b601f891682613988565b8355505b6001600288020188555050505b505050505050565b60006040820190508181036000830152613aae8185612a8f565b9050613abd60208301846125f8565b9392505050565b7f4e6f7420612063757261746f7220666f722074686973206d61726b6574000000600082015250565b6000613afa601d83612a54565b9150613b0582613ac4565b602082019050919050565b60006020820190508181036000830152613b2981613aed565b9050919050565b7f43757261746f722066656520616c726561647920636c61696d65640000000000600082015250565b6000613b66601b83612a54565b9150613b7182613b30565b602082019050919050565b60006020820190508181036000830152613b9581613b59565b9050919050565b7f4661696c656420746f2073656e642063757261746f7220666565000000000000600082015250565b6000613bd2601a83612a54565b9150613bdd82613b9c565b602082019050919050565b60006020820190508181036000830152613c0181613bc5565b9050919050565b6000604082019050613c1d60008301856126f1565b613c2a60208301846125f8565b939250505056fea26469706673582212206ba7938e1d8b1ff1900b2ec75fa4b8c4ba4ddad4d0234556aed1d520ae26930d64736f6c63430008140033",
  "linkReferences": {},
  "deployedLinkReferences": {}
}