{
  "_format": "hh-sol-artifact-1",
  "contractName": "PredictionMarket",
  "sourceName": "contracts/PredictionMarket.sol",
  "abi": [
    {
      "anonymous": false,
      "inputs": [
        {
          "indexed": true,
          "internalType": "uint256",
          "name": "id",
          "type": "uint256"
        },
        {
          "indexed": false,
          "internalType": "string",
          "name": "action",
          "type": "string"
        }
      ],
      "name": "MarketStateChanged",
      "type": "event"
    },
    {
      "inputs": [
        {
          "internalType": "uint256",
          "name": "_marketId",
          "type": "uint256"
        },
        {
          "internalType": "address",
          "name": "_user",
          "type": "address"
        }
      ],
      "name": "calculateWinnings",
      "outputs": [
        {
          "internalType": "uint256",
          "name": "",
          "type": "uint256"
        }
      ],
      "stateMutability": "view",
      "type": "function"
    },
    {
      "inputs": [
        {
          "internalType": "uint256",
          "name": "_marketId",
          "type": "uint256"
        }
      ],
      "name": "claimWinnings",
      "outputs": [],
      "stateMutability": "nonpayable",
      "type": "function"
    },
    {
      "inputs": [
        {
          "internalType": "string",
          "name": "_question",
          "type": "string"
        },
        {
          "internalType": "uint256",
          "name": "_endDate",
          "type": "uint256"
        }
      ],
      "name": "createMarket",
      "outputs": [],
      "stateMutability": "nonpayable",
      "type": "function"
    },
    {
      "inputs": [
        {
          "internalType": "uint256",
          "name": "_marketId",
          "type": "uint256"
        }
      ],
      "name": "getMarketDetails",
      "outputs": [
        {
          "internalType": "address",
          "name": "owner",
          "type": "address"
        },
        {
          "internalType": "string",
          "name": "question",
          "type": "string"
        },
        {
          "internalType": "uint256",
          "name": "totalYesStake",
          "type": "uint256"
        },
        {
          "internalType": "uint256",
          "name": "totalNoStake",
          "type": "uint256"
        },
        {
          "internalType": "uint256",
          "name": "endDate",
          "type": "uint256"
        },
        {
          "internalType": "enum PredictionMarket.Outcome",
          "name": "outcome",
          "type": "uint8"
        }
      ],
      "stateMutability": "view",
      "type": "function"
    },
    {
      "inputs": [
        {
          "internalType": "uint256",
          "name": "_marketId",
          "type": "uint256"
        }
      ],
      "name": "getMarketOutcome",
      "outputs": [
        {
          "internalType": "enum PredictionMarket.Outcome",
          "name": "",
          "type": "uint8"
        }
      ],
      "stateMutability": "view",
      "type": "function"
    },
    {
      "inputs": [
        {
          "internalType": "uint256",
          "name": "_marketId",
          "type": "uint256"
        },
        {
          "internalType": "address",
          "name": "_user",
          "type": "address"
        }
      ],
      "name": "getUserStake",
      "outputs": [
        {
          "internalType": "uint256",
          "name": "stake",
          "type": "uint256"
        },
        {
          "internalType": "bool",
          "name": "votedYes",
          "type": "bool"
        }
      ],
      "stateMutability": "view",
      "type": "function"
    },
    {
      "inputs": [],
      "name": "marketCount",
      "outputs": [
        {
          "internalType": "uint256",
          "name": "",
          "type": "uint256"
        }
      ],
      "stateMutability": "view",
      "type": "function"
    },
    {
      "inputs": [
        {
          "internalType": "uint256",
          "name": "",
          "type": "uint256"
        }
      ],
      "name": "markets",
      "outputs": [
        {
          "internalType": "address",
          "name": "owner",
          "type": "address"
        },
        {
          "internalType": "string",
          "name": "question",
          "type": "string"
        },
        {
          "internalType": "uint256",
          "name": "totalYesStake",
          "type": "uint256"
        },
        {
          "internalType": "uint256",
          "name": "totalNoStake",
          "type": "uint256"
        },
        {
          "internalType": "uint256",
          "name": "endDate",
          "type": "uint256"
        },
        {
          "internalType": "enum PredictionMarket.Outcome",
          "name": "outcome",
          "type": "uint8"
        }
      ],
      "stateMutability": "view",
      "type": "function"
    },
    {
      "inputs": [
        {
          "internalType": "uint256",
          "name": "_marketId",
          "type": "uint256"
        },
        {
          "internalType": "bool",
          "name": "_prediction",
          "type": "bool"
        }
      ],
      "name": "placeStake",
      "outputs": [],
      "stateMutability": "payable",
      "type": "function"
    },
    {
      "inputs": [
        {
          "internalType": "uint256",
          "name": "_marketId",
          "type": "uint256"
        },
        {
          "internalType": "bool",
          "name": "_outcome",
          "type": "bool"
        }
      ],
      "name": "resolveMarket",
      "outputs": [],
      "stateMutability": "nonpayable",
      "type": "function"
    }
  ],
  "bytecode": "0x608060405234801561001057600080fd5b5061244d806100206000396000f3fe6080604052600436106100915760003560e01c8063b1283e7711610059578063b1283e7714610191578063cc98ba58146101d3578063d1145f10146101ef578063ec9790821461022c578063f15cc4061461025757610091565b806357bde44614610096578063677bd9ff146100bf578063883c84c1146100e85780639626a23014610111578063b06c1ba31461014f575b600080fd5b3480156100a257600080fd5b506100bd60048036038101906100b89190611449565b610294565b005b3480156100cb57600080fd5b506100e660048036038101906100e19190611489565b6104c1565b005b3480156100f457600080fd5b5061010f600480360381019061010a91906115fc565b61094c565b005b34801561011d57600080fd5b50610138600480360381019061013391906116b6565b610a58565b604051610146929190611714565b60405180910390f35b34801561015b57600080fd5b5061017660048036038101906101719190611489565b610b60565b60405161018896959493929190611842565b60405180910390f35b34801561019d57600080fd5b506101b860048036038101906101b39190611489565b610cbe565b6040516101ca96959493929190611842565b60405180910390f35b6101ed60048036038101906101e89190611449565b610daf565b005b3480156101fb57600080fd5b5061021660048036038101906102119190611489565b611046565b60405161022391906118aa565b60405180910390f35b34801561023857600080fd5b506102416110c3565b60405161024e91906118c5565b60405180910390f35b34801561026357600080fd5b5061027e600480360381019061027991906116b6565b6110c9565b60405161028b91906118c5565b60405180910390f35b6000821180156102a657506000548211155b6102e5576040517f08c379a00000000000000000000000000000000000000000000000000000000081526004016102dc9061192c565b60405180910390fd5b60006001600084815260200190815260200160002090508060000160009054906101000a900473ffffffffffffffffffffffffffffffffffffffff1673ffffffffffffffffffffffffffffffffffffffff163373ffffffffffffffffffffffffffffffffffffffff161461038e576040517f08c379a0000000000000000000000000000000000000000000000000000000008152600401610385906119be565b60405180910390fd5b806004015442116103d4576040517f08c379a00000000000000000000000000000000000000000000000000000000081526004016103cb90611a50565b60405180910390fd5b600060028111156103e8576103e76117cb565b5b8160050160009054906101000a900460ff16600281111561040c5761040b6117cb565b5b1461044c576040517f08c379a000000000000000000000000000000000000000000000000000000000815260040161044390611abc565b60405180910390fd5b8161045857600261045b565b60015b8160050160006101000a81548160ff02191690836002811115610481576104806117cb565b5b0217905550827f6c4c673de56fc2f5caa6b45750bd06edab043c7fbf14004f87cebeec9d72bf286040516104b490611b28565b60405180910390a2505050565b6000811180156104d357506000548111155b610512576040517f08c379a00000000000000000000000000000000000000000000000000000000081526004016105099061192c565b60405180910390fd5b60006001600083815260200190815260200160002090506000600281111561053d5761053c6117cb565b5b8160050160009054906101000a900460ff166002811115610561576105606117cb565b5b036105a1576040517f08c379a000000000000000000000000000000000000000000000000000000000815260040161059890611b94565b60405180910390fd5b600033905060008260060160008373ffffffffffffffffffffffffffffffffffffffff1673ffffffffffffffffffffffffffffffffffffffff1681526020019081526020016000205490506000811161062f576040517f08c379a000000000000000000000000000000000000000000000000000000000815260040161062690611c00565b60405180910390fd5b600060016002811115610645576106446117cb565b5b8460050160009054906101000a900460ff166002811115610669576106686117cb565b5b1480156106c157508360070160008473ffffffffffffffffffffffffffffffffffffffff1673ffffffffffffffffffffffffffffffffffffffff16815260200190815260200160002060009054906101000a900460ff165b8061075857506002808111156106da576106d96117cb565b5b8460050160009054906101000a900460ff1660028111156106fe576106fd6117cb565b5b14801561075757508360070160008473ffffffffffffffffffffffffffffffffffffffff1673ffffffffffffffffffffffffffffffffffffffff16815260200190815260200160002060009054906101000a900460ff16155b5b90508061079a576040517f08c379a000000000000000000000000000000000000000000000000000000000815260040161079190611c92565b60405180910390fd5b6000600160028111156107b0576107af6117cb565b5b8560050160009054906101000a900460ff1660028111156107d4576107d36117cb565b5b146107e35784600301546107e9565b84600201545b9050600081866003015487600201546108029190611ce1565b8561080d9190611d15565b6108179190611d86565b905060008660060160008773ffffffffffffffffffffffffffffffffffffffff1673ffffffffffffffffffffffffffffffffffffffff1681526020019081526020016000208190555060008573ffffffffffffffffffffffffffffffffffffffff168260405161088690611de8565b60006040518083038185875af1925050503d80600081146108c3576040519150601f19603f3d011682016040523d82523d6000602084013e6108c8565b606091505b505090508061090c576040517f08c379a000000000000000000000000000000000000000000000000000000000815260040161090390611e49565b60405180910390fd5b877f6c4c673de56fc2f5caa6b45750bd06edab043c7fbf14004f87cebeec9d72bf2860405161093a90611eb5565b60405180910390a25050505050505050565b42811161098e576040517f08c379a000000000000000000000000000000000000000000000000000000000815260040161098590611f21565b60405180910390fd5b6000808154809291906109a090611f41565b9190505550600060016000805481526020019081526020016000209050338160000160006101000a81548173ffffffffffffffffffffffffffffffffffffffff021916908373ffffffffffffffffffffffffffffffffffffffff16021790555082816001019081610a119190612195565b508181600401819055506000547f6c4c673de56fc2f5caa6b45750bd06edab043c7fbf14004f87cebeec9d72bf28604051610a4b906122b3565b60405180910390a2505050565b600080600084118015610a6d57506000548411155b610aac576040517f08c379a0000000000000000000000000000000000000000000000000000000008152600401610aa39061192c565b60405180910390fd5b60006001600086815260200190815260200160002090508060060160008573ffffffffffffffffffffffffffffffffffffffff1673ffffffffffffffffffffffffffffffffffffffff168152602001908152602001600020548160070160008673ffffffffffffffffffffffffffffffffffffffff1673ffffffffffffffffffffffffffffffffffffffff16815260200190815260200160002060009054906101000a900460ff1692509250509250929050565b60006060600080600080600087118015610b7c57506000548711155b610bbb576040517f08c379a0000000000000000000000000000000000000000000000000000000008152600401610bb29061192c565b60405180910390fd5b60006001600089815260200190815260200160002090508060000160009054906101000a900473ffffffffffffffffffffffffffffffffffffffff16816001018260020154836003015484600401548560050160009054906101000a900460ff16848054610c2890611fb8565b80601f0160208091040260200160405190810160405280929190818152602001828054610c5490611fb8565b8015610ca15780601f10610c7657610100808354040283529160200191610ca1565b820191906000526020600020905b815481529060010190602001808311610c8457829003601f168201915b505050505094509650965096509650965096505091939550919395565b60016020528060005260406000206000915090508060000160009054906101000a900473ffffffffffffffffffffffffffffffffffffffff1690806001018054610d0790611fb8565b80601f0160208091040260200160405190810160405280929190818152602001828054610d3390611fb8565b8015610d805780601f10610d5557610100808354040283529160200191610d80565b820191906000526020600020905b815481529060010190602001808311610d6357829003601f168201915b5050505050908060020154908060030154908060040154908060050160009054906101000a900460ff16905086565b600082118015610dc157506000548211155b610e00576040517f08c379a0000000000000000000000000000000000000000000000000000000008152600401610df79061192c565b60405180910390fd5b60003411610e43576040517f08c379a0000000000000000000000000000000000000000000000000000000008152600401610e3a9061231f565b60405180910390fd5b600060016000848152602001908152602001600020905080600401544210610ea0576040517f08c379a0000000000000000000000000000000000000000000000000000000008152600401610e979061238b565b60405180910390fd5b60006002811115610eb457610eb36117cb565b5b8160050160009054906101000a900460ff166002811115610ed857610ed76117cb565b5b14610f18576040517f08c379a0000000000000000000000000000000000000000000000000000000008152600401610f0f90611abc565b60405180910390fd5b8115610f3e5734816002016000828254610f329190611ce1565b92505081905550610f5a565b34816003016000828254610f529190611ce1565b925050819055505b348160060160003373ffffffffffffffffffffffffffffffffffffffff1673ffffffffffffffffffffffffffffffffffffffff1681526020019081526020016000206000828254610fab9190611ce1565b92505081905550818160070160003373ffffffffffffffffffffffffffffffffffffffff1673ffffffffffffffffffffffffffffffffffffffff16815260200190815260200160002060006101000a81548160ff021916908315150217905550827f6c4c673de56fc2f5caa6b45750bd06edab043c7fbf14004f87cebeec9d72bf28604051611039906123f7565b60405180910390a2505050565b6000808211801561105957506000548211155b611098576040517f08c379a000000000000000000000000000000000000000000000000000000000815260040161108f9061192c565b60405180910390fd5b6001600083815260200190815260200160002060050160009054906101000a900460ff169050919050565b60005481565b600080831180156110dc57506000548311155b61111b576040517f08c379a00000000000000000000000000000000000000000000000000000000081526004016111129061192c565b60405180910390fd5b600060016000858152602001908152602001600020905060006002811115611146576111456117cb565b5b8160050160009054906101000a900460ff16600281111561116a576111696117cb565b5b036111aa576040517f08c379a00000000000000000000000000000000000000000000000000000000081526004016111a190611b94565b60405180910390fd5b60008160060160008573ffffffffffffffffffffffffffffffffffffffff1673ffffffffffffffffffffffffffffffffffffffff16815260200190815260200160002054905060008103611203576000925050506113c1565b600060016002811115611219576112186117cb565b5b8360050160009054906101000a900460ff16600281111561123d5761123c6117cb565b5b14801561129557508260070160008673ffffffffffffffffffffffffffffffffffffffff1673ffffffffffffffffffffffffffffffffffffffff16815260200190815260200160002060009054906101000a900460ff165b8061132c57506002808111156112ae576112ad6117cb565b5b8360050160009054906101000a900460ff1660028111156112d2576112d16117cb565b5b14801561132b57508260070160008673ffffffffffffffffffffffffffffffffffffffff1673ffffffffffffffffffffffffffffffffffffffff16815260200190815260200160002060009054906101000a900460ff16155b5b90508061133f57600093505050506113c1565b600060016002811115611355576113546117cb565b5b8460050160009054906101000a900460ff166002811115611379576113786117cb565b5b1461138857836003015461138e565b83600201545b905080846003015485600201546113a59190611ce1565b846113b09190611d15565b6113ba9190611d86565b9450505050505b92915050565b6000604051905090565b600080fd5b600080fd5b6000819050919050565b6113ee816113db565b81146113f957600080fd5b50565b60008135905061140b816113e5565b92915050565b60008115159050919050565b61142681611411565b811461143157600080fd5b50565b6000813590506114438161141d565b92915050565b600080604083850312156114605761145f6113d1565b5b600061146e858286016113fc565b925050602061147f85828601611434565b9150509250929050565b60006020828403121561149f5761149e6113d1565b5b60006114ad848285016113fc565b91505092915050565b600080fd5b600080fd5b6000601f19601f8301169050919050565b7f4e487b7100000000000000000000000000000000000000000000000000000000600052604160045260246000fd5b611509826114c0565b810181811067ffffffffffffffff82111715611528576115276114d1565b5b80604052505050565b600061153b6113c7565b90506115478282611500565b919050565b600067ffffffffffffffff821115611567576115666114d1565b5b611570826114c0565b9050602081019050919050565b82818337600083830152505050565b600061159f61159a8461154c565b611531565b9050828152602081018484840111156115bb576115ba6114bb565b5b6115c684828561157d565b509392505050565b600082601f8301126115e3576115e26114b6565b5b81356115f384826020860161158c565b91505092915050565b60008060408385031215611613576116126113d1565b5b600083013567ffffffffffffffff811115611631576116306113d6565b5b61163d858286016115ce565b925050602061164e858286016113fc565b9150509250929050565b600073ffffffffffffffffffffffffffffffffffffffff82169050919050565b600061168382611658565b9050919050565b61169381611678565b811461169e57600080fd5b50565b6000813590506116b08161168a565b92915050565b600080604083850312156116cd576116cc6113d1565b5b60006116db858286016113fc565b92505060206116ec858286016116a1565b9150509250929050565b6116ff816113db565b82525050565b61170e81611411565b82525050565b600060408201905061172960008301856116f6565b6117366020830184611705565b9392505050565b61174681611678565b82525050565b600081519050919050565b600082825260208201905092915050565b60005b8381101561178657808201518184015260208101905061176b565b60008484015250505050565b600061179d8261174c565b6117a78185611757565b93506117b7818560208601611768565b6117c0816114c0565b840191505092915050565b7f4e487b7100000000000000000000000000000000000000000000000000000000600052602160045260246000fd5b6003811061180b5761180a6117cb565b5b50565b600081905061181c826117fa565b919050565b600061182c8261180e565b9050919050565b61183c81611821565b82525050565b600060c082019050611857600083018961173d565b81810360208301526118698188611792565b905061187860408301876116f6565b61188560608301866116f6565b61189260808301856116f6565b61189f60a0830184611833565b979650505050505050565b60006020820190506118bf6000830184611833565b92915050565b60006020820190506118da60008301846116f6565b92915050565b7f496e76616c6964206d61726b6574204944000000000000000000000000000000600082015250565b6000611916601183611757565b9150611921826118e0565b602082019050919050565b6000602082019050818103600083015261194581611909565b9050919050565b7f4f6e6c7920746865206d61726b6574206f776e65722063616e207265736f6c7660008201527f6500000000000000000000000000000000000000000000000000000000000000602082015250565b60006119a8602183611757565b91506119b38261194c565b604082019050919050565b600060208201905081810360008301526119d78161199b565b9050919050565b7f43616e6e6f74207265736f6c7665206d61726b6574206265666f726520656e6460008201527f2064617465000000000000000000000000000000000000000000000000000000602082015250565b6000611a3a602583611757565b9150611a45826119de565b604082019050919050565b60006020820190508181036000830152611a6981611a2d565b9050919050565b7f4d61726b657420616c7265616479207265736f6c766564000000000000000000600082015250565b6000611aa6601783611757565b9150611ab182611a70565b602082019050919050565b60006020820190508181036000830152611ad581611a99565b9050919050565b7f5265736f6c766564000000000000000000000000000000000000000000000000600082015250565b6000611b12600883611757565b9150611b1d82611adc565b602082019050919050565b60006020820190508181036000830152611b4181611b05565b9050919050565b7f4d61726b6574206e6f7420796574207265736f6c766564000000000000000000600082015250565b6000611b7e601783611757565b9150611b8982611b48565b602082019050919050565b60006020820190508181036000830152611bad81611b71565b9050919050565b7f4e6f207374616b65206d61646520627920757365720000000000000000000000600082015250565b6000611bea601583611757565b9150611bf582611bb4565b602082019050919050565b60006020820190508181036000830152611c1981611bdd565b9050919050565b7f5573657220646964206e6f74207374616b65206f6e207468652077696e6e696e60008201527f67206f7574636f6d650000000000000000000000000000000000000000000000602082015250565b6000611c7c602983611757565b9150611c8782611c20565b604082019050919050565b60006020820190508181036000830152611cab81611c6f565b9050919050565b7f4e487b7100000000000000000000000000000000000000000000000000000000600052601160045260246000fd5b6000611cec826113db565b9150611cf7836113db565b9250828201905080821115611d0f57611d0e611cb2565b5b92915050565b6000611d20826113db565b9150611d2b836113db565b9250828202611d39816113db565b91508282048414831517611d5057611d4f611cb2565b5b5092915050565b7f4e487b7100000000000000000000000000000000000000000000000000000000600052601260045260246000fd5b6000611d91826113db565b9150611d9c836113db565b925082611dac57611dab611d57565b5b828204905092915050565b600081905092915050565b50565b6000611dd2600083611db7565b9150611ddd82611dc2565b600082019050919050565b6000611df382611dc5565b9150819050919050565b7f4661696c656420746f2073656e642077696e6e696e6773000000000000000000600082015250565b6000611e33601783611757565b9150611e3e82611dfd565b602082019050919050565b60006020820190508181036000830152611e6281611e26565b9050919050565b7f57696e6e696e6773436c61696d65640000000000000000000000000000000000600082015250565b6000611e9f600f83611757565b9150611eaa82611e69565b602082019050919050565b60006020820190508181036000830152611ece81611e92565b9050919050565b7f456e642064617465206d75737420626520696e20746865206675747572650000600082015250565b6000611f0b601e83611757565b9150611f1682611ed5565b602082019050919050565b60006020820190508181036000830152611f3a81611efe565b9050919050565b6000611f4c826113db565b91507fffffffffffffffffffffffffffffffffffffffffffffffffffffffffffffffff8203611f7e57611f7d611cb2565b5b600182019050919050565b7f4e487b7100000000000000000000000000000000000000000000000000000000600052602260045260246000fd5b60006002820490506001821680611fd057607f821691505b602082108103611fe357611fe2611f89565b5b50919050565b60008190508160005260206000209050919050565b60006020601f8301049050919050565b600082821b905092915050565b60006008830261204b7fffffffffffffffffffffffffffffffffffffffffffffffffffffffffffffffff8261200e565b612055868361200e565b95508019841693508086168417925050509392505050565b6000819050919050565b600061209261208d612088846113db565b61206d565b6113db565b9050919050565b6000819050919050565b6120ac83612077565b6120c06120b882612099565b84845461201b565b825550505050565b600090565b6120d56120c8565b6120e08184846120a3565b505050565b5b81811015612104576120f96000826120cd565b6001810190506120e6565b5050565b601f8211156121495761211a81611fe9565b61212384611ffe565b81016020851015612132578190505b61214661213e85611ffe565b8301826120e5565b50505b505050565b600082821c905092915050565b600061216c6000198460080261214e565b1980831691505092915050565b6000612185838361215b565b9150826002028217905092915050565b61219e8261174c565b67ffffffffffffffff8111156121b7576121b66114d1565b5b6121c18254611fb8565b6121cc828285612108565b600060209050601f8311600181146121ff57600084156121ed578287015190505b6121f78582612179565b86555061225f565b601f19841661220d86611fe9565b60005b8281101561223557848901518255600182019150602085019450602081019050612210565b86831015612252578489015161224e601f89168261215b565b8355505b6001600288020188555050505b505050505050565b7f4372656174656400000000000000000000000000000000000000000000000000600082015250565b600061229d600783611757565b91506122a882612267565b602082019050919050565b600060208201905081810360008301526122cc81612290565b9050919050565b7f5374616b65206d7573742062652067726561746572207468616e203000000000600082015250565b6000612309601c83611757565b9150612314826122d3565b602082019050919050565b60006020820190508181036000830152612338816122fc565b9050919050565b7f4d61726b65742068617320656e64656400000000000000000000000000000000600082015250565b6000612375601083611757565b91506123808261233f565b602082019050919050565b600060208201905081810360008301526123a481612368565b9050919050565b7f5374616b65506c61636564000000000000000000000000000000000000000000600082015250565b60006123e1600b83611757565b91506123ec826123ab565b602082019050919050565b60006020820190508181036000830152612410816123d4565b905091905056fea264697066735822122013260cfa8bcb4d7e52185eb0d26ef9e80f560d3b6a2572ec82d314d9f71e009c64736f6c63430008140033",
  "linkReferences": {},
  "deployedLinkReferences": {}
}