{
  "_format": "hh-sol-artifact-1",
  "contractName": "PredictionMarket",
  "sourceName": "contracts/PredictionMarket.sol",
  "abi": [
    {
      "inputs": [
        {
          "internalType": "address",
          "name": "_maciContractAddress",
          "type": "address"
        }
      ],
      "stateMutability": "nonpayable",
      "type": "constructor"
    },
    {
      "anonymous": false,
      "inputs": [
        {
          "indexed": false,
          "internalType": "uint256",
          "name": "_marketId",
          "type": "uint256"
        },
        {
          "indexed": false,
          "internalType": "address",
          "name": "curator",
          "type": "address"
        },
        {
          "indexed": false,
          "internalType": "uint256",
          "name": "curatorShare",
          "type": "uint256"
        }
      ],
      "name": "CuratorFeeClaimed",
      "type": "event"
    },
    {
      "anonymous": false,
      "inputs": [
        {
          "indexed": true,
          "internalType": "uint256",
          "name": "id",
          "type": "uint256"
        },
        {
          "indexed": false,
          "internalType": "enum PredictionMarket.MarketOutcome",
          "name": "proposedOutcome",
          "type": "uint8"
        }
      ],
      "name": "MarketChallenged",
      "type": "event"
    },
    {
      "anonymous": false,
      "inputs": [
        {
          "indexed": true,
          "internalType": "uint256",
          "name": "id",
          "type": "uint256"
        },
        {
          "indexed": false,
          "internalType": "string",
          "name": "question",
          "type": "string"
        },
        {
          "indexed": false,
          "internalType": "uint256",
          "name": "endDate",
          "type": "uint256"
        }
      ],
      "name": "MarketCreated",
      "type": "event"
    },
    {
      "anonymous": false,
      "inputs": [
        {
          "indexed": true,
          "internalType": "uint256",
          "name": "id",
          "type": "uint256"
        },
        {
          "indexed": false,
          "internalType": "enum PredictionMarket.MarketOutcome",
          "name": "outcome",
          "type": "uint8"
        }
      ],
      "name": "MarketResolved",
      "type": "event"
    },
    {
      "anonymous": false,
      "inputs": [
        {
          "indexed": false,
          "internalType": "uint256",
          "name": "marketCount",
          "type": "uint256"
        },
        {
          "indexed": false,
          "internalType": "address",
          "name": "pollContractAddress",
          "type": "address"
        },
        {
          "indexed": false,
          "internalType": "address",
          "name": "messageProcessorContractAddress",
          "type": "address"
        },
        {
          "indexed": false,
          "internalType": "address",
          "name": "tallyContractAddress",
          "type": "address"
        }
      ],
      "name": "PollContractDeployed",
      "type": "event"
    },
    {
      "anonymous": false,
      "inputs": [
        {
          "indexed": true,
          "internalType": "address",
          "name": "user",
          "type": "address"
        }
      ],
      "name": "RegisteredWithMACI",
      "type": "event"
    },
    {
      "anonymous": false,
      "inputs": [
        {
          "indexed": true,
          "internalType": "uint256",
          "name": "id",
          "type": "uint256"
        },
        {
          "indexed": true,
          "internalType": "address",
          "name": "buyer",
          "type": "address"
        },
        {
          "indexed": false,
          "internalType": "uint256",
          "name": "amount",
          "type": "uint256"
        },
        {
          "indexed": false,
          "internalType": "bool",
          "name": "prediction",
          "type": "bool"
        }
      ],
      "name": "VotesBought",
      "type": "event"
    },
    {
      "anonymous": false,
      "inputs": [
        {
          "indexed": true,
          "internalType": "uint256",
          "name": "id",
          "type": "uint256"
        },
        {
          "indexed": true,
          "internalType": "address",
          "name": "claimer",
          "type": "address"
        },
        {
          "indexed": false,
          "internalType": "uint256",
          "name": "amount",
          "type": "uint256"
        }
      ],
      "name": "WinningsClaimed",
      "type": "event"
    },
    {
      "inputs": [
        {
          "internalType": "uint256",
          "name": "_marketId",
          "type": "uint256"
        },
        {
          "internalType": "bool",
          "name": "_prediction",
          "type": "bool"
        },
        {
          "internalType": "bytes",
          "name": "_encryptedVote",
          "type": "bytes"
        }
      ],
      "name": "buyVotes",
      "outputs": [],
      "stateMutability": "payable",
      "type": "function"
    },
    {
      "inputs": [
        {
          "internalType": "uint256",
          "name": "_marketId",
          "type": "uint256"
        }
      ],
      "name": "challengeMarketOutcome",
      "outputs": [],
      "stateMutability": "nonpayable",
      "type": "function"
    },
    {
      "inputs": [],
      "name": "challengePeriod",
      "outputs": [
        {
          "internalType": "uint256",
          "name": "",
          "type": "uint256"
        }
      ],
      "stateMutability": "view",
      "type": "function"
    },
    {
      "inputs": [
        {
          "internalType": "uint256",
          "name": "_marketId",
          "type": "uint256"
        }
      ],
      "name": "claimCuratorFee",
      "outputs": [],
      "stateMutability": "nonpayable",
      "type": "function"
    },
    {
      "inputs": [
        {
          "internalType": "uint256",
          "name": "_marketId",
          "type": "uint256"
        }
      ],
      "name": "claimWinnings",
      "outputs": [],
      "stateMutability": "nonpayable",
      "type": "function"
    },
    {
      "inputs": [
        {
          "internalType": "string",
          "name": "_question",
          "type": "string"
        },
        {
          "internalType": "uint256",
          "name": "_endDate",
          "type": "uint256"
        }
      ],
      "name": "createMarket",
      "outputs": [],
      "stateMutability": "nonpayable",
      "type": "function"
    },
    {
      "inputs": [],
      "name": "curatorFeePercentage",
      "outputs": [
        {
          "internalType": "uint256",
          "name": "",
          "type": "uint256"
        }
      ],
      "stateMutability": "view",
      "type": "function"
    },
    {
      "inputs": [
        {
          "internalType": "uint256",
          "name": "_marketId",
          "type": "uint256"
        },
        {
          "internalType": "bool",
          "name": "_agreeWithOutcome",
          "type": "bool"
        }
      ],
      "name": "curatorVoteOnOutcome",
      "outputs": [],
      "stateMutability": "nonpayable",
      "type": "function"
    },
    {
      "inputs": [
        {
          "internalType": "uint256",
          "name": "_marketId",
          "type": "uint256"
        }
      ],
      "name": "getCuratorAddresses",
      "outputs": [
        {
          "internalType": "address[]",
          "name": "",
          "type": "address[]"
        }
      ],
      "stateMutability": "view",
      "type": "function"
    },
    {
      "inputs": [],
      "name": "lockInPeriod",
      "outputs": [
        {
          "internalType": "uint256",
          "name": "",
          "type": "uint256"
        }
      ],
      "stateMutability": "view",
      "type": "function"
    },
    {
      "inputs": [],
      "name": "maciContractAddress",
      "outputs": [
        {
          "internalType": "address",
          "name": "",
          "type": "address"
        }
      ],
      "stateMutability": "view",
      "type": "function"
    },
    {
      "inputs": [],
      "name": "marketCount",
      "outputs": [
        {
          "internalType": "uint256",
          "name": "",
          "type": "uint256"
        }
      ],
      "stateMutability": "view",
      "type": "function"
    },
    {
      "inputs": [
        {
          "internalType": "uint256",
          "name": "",
          "type": "uint256"
        }
      ],
      "name": "markets",
      "outputs": [
        {
          "internalType": "uint256",
          "name": "id",
          "type": "uint256"
        },
        {
          "internalType": "address",
          "name": "owner",
          "type": "address"
        },
        {
          "internalType": "string",
          "name": "question",
          "type": "string"
        },
        {
          "internalType": "uint256",
          "name": "totalYesVotes",
          "type": "uint256"
        },
        {
          "internalType": "uint256",
          "name": "totalNoVotes",
          "type": "uint256"
        },
        {
          "internalType": "uint256",
          "name": "totalWinnings",
          "type": "uint256"
        },
        {
          "internalType": "enum PredictionMarket.MarketOutcome",
          "name": "outcome",
          "type": "uint8"
        },
        {
          "internalType": "uint256",
          "name": "endDate",
          "type": "uint256"
        },
        {
          "internalType": "uint256",
          "name": "resolvedAt",
          "type": "uint256"
        },
        {
          "internalType": "bool",
          "name": "challenged",
          "type": "bool"
        },
        {
          "internalType": "uint256",
          "name": "curatorYesVotes",
          "type": "uint256"
        },
        {
          "internalType": "uint256",
          "name": "curatorNoVotes",
          "type": "uint256"
        }
      ],
      "stateMutability": "view",
      "type": "function"
    },
    {
      "inputs": [],
      "name": "ownerFeeSharePercentage",
      "outputs": [
        {
          "internalType": "uint256",
          "name": "",
          "type": "uint256"
        }
      ],
      "stateMutability": "view",
      "type": "function"
    },
    {
      "inputs": [],
      "name": "platformFeePercentage",
      "outputs": [
        {
          "internalType": "uint256",
          "name": "",
          "type": "uint256"
        }
      ],
      "stateMutability": "view",
      "type": "function"
    },
    {
      "inputs": [],
      "name": "platformOwner",
      "outputs": [
        {
          "internalType": "address",
          "name": "",
          "type": "address"
        }
      ],
      "stateMutability": "view",
      "type": "function"
    },
    {
      "inputs": [
        {
          "components": [
            {
              "internalType": "uint256",
              "name": "x",
              "type": "uint256"
            },
            {
              "internalType": "uint256",
              "name": "y",
              "type": "uint256"
            }
          ],
          "internalType": "struct PredictionMarket.Pubkey",
          "name": "_pubkey",
          "type": "tuple"
        }
      ],
      "name": "registerWithMACI",
      "outputs": [],
      "stateMutability": "nonpayable",
      "type": "function"
    },
    {
      "inputs": [
        {
          "internalType": "uint256",
          "name": "_marketId",
          "type": "uint256"
        },
        {
          "internalType": "bool",
          "name": "_outcome",
          "type": "bool"
        }
      ],
      "name": "resolveMarket",
      "outputs": [],
      "stateMutability": "nonpayable",
      "type": "function"
    },
    {
      "inputs": [
        {
          "internalType": "address",
          "name": "user",
          "type": "address"
        },
        {
          "internalType": "uint256",
          "name": "voteCount",
          "type": "uint256"
        }
      ],
      "name": "setVoteCountForTest",
      "outputs": [],
      "stateMutability": "nonpayable",
      "type": "function"
    },
    {
      "inputs": [
        {
          "internalType": "address",
          "name": "_user",
          "type": "address"
        },
        {
          "internalType": "bool",
          "name": "_status",
          "type": "bool"
        }
      ],
      "name": "setWorldcoinVerified",
      "outputs": [],
      "stateMutability": "nonpayable",
      "type": "function"
    },
    {
      "inputs": [
        {
          "internalType": "address",
          "name": "",
          "type": "address"
        }
      ],
      "name": "userTotalWinnings",
      "outputs": [
        {
          "internalType": "uint256",
          "name": "",
          "type": "uint256"
        }
      ],
      "stateMutability": "view",
      "type": "function"
    },
    {
      "inputs": [
        {
          "internalType": "address",
          "name": "",
          "type": "address"
        }
      ],
      "name": "userVoteCounts",
      "outputs": [
        {
          "internalType": "uint256",
          "name": "",
          "type": "uint256"
        }
      ],
      "stateMutability": "view",
      "type": "function"
    },
    {
      "inputs": [
        {
          "internalType": "address",
          "name": "",
          "type": "address"
        }
      ],
      "name": "worldcoinVerified",
      "outputs": [
        {
          "internalType": "bool",
          "name": "",
          "type": "bool"
        }
      ],
      "stateMutability": "view",
      "type": "function"
    }
  ],
  "bytecode": "0x60806040526206978060035562093a806004556002600555601460065560056007553480156200002e57600080fd5b50604051620043393803806200433983398181016040528101906200005491906200014e565b33600160006101000a81548173ffffffffffffffffffffffffffffffffffffffff021916908373ffffffffffffffffffffffffffffffffffffffff1602179055506000600281905550806000806101000a81548173ffffffffffffffffffffffffffffffffffffffff021916908373ffffffffffffffffffffffffffffffffffffffff1602179055505062000180565b600080fd5b600073ffffffffffffffffffffffffffffffffffffffff82169050919050565b60006200011682620000e9565b9050919050565b620001288162000109565b81146200013457600080fd5b50565b60008151905062000148816200011d565b92915050565b600060208284031215620001675762000166620000e4565b5b6000620001778482850162000137565b91505092915050565b6141a980620001906000396000f3fe6080604052600436106101405760003560e01c80638266b03d116100b6578063b1283e771161006f578063b1283e7714610449578063cdd78cfc14610491578063d2a3cb32146104bc578063ec979082146104e5578063f3f480d914610510578063f5ed8a9c1461053b57610140565b80638266b03d14610329578063883c84c1146103665780638e325a431461038f57806391878d36146103b8578063a1d827f5146103e1578063af88884c1461040c57610140565b80634df8ccb1116101085780634df8ccb11461023e5780634fdba00914610269578063538953e21461029257806357bde446146102ae578063677bd9ff146102d75780636861244e1461030057610140565b806305377188146101455780630885744214610170578063176f3d0f146101ad57806322ecd296146101ea57806334b8373b14610213575b600080fd5b34801561015157600080fd5b5061015a610566565b6040516101679190612523565b60405180910390f35b34801561017c57600080fd5b50610197600480360381019061019291906125b0565b61056c565b6040516101a49190612523565b60405180910390f35b3480156101b957600080fd5b506101d460048036038101906101cf91906125b0565b610584565b6040516101e191906125f8565b60405180910390f35b3480156101f657600080fd5b50610211600480360381019061020c919061263f565b6105a4565b005b34801561021f57600080fd5b506102286107d2565b6040516102359190612523565b60405180910390f35b34801561024a57600080fd5b506102536107d8565b604051610260919061267b565b60405180910390f35b34801561027557600080fd5b50610290600480360381019061028b91906126c2565b6107fe565b005b6102ac60048036038101906102a79190612767565b6108e9565b005b3480156102ba57600080fd5b506102d560048036038101906102d091906127db565b610cde565b005b3480156102e357600080fd5b506102fe60048036038101906102f9919061263f565b611039565b005b34801561030c57600080fd5b50610327600480360381019061032291906127db565b61155b565b005b34801561033557600080fd5b50610350600480360381019061034b91906125b0565b611916565b60405161035d9190612523565b60405180910390f35b34801561037257600080fd5b5061038d6004803603810190610388919061295c565b61192e565b005b34801561039b57600080fd5b506103b660048036038101906103b19190612a0d565b611cb0565b005b3480156103c457600080fd5b506103df60048036038101906103da919061263f565b611de2565b005b3480156103ed57600080fd5b506103f661227b565b604051610403919061267b565b60405180910390f35b34801561041857600080fd5b50610433600480360381019061042e919061263f565b61229f565b6040516104409190612af8565b60405180910390f35b34801561045557600080fd5b50610470600480360381019061046b919061263f565b612343565b6040516104889c9b9a99989796959493929190612c10565b60405180910390f35b34801561049d57600080fd5b506104a6612465565b6040516104b39190612523565b60405180910390f35b3480156104c857600080fd5b506104e360048036038101906104de9190612cd1565b61246b565b005b3480156104f157600080fd5b506104fa6124f8565b6040516105079190612523565b60405180910390f35b34801561051c57600080fd5b506105256124fe565b6040516105329190612523565b60405180910390f35b34801561054757600080fd5b50610550612504565b60405161055d9190612523565b60405180910390f35b60045481565b600a6020528060005260406000206000915090505481565b600b6020528060005260406000206000915054906101000a900460ff1681565b806000811180156105b757506002548111155b6105f6576040517f08c379a00000000000000000000000000000000000000000000000000000000081526004016105ed90612d5d565b60405180910390fd5b33600b60008273ffffffffffffffffffffffffffffffffffffffff1673ffffffffffffffffffffffffffffffffffffffff16815260200190815260200160002060009054906101000a900460ff16610683576040517f08c379a000000000000000000000000000000000000000000000000000000000815260040161067a90612def565b60405180910390fd5b600060086000858152602001908152602001600020905060035481600901546106ac9190612e3e565b4211156106ee576040517f08c379a00000000000000000000000000000000000000000000000000000000081526004016106e590612ebe565b60405180910390fd5b6000600281111561070257610701612b99565b5b8160070160009054906101000a900460ff16600281111561072657610725612b99565b5b03610766576040517f08c379a000000000000000000000000000000000000000000000000000000000815260040161075d90612f50565b60405180910390fd5b600181600a0160006101000a81548160ff021916908315150217905550837ff9e85b2267674582d9895ae9424c9ca69bb26284a12207df54e8dde4f07c19e68260070160009054906101000a900460ff166040516107c49190612f70565b60405180910390a250505050565b60075481565b600160009054906101000a900473ffffffffffffffffffffffffffffffffffffffff1681565b600160009054906101000a900473ffffffffffffffffffffffffffffffffffffffff1673ffffffffffffffffffffffffffffffffffffffff163373ffffffffffffffffffffffffffffffffffffffff161461088e576040517f08c379a000000000000000000000000000000000000000000000000000000000815260040161088590612ffd565b60405180910390fd5b80600b60008473ffffffffffffffffffffffffffffffffffffffff1673ffffffffffffffffffffffffffffffffffffffff16815260200190815260200160002060006101000a81548160ff0219169083151502179055505050565b836000811180156108fc57506002548111155b61093b576040517f08c379a000000000000000000000000000000000000000000000000000000000815260040161093290612d5d565b60405180910390fd5b84600060028111156109505761094f612b99565b5b6008600083815260200190815260200160002060070160009054906101000a900460ff16600281111561098657610985612b99565b5b146109c6576040517f08c379a00000000000000000000000000000000000000000000000000000000081526004016109bd90613069565b60405180910390fd5b33600b60008273ffffffffffffffffffffffffffffffffffffffff1673ffffffffffffffffffffffffffffffffffffffff16815260200190815260200160002060009054906101000a900460ff16610a53576040517f08c379a0000000000000000000000000000000000000000000000000000000008152600401610a4a90612def565b60405180910390fd5b60003411610a96576040517f08c379a0000000000000000000000000000000000000000000000000000000008152600401610a8d906130d5565b60405180910390fd5b60086000888152602001908152602001600020600801544210610aee576040517f08c379a0000000000000000000000000000000000000000000000000000000008152600401610ae590613141565b60405180910390fd5b600060086000898152602001908152602001600020905060003390508715610b305734826003016000828254610b249190612e3e565b92505081905550610b4c565b34826004016000828254610b449190612e3e565b925050819055505b81600601878790918060018154018082558091505060019003906000526020600020016000909192909192909192909192509182610b8b929190613378565b503482600b0160008373ffffffffffffffffffffffffffffffffffffffff1673ffffffffffffffffffffffffffffffffffffffff1681526020019081526020016000206000828254610bdd9190612e3e565b925050819055503482600b0160008373ffffffffffffffffffffffffffffffffffffffff1673ffffffffffffffffffffffffffffffffffffffff1681526020019081526020016000205403610c8257600960008273ffffffffffffffffffffffffffffffffffffffff1673ffffffffffffffffffffffffffffffffffffffff1681526020019081526020016000206000815480929190610c7c90613448565b91905055505b8073ffffffffffffffffffffffffffffffffffffffff16897f735db38119c48c40c947a31bde6bbf4fd861f73beeb74c6c8fd9173af13931d6348b604051610ccb929190613490565b60405180910390a3505050505050505050565b816008600082815260200190815260200160002060010160009054906101000a900473ffffffffffffffffffffffffffffffffffffffff1673ffffffffffffffffffffffffffffffffffffffff163373ffffffffffffffffffffffffffffffffffffffff1614610d83576040517f08c379a0000000000000000000000000000000000000000000000000000000008152600401610d7a9061352b565b60405180910390fd5b82600081118015610d9657506002548111155b610dd5576040517f08c379a0000000000000000000000000000000000000000000000000000000008152600401610dcc90612d5d565b60405180910390fd5b8360006002811115610dea57610de9612b99565b5b6008600083815260200190815260200160002060070160009054906101000a900460ff166002811115610e2057610e1f612b99565b5b14610e60576040517f08c379a0000000000000000000000000000000000000000000000000000000008152600401610e5790613069565b60405180910390fd5b33600b60008273ffffffffffffffffffffffffffffffffffffffff1673ffffffffffffffffffffffffffffffffffffffff16815260200190815260200160002060009054906101000a900460ff16610eed576040517f08c379a0000000000000000000000000000000000000000000000000000000008152600401610ee490612def565b60405180910390fd5b60086000878152602001908152602001600020600801544211610f45576040517f08c379a0000000000000000000000000000000000000000000000000000000008152600401610f3c906135bd565b60405180910390fd5b600060086000888152602001908152602001600020905042816009018190555080600301548160040154610f799190612e3e565b81600501819055508515610fb95760018160070160006101000a81548160ff02191690836002811115610faf57610fae612b99565b5b0217905550610fe7565b60028160070160006101000a81548160ff02191690836002811115610fe157610fe0612b99565b5b02179055505b867f739f283563fb51ab6b89ee95d937b2e63a6cfcb83c385dbebb629f9d97bd43e68260070160009054906101000a900460ff166040516110289190612f70565b60405180910390a250505050505050565b8060008111801561104c57506002548111155b61108b576040517f08c379a000000000000000000000000000000000000000000000000000000000815260040161108290612d5d565b60405180910390fd5b33600b60008273ffffffffffffffffffffffffffffffffffffffff1673ffffffffffffffffffffffffffffffffffffffff16815260200190815260200160002060009054906101000a900460ff16611118576040517f08c379a000000000000000000000000000000000000000000000000000000000815260040161110f90612def565b60405180910390fd5b60006008600085815260200190815260200160002090506000600281111561114357611142612b99565b5b8160070160009054906101000a900460ff16600281111561116757611166612b99565b5b036111a7576040517f08c379a000000000000000000000000000000000000000000000000000000000815260040161119e90613629565b60405180910390fd5b60045481600901546111b99190612e3e565b42116111fa576040517f08c379a00000000000000000000000000000000000000000000000000000000081526004016111f190613695565b60405180910390fd5b80600a0160009054906101000a900460ff16158061121f575080601201548160110154115b61125e576040517f08c379a000000000000000000000000000000000000000000000000000000000815260040161125590613701565b60405180910390fd5b6000339050600082600b0160008373ffffffffffffffffffffffffffffffffffffffff1673ffffffffffffffffffffffffffffffffffffffff168152602001908152602001600020549050600081116112ec576040517f08c379a00000000000000000000000000000000000000000000000000000000081526004016112e39061376d565b60405180910390fd5b82600e0160008373ffffffffffffffffffffffffffffffffffffffff1673ffffffffffffffffffffffffffffffffffffffff16815260200190815260200160002060009054906101000a900460ff161561137b576040517f08c379a0000000000000000000000000000000000000000000000000000000008152600401611372906137ff565b60405180910390fd5b6000836004015484600301546113919190612e3e565b8460050154836113a1919061381f565b6113ab9190613890565b905060006064600554836113bf919061381f565b6113c99190613890565b905060006064600654836113dd919061381f565b6113e79190613890565b9050600082846113f791906138c1565b905060008673ffffffffffffffffffffffffffffffffffffffff168260405161141f90613926565b60006040518083038185875af1925050503d806000811461145c576040519150601f19603f3d011682016040523d82523d6000602084013e611461565b606091505b50509050806114a5576040517f08c379a000000000000000000000000000000000000000000000000000000000815260040161149c90613987565b60405180910390fd5b600188600e0160008973ffffffffffffffffffffffffffffffffffffffff1673ffffffffffffffffffffffffffffffffffffffff16815260200190815260200160002060006101000a81548160ff0219169083151502179055508673ffffffffffffffffffffffffffffffffffffffff168b7f5380cf6fe903b40c6d5a9e0dfbca2f3a423f0a21520b4d5947ed5169bdba946d846040516115469190612523565b60405180910390a35050505050505050505050565b8160008111801561156e57506002548111155b6115ad576040517f08c379a00000000000000000000000000000000000000000000000000000000081526004016115a490612d5d565b60405180910390fd5b33600b60008273ffffffffffffffffffffffffffffffffffffffff1673ffffffffffffffffffffffffffffffffffffffff16815260200190815260200160002060009054906101000a900460ff1661163a576040517f08c379a000000000000000000000000000000000000000000000000000000000815260040161163190612def565b60405180910390fd5b600060086000868152602001908152602001600020905080600a0160009054906101000a900460ff166116a2576040517f08c379a0000000000000000000000000000000000000000000000000000000008152600401611699906139f3565b60405180910390fd5b80600d0160003373ffffffffffffffffffffffffffffffffffffffff1673ffffffffffffffffffffffffffffffffffffffff16815260200190815260200160002060009054906101000a900460ff1615611731576040517f08c379a000000000000000000000000000000000000000000000000000000000815260040161172890613a85565b60405180910390fd5b83156117bb5780601101600081548092919061174c90613448565b919050555080601001339080600181540180825580915050600190039060005260206000200160009091909190916101000a81548173ffffffffffffffffffffffffffffffffffffffff021916908373ffffffffffffffffffffffffffffffffffffffff1602179055506117d6565b8060120160008154809291906117d090613448565b91905055505b600181600d0160003373ffffffffffffffffffffffffffffffffffffffff1673ffffffffffffffffffffffffffffffffffffffff16815260200190815260200160002060006101000a81548160ff0219169083151502179055508060120154816011015411801561186a57506002816012015482601101546118589190612e3e565b6118629190613890565b816011015410155b156118a15760018160070160006101000a81548160ff0219169083600281111561189757611896612b99565b5b021790555061190f565b806011015481601201541180156118db57506002816012015482601101546118c99190612e3e565b6118d39190613890565b816012015410155b1561190e5760028160070160006101000a81548160ff0219169083600281111561190857611907612b99565b5b02179055505b5b5050505050565b60096020528060005260406000206000915090505481565b33600b60008273ffffffffffffffffffffffffffffffffffffffff1673ffffffffffffffffffffffffffffffffffffffff16815260200190815260200160002060009054906101000a900460ff166119bb576040517f08c379a00000000000000000000000000000000000000000000000000000000081526004016119b290612def565b60405180910390fd5b4282116119fd576040517f08c379a00000000000000000000000000000000000000000000000000000000081526004016119f490613af1565b60405180910390fd5b60026000815480929190611a1090613448565b9190505550600060086000600254815260200190815260200160002090506002548160000181905550338160010160006101000a81548173ffffffffffffffffffffffffffffffffffffffff021916908373ffffffffffffffffffffffffffffffffffffffff16021790555083816002019081611a8d9190613b6c565b5060008160070160006101000a81548160ff02191690836002811115611ab657611ab5612b99565b5b0217905550828160080181905550600060405180604001604052807f06af21ce5cda6908de34db121621d7bb4abd3fe1b0ada4e85fd258729d27f51c81526020017f218a257d98ed37eaecff306ab38cea47d535ac6bf3a18ab3e42b96ad120d01c0815250905060008060009054906101000a900473ffffffffffffffffffffffffffffffffffffffff16905060006040518060800160405280600a815260200160038152602001600481526020016005815250905060008060008473ffffffffffffffffffffffffffffffffffffffff16636f63e62762093a808689739fe46736679d2d9a65f0992f2272de9f3c7fa6e073a51c1fc2f0d1a1b8494ed1fe312d7c3a78ed91c060006040518763ffffffff1660e01b8152600401611be096959493929190613d0c565b6060604051808303816000875af1158015611bff573d6000803e3d6000fd5b505050506040513d601f19601f82011682018060405250810190611c239190613d85565b9250925092506002547f2d1e9ad45dbe8e898e0374deebf2a661b2ae7c1855d2a29507d584c35d287c758b8b604051611c5d929190613dd8565b60405180910390a27f385a2b5a4dc983d2635f144cc5f8b730fd38c8a8f1dfef63bce88b54124e69f0600254848484604051611c9c9493929190613e08565b60405180910390a150505050505050505050565b60008060009054906101000a900473ffffffffffffffffffffffffffffffffffffffff169050600060405180604001604052807f06af21ce5cda6908de34db121621d7bb4abd3fe1b0ada4e85fd258729d27f51c81526020017f218a257d98ed37eaecff306ab38cea47d535ac6bf3a18ab3e42b96ad120d01c081525090508173ffffffffffffffffffffffffffffffffffffffff166379139b70826040518263ffffffff1660e01b8152600401611d689190613eaa565b600060405180830381600087803b158015611d8257600080fd5b505af1158015611d96573d6000803e3d6000fd5b505050503373ffffffffffffffffffffffffffffffffffffffff167fe1548e420ec342f3f2cebe40ea8a7cb352ba5499c64db3a4aaa0ceff609bf54060405160405180910390a2505050565b80600081118015611df557506002548111155b611e34576040517f08c379a0000000000000000000000000000000000000000000000000000000008152600401611e2b90612d5d565b60405180910390fd5b600060086000848152602001908152602001600020905060006002811115611e5f57611e5e612b99565b5b8160070160009054906101000a900460ff166002811115611e8357611e82612b99565b5b03611ec3576040517f08c379a0000000000000000000000000000000000000000000000000000000008152600401611eba90613629565b60405180910390fd5b6004548160090154611ed59190612e3e565b4211611f16576040517f08c379a0000000000000000000000000000000000000000000000000000000008152600401611f0d90613695565b60405180910390fd5b80600a0160009054906101000a900460ff161580611f3b575080601201548160110154115b611f7a576040517f08c379a0000000000000000000000000000000000000000000000000000000008152600401611f7190613701565b60405180910390fd5b600033905081600f0160008273ffffffffffffffffffffffffffffffffffffffff1673ffffffffffffffffffffffffffffffffffffffff16815260200190815260200160002060009054906101000a900460ff161561200e576040517f08c379a000000000000000000000000000000000000000000000000000000000815260040161200590613f5d565b60405180910390fd5b6000805b83601001805490508110156120aa578273ffffffffffffffffffffffffffffffffffffffff1684601001828154811061204e5761204d613f7d565b5b9060005260206000200160009054906101000a900473ffffffffffffffffffffffffffffffffffffffff1673ffffffffffffffffffffffffffffffffffffffff160361209d57600191506120aa565b8080600101915050612012565b50806120eb576040517f08c379a00000000000000000000000000000000000000000000000000000000081526004016120e29061401e565b60405180910390fd5b600060646007548560050154612101919061381f565b61210b9190613890565b90506000846012015485601101546121239190612e3e565b8261212e9190613890565b905060008473ffffffffffffffffffffffffffffffffffffffff168260405161215690613926565b60006040518083038185875af1925050503d8060008114612193576040519150601f19603f3d011682016040523d82523d6000602084013e612198565b606091505b50509050806121dc576040517f08c379a00000000000000000000000000000000000000000000000000000000081526004016121d39061408a565b60405180910390fd5b600186600f0160008773ffffffffffffffffffffffffffffffffffffffff1673ffffffffffffffffffffffffffffffffffffffff16815260200190815260200160002060006101000a81548160ff0219169083151502179055507f9af5b21cabce4c362b205b388dac7cdf80b3b509bfedc607b74f1790bb5fce37888684604051612269939291906140aa565b60405180910390a15050505050505050565b60008054906101000a900473ffffffffffffffffffffffffffffffffffffffff1681565b60606008600083815260200190815260200160002060100180548060200260200160405190810160405280929190818152602001828054801561233757602002820191906000526020600020905b8160009054906101000a900473ffffffffffffffffffffffffffffffffffffffff1673ffffffffffffffffffffffffffffffffffffffff16815260200190600101908083116122ed575b50505050509050919050565b60086020528060005260406000206000915090508060000154908060010160009054906101000a900473ffffffffffffffffffffffffffffffffffffffff16908060020180546123929061319b565b80601f01602080910402602001604051908101604052809291908181526020018280546123be9061319b565b801561240b5780601f106123e05761010080835404028352916020019161240b565b820191906000526020600020905b8154815290600101906020018083116123ee57829003601f168201915b5050505050908060030154908060040154908060050154908060070160009054906101000a900460ff169080600801549080600901549080600a0160009054906101000a900460ff1690806011015490806012015490508c565b60055481565b60038111156124af576040517f08c379a00000000000000000000000000000000000000000000000000000000081526004016124a690614153565b60405180910390fd5b6004600960008473ffffffffffffffffffffffffffffffffffffffff1673ffffffffffffffffffffffffffffffffffffffff168152602001908152602001600020819055505050565b60025481565b60035481565b60065481565b6000819050919050565b61251d8161250a565b82525050565b60006020820190506125386000830184612514565b92915050565b6000604051905090565b600080fd5b600080fd5b600073ffffffffffffffffffffffffffffffffffffffff82169050919050565b600061257d82612552565b9050919050565b61258d81612572565b811461259857600080fd5b50565b6000813590506125aa81612584565b92915050565b6000602082840312156125c6576125c5612548565b5b60006125d48482850161259b565b91505092915050565b60008115159050919050565b6125f2816125dd565b82525050565b600060208201905061260d60008301846125e9565b92915050565b61261c8161250a565b811461262757600080fd5b50565b60008135905061263981612613565b92915050565b60006020828403121561265557612654612548565b5b60006126638482850161262a565b91505092915050565b61267581612572565b82525050565b6000602082019050612690600083018461266c565b92915050565b61269f816125dd565b81146126aa57600080fd5b50565b6000813590506126bc81612696565b92915050565b600080604083850312156126d9576126d8612548565b5b60006126e78582860161259b565b92505060206126f8858286016126ad565b9150509250929050565b600080fd5b600080fd5b600080fd5b60008083601f84011261272757612726612702565b5b8235905067ffffffffffffffff81111561274457612743612707565b5b6020830191508360018202830111156127605761275f61270c565b5b9250929050565b6000806000806060858703121561278157612780612548565b5b600061278f8782880161262a565b94505060206127a0878288016126ad565b935050604085013567ffffffffffffffff8111156127c1576127c061254d565b5b6127cd87828801612711565b925092505092959194509250565b600080604083850312156127f2576127f1612548565b5b60006128008582860161262a565b9250506020612811858286016126ad565b9150509250929050565b600080fd5b6000601f19601f8301169050919050565b7f4e487b7100000000000000000000000000000000000000000000000000000000600052604160045260246000fd5b61286982612820565b810181811067ffffffffffffffff8211171561288857612887612831565b5b80604052505050565b600061289b61253e565b90506128a78282612860565b919050565b600067ffffffffffffffff8211156128c7576128c6612831565b5b6128d082612820565b9050602081019050919050565b82818337600083830152505050565b60006128ff6128fa846128ac565b612891565b90508281526020810184848401111561291b5761291a61281b565b5b6129268482856128dd565b509392505050565b600082601f83011261294357612942612702565b5b81356129538482602086016128ec565b91505092915050565b6000806040838503121561297357612972612548565b5b600083013567ffffffffffffffff8111156129915761299061254d565b5b61299d8582860161292e565b92505060206129ae8582860161262a565b9150509250929050565b600080fd5b6000604082840312156129d3576129d26129b8565b5b6129dd6040612891565b905060006129ed8482850161262a565b6000830152506020612a018482850161262a565b60208301525092915050565b600060408284031215612a2357612a22612548565b5b6000612a31848285016129bd565b91505092915050565b600081519050919050565b600082825260208201905092915050565b6000819050602082019050919050565b612a6f81612572565b82525050565b6000612a818383612a66565b60208301905092915050565b6000602082019050919050565b6000612aa582612a3a565b612aaf8185612a45565b9350612aba83612a56565b8060005b83811015612aeb578151612ad28882612a75565b9750612add83612a8d565b925050600181019050612abe565b5085935050505092915050565b60006020820190508181036000830152612b128184612a9a565b905092915050565b600081519050919050565b600082825260208201905092915050565b60005b83811015612b54578082015181840152602081019050612b39565b60008484015250505050565b6000612b6b82612b1a565b612b758185612b25565b9350612b85818560208601612b36565b612b8e81612820565b840191505092915050565b7f4e487b7100000000000000000000000000000000000000000000000000000000600052602160045260246000fd5b60038110612bd957612bd8612b99565b5b50565b6000819050612bea82612bc8565b919050565b6000612bfa82612bdc565b9050919050565b612c0a81612bef565b82525050565b600061018082019050612c26600083018f612514565b612c33602083018e61266c565b8181036040830152612c45818d612b60565b9050612c54606083018c612514565b612c61608083018b612514565b612c6e60a083018a612514565b612c7b60c0830189612c01565b612c8860e0830188612514565b612c96610100830187612514565b612ca46101208301866125e9565b612cb2610140830185612514565b612cc0610160830184612514565b9d9c50505050505050505050505050565b60008060408385031215612ce857612ce7612548565b5b6000612cf68582860161259b565b9250506020612d078582860161262a565b9150509250929050565b7f496e76616c6964206d61726b6574204944000000000000000000000000000000600082015250565b6000612d47601183612b25565b9150612d5282612d11565b602082019050919050565b60006020820190508181036000830152612d7681612d3a565b9050919050565b7f55736572206973206e6f74207665726966696564207769746820576f726c646360008201527f6f696e0000000000000000000000000000000000000000000000000000000000602082015250565b6000612dd9602383612b25565b9150612de482612d7d565b604082019050919050565b60006020820190508181036000830152612e0881612dcc565b9050919050565b7f4e487b7100000000000000000000000000000000000000000000000000000000600052601160045260246000fd5b6000612e498261250a565b9150612e548361250a565b9250828201905080821115612e6c57612e6b612e0f565b5b92915050565b7f4368616c6c656e676520706572696f6420686173206578706972656400000000600082015250565b6000612ea8601c83612b25565b9150612eb382612e72565b602082019050919050565b60006020820190508181036000830152612ed781612e9b565b9050919050565b7f4d61726b6574206d757374206265207265736f6c76656420746f206368616c6c60008201527f656e676500000000000000000000000000000000000000000000000000000000602082015250565b6000612f3a602483612b25565b9150612f4582612ede565b604082019050919050565b60006020820190508181036000830152612f6981612f2d565b9050919050565b6000602082019050612f856000830184612c01565b92915050565b7f4f6e6c792074686520706c6174666f726d206f776e65722063616e2063616c6c60008201527f20746869732066756e6374696f6e000000000000000000000000000000000000602082015250565b6000612fe7602e83612b25565b9150612ff282612f8b565b604082019050919050565b6000602082019050818103600083015261301681612fda565b9050919050565b7f4d61726b657420616c7265616479207265736f6c766564000000000000000000600082015250565b6000613053601783612b25565b915061305e8261301d565b602082019050919050565b6000602082019050818103600083015261308281613046565b9050919050565b7f416d6f756e74206d7573742062652067726561746572207468616e2030000000600082015250565b60006130bf601d83612b25565b91506130ca82613089565b602082019050919050565b600060208201905081810360008301526130ee816130b2565b9050919050565b7f566f74696e6720706572696f642068617320656e646564000000000000000000600082015250565b600061312b601783612b25565b9150613136826130f5565b602082019050919050565b6000602082019050818103600083015261315a8161311e565b9050919050565b600082905092915050565b7f4e487b7100000000000000000000000000000000000000000000000000000000600052602260045260246000fd5b600060028204905060018216806131b357607f821691505b6020821081036131c6576131c561316c565b5b50919050565b60008190508160005260206000209050919050565b60006020601f8301049050919050565b600082821b905092915050565b60006008830261322e7fffffffffffffffffffffffffffffffffffffffffffffffffffffffffffffffff826131f1565b61323886836131f1565b95508019841693508086168417925050509392505050565b6000819050919050565b600061327561327061326b8461250a565b613250565b61250a565b9050919050565b6000819050919050565b61328f8361325a565b6132a361329b8261327c565b8484546131fe565b825550505050565b600090565b6132b86132ab565b6132c3818484613286565b505050565b5b818110156132e7576132dc6000826132b0565b6001810190506132c9565b5050565b601f82111561332c576132fd816131cc565b613306846131e1565b81016020851015613315578190505b613329613321856131e1565b8301826132c8565b50505b505050565b600082821c905092915050565b600061334f60001984600802613331565b1980831691505092915050565b6000613368838361333e565b9150826002028217905092915050565b6133828383613161565b67ffffffffffffffff81111561339b5761339a612831565b5b6133a5825461319b565b6133b08282856132eb565b6000601f8311600181146133df57600084156133cd578287013590505b6133d7858261335c565b86555061343f565b601f1984166133ed866131cc565b60005b82811015613415578489013582556001820191506020850194506020810190506133f0565b86831015613432578489013561342e601f89168261333e565b8355505b6001600288020188555050505b50505050505050565b60006134538261250a565b91507fffffffffffffffffffffffffffffffffffffffffffffffffffffffffffffffff820361348557613484612e0f565b5b600182019050919050565b60006040820190506134a56000830185612514565b6134b260208301846125e9565b9392505050565b7f4f6e6c7920746865206d61726b6574206f776e65722063616e2063616c6c207460008201527f6869732066756e6374696f6e0000000000000000000000000000000000000000602082015250565b6000613515602c83612b25565b9150613520826134b9565b604082019050919050565b6000602082019050818103600083015261354481613508565b9050919050565b7f43616e6e6f74207265736f6c7665206d61726b6574206265666f726520656e6460008201527f2064617465000000000000000000000000000000000000000000000000000000602082015250565b60006135a7602583612b25565b91506135b28261354b565b604082019050919050565b600060208201905081810360008301526135d68161359a565b9050919050565b7f4d61726b6574206e6f7420796574207265736f6c766564000000000000000000600082015250565b6000613613601783612b25565b915061361e826135dd565b602082019050919050565b6000602082019050818103600083015261364281613606565b9050919050565b7f4c6f636b2d696e20706572696f6420686173206e6f7420656e64656400000000600082015250565b600061367f601c83612b25565b915061368a82613649565b602082019050919050565b600060208201905081810360008301526136ae81613672565b9050919050565b7f4368616c6c656e67657320756e7265736f6c7665640000000000000000000000600082015250565b60006136eb601583612b25565b91506136f6826136b5565b602082019050919050565b6000602082019050818103600083015261371a816136de565b9050919050565b7f4e6f20766f74657320706c616365642062792075736572000000000000000000600082015250565b6000613757601783612b25565b915061376282613721565b602082019050919050565b600060208201905081810360008301526137868161374a565b9050919050565b7f57696e6e696e677320616c726561647920636c61696d6564206279207468697360008201527f2075736572000000000000000000000000000000000000000000000000000000602082015250565b60006137e9602583612b25565b91506137f48261378d565b604082019050919050565b60006020820190508181036000830152613818816137dc565b9050919050565b600061382a8261250a565b91506138358361250a565b92508282026138438161250a565b9150828204841483151761385a57613859612e0f565b5b5092915050565b7f4e487b7100000000000000000000000000000000000000000000000000000000600052601260045260246000fd5b600061389b8261250a565b91506138a68361250a565b9250826138b6576138b5613861565b5b828204905092915050565b60006138cc8261250a565b91506138d78361250a565b92508282039050818111156138ef576138ee612e0f565b5b92915050565b600081905092915050565b50565b60006139106000836138f5565b915061391b82613900565b600082019050919050565b600061393182613903565b9150819050919050565b7f4661696c656420746f2073656e642077696e6e696e6773000000000000000000600082015250565b6000613971601783612b25565b915061397c8261393b565b602082019050919050565b600060208201905081810360008301526139a081613964565b9050919050565b7f4d61726b657420686173206e6f74206265656e206368616c6c656e6765640000600082015250565b60006139dd601e83612b25565b91506139e8826139a7565b602082019050919050565b60006020820190508181036000830152613a0c816139d0565b9050919050565b7f596f75206861766520616c726561647920766f7465642061732061206375726160008201527f746f720000000000000000000000000000000000000000000000000000000000602082015250565b6000613a6f602383612b25565b9150613a7a82613a13565b604082019050919050565b60006020820190508181036000830152613a9e81613a62565b9050919050565b7f456e642064617465206d75737420626520696e20746865206675747572650000600082015250565b6000613adb601e83612b25565b9150613ae682613aa5565b602082019050919050565b60006020820190508181036000830152613b0a81613ace565b9050919050565b60008190508160005260206000209050919050565b601f821115613b6757613b3881613b11565b613b41846131e1565b81016020851015613b50578190505b613b64613b5c856131e1565b8301826132c8565b50505b505050565b613b7582612b1a565b67ffffffffffffffff811115613b8e57613b8d612831565b5b613b98825461319b565b613ba3828285613b26565b600060209050601f831160018114613bd65760008415613bc4578287015190505b613bce858261335c565b865550613c36565b601f198416613be486613b11565b60005b82811015613c0c57848901518255600182019150602085019450602081019050613be7565b86831015613c295784890151613c25601f89168261333e565b8355505b6001600288020188555050505b505050505050565b6000819050919050565b6000613c63613c5e613c5984613c3e565b613250565b61250a565b9050919050565b613c7381613c48565b82525050565b613c828161250a565b82525050565b608082016000820151613c9e6000850182613c79565b506020820151613cb16020850182613c79565b506040820151613cc46040850182613c79565b506060820151613cd76060850182613c79565b50505050565b604082016000820151613cf36000850182613c79565b506020820151613d066020850182613c79565b50505050565b600061014082019050613d226000830189613c6a565b613d2f6020830188613c88565b613d3c60a0830187613cdd565b613d4960e083018661266c565b613d5761010083018561266c565b613d656101208301846125e9565b979650505050505050565b600081519050613d7f81612584565b92915050565b600080600060608486031215613d9e57613d9d612548565b5b6000613dac86828701613d70565b9350506020613dbd86828701613d70565b9250506040613dce86828701613d70565b9150509250925092565b60006040820190508181036000830152613df28185612b60565b9050613e016020830184612514565b9392505050565b6000608082019050613e1d6000830187612514565b613e2a602083018661266c565b613e37604083018561266c565b613e44606083018461266c565b95945050505050565b600082825260208201905092915050565b7f3078000000000000000000000000000000000000000000000000000000000000600082015250565b6000613e94600283613e4d565b9150613e9f82613e5e565b602082019050919050565b6000608082019050613ebf6000830184613cdd565b8181036040830152613ed081613e87565b90508181036060830152613ee381613e87565b905092915050565b7f43757261746f722066656520616c726561647920636c61696d6564206279207460008201527f6869732063757261746f72000000000000000000000000000000000000000000602082015250565b6000613f47602b83612b25565b9150613f5282613eeb565b604082019050919050565b60006020820190508181036000830152613f7681613f3a565b9050919050565b7f4e487b7100000000000000000000000000000000000000000000000000000000600052603260045260246000fd5b7f43757261746f72206973206e6f742070617274206f6620746865206368616c6c60008201527f656e676500000000000000000000000000000000000000000000000000000000602082015250565b6000614008602483612b25565b915061401382613fac565b604082019050919050565b6000602082019050818103600083015261403781613ffb565b9050919050565b7f4661696c656420746f2073656e642063757261746f7220666565000000000000600082015250565b6000614074601a83612b25565b915061407f8261403e565b602082019050919050565b600060208201905081810360008301526140a381614067565b9050919050565b60006060820190506140bf6000830186612514565b6140cc602083018561266c565b6140d96040830184612514565b949350505050565b7f43616e206f6e6c792073657420757020746f203320766f74657320666f72207460008201527f657374696e670000000000000000000000000000000000000000000000000000602082015250565b600061413d602683612b25565b9150614148826140e1565b604082019050919050565b6000602082019050818103600083015261416c81614130565b905091905056fea26469706673582212206fa6e0d95e1b058df1b60b71714e4b0e3a7f4446ca711b76cf4ee6a22ea7447464736f6c63430008180033",
  "linkReferences": {},
  "deployedLinkReferences": {}
}